:1000000000000120DD5C0000155D0000A904000077
:10001000195D0000B9040000C104000000000000E8
:10002000000000000000000000000000A52C0000FF
:10003000215D0000000000003D2D00004D2D00005E
:10004000275D0000275D0000275D0000275D0000A0
:10005000275D0000275D0000275D0000275D000090
:10006000275D0000275D0000275D0000275D000080
:10007000275D000089910000275D0000275D0000DA
:10008000275D0000275D0000275D0000275D000060
:10009000275D0000275D0000275D0000275D000050
:1000A000419400004F940000275D0000275D000090
:1000B000275D0000275D0000000000000000000038
:1000C000275D0000275D0000275D0000275D000020
:1000D000275D0000275D0000275D000010B5054C7E
:1000E000237833B9044B13B10448AFF300800123E4
:1000F000237010BD900C0020000000006C1E010059
:100100000C4B43B10C480D4910B5AFF300800C48BF
:10011000036823B910BD0A48036833B97047094B17
:10012000002BF7D0BDE810401847064B002BF5D048
:10013000184700BF000000006C1E0100940C002056
:10014000900C002000000000154B002B08BF134B43
:100150009D46A3F5803A00218B460F461348144A6A
:10016000121A0CF003FC0F4B002B00D098470E4BDB
:10017000002B00D098470020002104000D000D48FE
:10018000002802D00C4801F0E4FF0BF0A5FF20008E
:10019000290002F051FB01F0D2FF00BF000008006F
:1001A000000001200000000079270000900C0020D2
:1001B000F0280020532100000000000000B583B0AB
:1001C0000190019B1B681F2B04D905494FF4E8706F
:1001D0000AF02FFF4FF0A043184603B05DF804FB70
:1001E0005806010000B585B0019001AB1846FFF735
:1001F000E5FF0390019B012202FA03F319460398DD
:1002000000F018F800BF05B05DF804FB00B585B03C
:10021000019001AB1846FFF7D1FF0390019B01222B
:1002200002FA03F31946039800F00EF800BF05B078
:100230005DF804FB82B001900091019B009AC3F825
:10024000082500BF02B0704782B001900091019B69
:10025000009AC3F80C2500BF02B0704700B583B008
:1002600001900091019B93F90030B3F1FF3F04D15D
:1002700020220C490C4801F0D9F9009B002B06D034
:10028000019B93F900301846FFF7ACFF05E0019B96
:1002900093F900301846FFF7B9FF00BF03B05DF8CF
:1002A00004FB00BFB0060100EC06010000B583B0FE
:1002B00001900B468DF80330019B00221A70019BC0
:1002C0009DF903201146184600F03FFC019B18469B
:1002D00003B05DF804FB00B583B001900091019B71
:1002E00000991846FFF7BAFF00BF03B05DF804FBA2
:1002F00000B583B00190019B18460BF089F90346C5
:10030000184603B05DF804FB00B583B0019000917E
:1003100000990198FFF7DFFF019B184603B05DF8D5
:1003200004FB00B583B001900198FFF7E1FF03469D
:10033000184603B05DF804FB82B00190019BD3F82E
:100340001035DBB2184602B07047000000B585B02A
:1003500001900B468DF803309DF803300393019B09
:10036000094A934204D9094940F269200AF061FE22
:10037000019B4FF47A5202FB03F2039B22FA03F330
:10038000184605B05DF804FB93180400040701004B
:1003900000B583B001900091019B1B681846FFF7E0
:1003A000CBFF034619460098FFF7D0FF03461846D7
:1003B00003B05DF804FB82B003460091ADF806304F
:1003C000BDF80630B3F5A07F00D000E000BF00BF4D
:1003D00002B0704700B585B06423039300211B4829
:1003E000FFF792FF00211A48FFF78EFF01211848FE
:1003F000FFF78AFF174A6B4692E8030083E8030081
:100400006B46154A1946154809F0D0F80399134868
:10041000FFF7BEFF02900123029A00210F4809F066
:1004200017FA0E4809F0E6F94FF4FA7001F0E8FF08
:100430000648FFF776FF0346002B0CBF012300237D
:10044000DBB219460148FFF75FFFEDE7AC0C002077
:10045000B00C002060070100B7030000680701002E
:1004600000B583B001900091019B012B0CD1009B42
:100470004FF6FF72934207D111210548FFF716FF8F
:1004800012210448FFF712FF00BF03B05DF804FB20
:10049000AC0C0020B00C002008B54FF6FF71012015
:1004A000FFF7DEFF08BD00004FF0100300F00CB8AE
:1004B0004FF0200300F008B84FF0300300F004B80C
:1004C0004FF0400300F000B8EFF308804FF0040154
:1004D00072460A4201D0EFF309809C46244B19680A
:1004E00002680A60043142680A60043182680A6066
:1004F0000431C2680A600431F0C147460F6004311C
:100500004F460F60043157460F6004315F460F605D
:10051000043102690A60083142690A600431826963
:100520000A600431C2690A600431034620334FF483
:100530000076324200D0043375464FF01006354243
:1005400000D148330C46103C2360EFF309820A6067
:100550000431EFF308820A60043172460A60043104
:10056000EFF314820A606046014900F003F8FEE7E9
:100570007007010000B587B0039002910023059336
:10058000194801F01DF9039B302B09D0402B0DD0E9
:10059000202B11D1154801F013F9154B059311E0EB
:1005A000144801F00DF9144B05930BE0134801F0CA
:1005B00007F9134B059305E0124801F001F9124BBE
:1005C000059300BF114801F0FBF800F027F8104830
:1005D00001F0F6F80F4BDA6B0023009300230E496D
:1005E000059801F0BBFA00BF74070100A0070100E5
:1005F0003E01FF80B00701003F01FF80BC07010002
:100600004001FF80C80701003D01FF80D4070100C1
:10061000E00701003C1800200008010030B587B059
:10062000002305930CE0454A059B9B0013441B687F
:100630001A460599424801F0C3F8059B013305931A
:10064000059B0C2BEFDD3D4B586B3C4B9C6B3B4BA8
:10065000DD6B3A4B1B6C394A526C3849896C0291FC
:10066000019200932B4622460146364801F0A8F835
:10067000354B1B681946354801F0A2F8324BD86A51
:10068000314B9B6ADCB2304B9B6A1B0ADDB22E4BAE
:100690009B6A1B0C9BB22C4A126B2B49C96B0291B3
:1006A000019200932B4622460146294801F088F822
:1006B000254B9B6A03F08003002B05D0224B5B6B1C
:1006C0001946244801F07CF81F4B9B6A03F4004351
:1006D000002B05D01C4B9B6B19461F4801F070F88E
:1006E000164BDB6C03F00803002B10D01B4801F005
:1006F00067F8124B1B6D03F00103002B03D0184861
:1007000001F05EF809E0174801F05AF805E01648D4
:1007100001F056F8134801F053F8084BDB6C03F076
:100720000403002B03D0114801F04AF802E01048FE
:1007300001F046F800BF07B030BD00BF3C180020F4
:10074000100801002008010000ED00E07008010021
:1007500080080100D0080100E0080100F008010055
:1007600000090100100901002409010034090100F9
:100770004009010082B001900091009B184602B030
:10078000704782B0019000916FF01503184602B0D7
:10079000704700B585B0039002910192039B1B68DE
:1007A00010331B68019A029903989847034618462C
:1007B00005B05DF804FB00B583B00190019B1B6898
:1007C00018331B68019898470346184603B05DF834
:1007D00004FB00B583B00190019B1B6828331B68A4
:1007E000019898470346184603B05DF804FB82B0B1
:1007F00001900B468DF803309DF80330002B01D09B
:10080000002301E06FF01803184602B0704782B071
:1008100001900123184602B0704782B001900B4648
:100820008DF803306FF01503184602B0704782B0A0
:1008300001900B468DF803306FF01503184602B097
:10084000704782B001900B46ADF802301123184674
:1008500002B0704782B00190009100BF02B07047B3
:1008600010B582B001900091019800F068F80E4A2E
:10087000019B1A60019A4FF000034FF00004C2E997
:100880000234019B00221A61019B00225A61019BE4
:10089000009A9A61019B9B690449184600F020FD6B
:1008A000019B184602B010BD54090100B1080000B8
:1008B00000B585B00190019B0393039B1B6808332F
:1008C0001B680398984700BF05B05DF804FB000063
:1008D00000B583B00190074A019B1A60019800F0AF
:1008E0001FF8019800F031F8019B184603B05DF83D
:1008F00004FB00BF5409010000B587B00590CDE9A5
:100900000223059B9869059B03F10801059B009351
:10091000DDE9022300F04AFD00BF07B05DF804FBEB
:1009200000B583B00190019B9A69019B0833194679
:10093000104600F07EFD00BF03B05DF804FB82B0FE
:100940000190019B184602B0704782B00190019B54
:10095000184602B07047000000B583B00190054A08
:10096000019B1A60019800F045F8019B184603B0FE
:100970005DF804FBAC0A010000B583B0019001985A
:10098000FFF7EAFF019801F07DFC019B184603B0D8
:100990005DF804FB00B583B00190019B1B68103328
:1009A0001B6801220021019898470346184603B0AE
:1009B0005DF804FB00B583B00190019B1B68103308
:1009C0001B68002200210198984700BF03B05DF822
:1009D00004FB000000B583B00190019800F010F80E
:1009E000034A019B1A60019B184603B05DF804FBA3
:1009F000AC0A010082B00190019B184602B070471A
:100A000082B00190019B184602B0704700B583B0D8
:100A10000190019B1B681F2B04D905494FF4E87016
:100A20000AF007FB4FF0A043184603B05DF804FB43
:100A30006009010000B585B0019001AB1846FFF7D1
:100A4000E5FF0390019B012202FA03F31946039884
:100A500000F018F800BF05B05DF804FB00B585B0E4
:100A6000019001AB1846FFF7D1FF0390019B0122D3
:100A700002FA03F31946039800F00EF800BF05B020
:100A80005DF804FB82B001900091019B009AC3F8CD
:100A9000082500BF02B0704782B001900091019B11
:100AA000009AC3F80C2500BF02B0704700B583B0B0
:100AB00001900091019B93F90030B3F1FF3F04D105
:100AC00020220C490C4800F0B1FD009B002B06D001
:100AD000019B93F900301846FFF7ACFF05E0019B3E
:100AE00093F900301846FFF7B9FF00BF03B05DF877
:100AF00004FB00BFB8090100F409010000B585B08E
:100B0000039001930B468DF80B3013468DF80A3095
:100B10009DF90B30194603980AF044FD9DF90B30FE
:100B2000B3F1FF3F0DD001990398FFF7BFFF0121FB
:100B300003980AF0E1FE9DF80A30194603980AF07E
:100B4000A3FE00BF05B05DF804FB00B583B00190C3
:100B50000B468DF803309DF90330002219460198A9
:100B600000F004F800BF03B05DF804FB00B585B0E9
:100B700003900B4601928DF80B309DF90B10019BF1
:100B800000220398FFF7BAFF00BF05B05DF804FB31
:100B9000014B1846704700BF2C0A010008B5054BF1
:100BA0001B68002B03D0034B1B680348984700BF0A
:100BB00008BD00BFE40000202C0A01002DE9F04729
:100BC0008CB00390039B5B6893F83830002B40F0A7
:100BD000EF80039B5B6893F83A30002B40F0EA808B
:100BE000039B1B681B689847039B1B68DB6998473E
:100BF0000A900A9B1B6809930A9B1B68002B04D16F
:100C00002D226E496E4800F011FD00238DF82F3023
:100C10001F238DF82E3010E09DF82E3001229A40CF
:100C2000099B9A4204D19DF82E308DF82F3008E0B0
:100C30009DF82E30013B8DF82E309DF82E30002B84
:100C4000EAD10A9B5B6808930A9B5B68202B03D858
:100C50000A9B5B68032B04D83B225849584800F094
:100C6000E5FC089B043B072202FA03F30793079B6A
:100C700019464FF000020B4614466001019001989E
:100C800040EAD36001905B010093DDE900345B1A18
:100C900064EB02044FEA442A4AEAD35A4FEA432952
:100CA0004B4654465B1844EB0204A60146EA9366A1
:100CB0009D01ED1A66EB0406491942EB0602099BF9
:100CC0004FF000045B1844EB020413F1FF3044F1D1
:100CD000FF31099B4FF000041A4623460FF028FB12
:100CE00003460C46CDE90434039B5B6800221A607E
:100CF000039B5B6800225A60039B5C68039B1B6834
:100D00005B68984703462362039B5A684FF00003D1
:100D10004FF00004C2E90A34039B5B68099A9A60A9
:100D2000039B5B689DF82F2083F83B20039B5D6845
:100D30004FF001034FF00004089AA2F12000C2F125
:100D4000200104FA02F803FA00F048EA000823FA46
:100D500001F148EA010803FA02F73B46013BEB6068
:100D6000039B5B68079A1A61039B5A68DDE90434A8
:100D7000C2E90634039B5A684FF000034FF00004A9
:100D8000C2E90C34039B5B68002283F83920039B83
:100D90005B68002283F83A20039B5B68012283F89A
:100DA0003820039800F018F8039800F025FA02E0C4
:100DB00000BF00E000BF0CB0BDE8F087340A0100BE
:100DC000540A010082B001900091019B5B68009A77
:100DD0001A6000BF02B070472DE9F04796B00B9043
:100DE0000B9B5B681393139B93F83A30002B40F0F6
:100DF0003A810B9B1B685B68984712900B9B5B6862
:100E00001A6A129B9A4200F03081139B1A6A129B55
:100E10009A1A139BDB6813404FF00004CDE910349D
:100E2000139A129B1362139B9A68924B9A4204D1B5
:100E3000DDE91034CDE9143409E1139B93F83B301C
:100E4000002B00F08F80DDE910120B461446600184
:100E50000190019840EAD36001905B010093DDE9C5
:100E600000345B1A64EB020460020390039840EACA
:100E7000D35003905B020293DDE902345B1844EB2C
:100E80000204A0010590059840EA9360059098013E
:100E90000490DDE90456ED1A66EB04062B46344651
:100EA0005B1844EB0204CDE90E34139B93F83B30FE
:100EB0001A46DDE90E34C2F12000A2F1200123FA26
:100EC00002F904FA00F049EA000924FA01F149EABA
:100ED000010924FA02FACDE9149A139BD3E90A56C0
:100EE000139B93F83B301A46DDE91434A2F120003D
:100EF000C2F1200104FA02F803FA00F048EA0008FF
:100F000023FA01F148EA010803FA02F7DDE90E3499
:100F1000DB1B64EB08045B1944EB0604139AC2E97B
:100F20000A34139BD3E90A12139B9B684FF0000409
:100F3000A24208BF9942C0F08A80DDE9143401332F
:100F400044F10004CDE91434139BD3E90A12139B36
:100F50009B684FF00004CB1A62EB0404139AC2E9B9
:100F60000A3474E0DDE910120B4614466001079064
:100F7000079840EAD36007905B010693DDE90634E9
:100F80005B1A64EB020460020990099840EAD350AE
:100F900009905B020893DDE908345B1844EB020416
:100FA000A60146EA93669D01ED1A66EB04066B18EE
:100FB00046EB0204CDE90C34139B9B684FF0000410
:100FC0001A462346DDE90C010FF0B2F903460C4640
:100FD000CDE91434139BD3E90A12139B9B684FF09D
:100FE0000004149804FB00F5159803FB00F0284456
:100FF000149DA5FB033420440446DDE90C56EB1A8E
:1010000066EB04045B1844EB0204139AC2E90A3449
:10101000139BD3E90A12139B9B684FF00004A24272
:1010200008BF994213D3DDE91434013344F10004BD
:10103000CDE91434139BD3E90A12139B9B684FF03C
:101040000004CB1A62EB0404139AC2E90A34139B1E
:10105000D3E90C12DDE914345B1844EB0204139A53
:10106000C2E90C3402E000BF00E000BF16B0BDE8EA
:10107000F08700BF40420F0070B588B00390CDE903
:101080000023039B5B680693069BD3E90C23DDE9F1
:101090000001821A61EB0303CDE90423039B5B6823
:1010A0001B690793039B5B68D3E90601DDE9042311
:1010B000994208BF90426ED3069B9B683B4A93427D
:1010C0000CD1049B0793039B5B681A69079B9A42A8
:1010D00061D2039B5B681B6907935CE0069B93F8F6
:1010E0003B30002B2DD0039B5B6893F83B301946B7
:1010F000DDE90423A1F12006C1F1200003FA01F586
:1011000002FA06F6354322FA00F0054302FA01F42A
:10111000274A4FF00003A01845EB0301234A4FF084
:1011200000030FF005F903460C460793039B5B6829
:101130001A69079B9A422ED2039B5B681B6907932F
:1011400029E0069B9B684FF00004049A04FB02F11F
:10115000059A03FB02F20A440499A1FB03342244DA
:10116000144613494FF000025D1844EB020628466E
:1011700031460E4A4FF000030FF0DAF803460C46F2
:101180000793039B5B681A69079B9A4203D2039BF0
:101190005B681B690793069B1A6A079B1A44069BA8
:1011A000DB681340184608B070BD00BF40420F0016
:1011B0003F420F0084B0039002910192019A039B79
:1011C0009A420BD9029A019B9A4203D2029A039B3C
:1011D0009A4201D201230CE000230AE0029A039B09
:1011E0009A4205D2029A019B9A4201D3012300E060
:1011F0000023184604B0704710B58CB00190019BD5
:101200005B680B930B9B93F83A30002B60D1019BEA
:101210005B6893F83930002B5AD10198FFF7DCFD59
:10122000019B5B685B68002B43D0019B5B68D3E943
:101230000C34CDE90834019B5B685B68D3E900346A
:10124000CDE90634DDE90634DDE90812A24208BF23
:10125000994204D3019B1B685B69984739E0DDE93B
:1012600006230198FFF708FF05900B9B1A6A059B60
:101270009A4205D14FF484721749184800F0D6F904
:10128000019B1B681B6905989847019B1B685B685D
:10129000984704900B9B1B6A059A04991846FFF720
:1012A00089FF0346002B14D0019B1B685B6998479C
:1012B0000FE00B9B1A6A0B9B1B691A440B9BDB68A4
:1012C00013400393019B1B681B690398984700E038
:1012D00000BF0CB010BD00BF340A0100580A010065
:1012E00000B583B0019000910198FFF767FC00F012
:1012F000C9FA00990198FFF765FD00F0DDFA00BF1B
:1013000003B05DF804FB10B584B0019000F0BAFAA8
:10131000019B1B68DB689847019B5B6893F83A3038
:10132000002B02D000F0C8FA3EE0019B5B6801226E
:1013300083F83920019B5B685B68002B27D00198FC
:10134000FFF74AFD019B5B685B68D3E90034019AB3
:101350005268D2E90C12A24208BF994219D3019BEC
:101360005B685B680393019B5B68019A52685268F3
:10137000D2685A60019B5B681B68002BDAD0019B26
:101380005B681B68039A926810469847D2E700BFD3
:1013900000E000BF019B5B68002283F839200198C0
:1013A000FFF72AFF00F088FA04B010BD10B586B030
:1013B00003900291CDE9002300F064FA0398FFF74F
:1013C0000BFD029ADDE90034C2E90034029B089A61
:1013D0009A6000230593039B5B685B6804930DE0B0
:1013E000049BD3E90034DDE90012A24208BF994210
:1013F00008D3049B0593049BDB680493049B002B98
:10140000EED100E000BF029B049ADA60059B002B3E
:1014100007D1039B5B68029A5A600398FFF7ECFEC2
:1014200002E0059B029ADA6000F046FA00BF06B0BF
:1014300010BD00B585B00190009100F023FA019B2A
:101440005B685A68009B9A4208D1019B5B68009ACE
:10145000D2685A600198FFF7CFFE14E0019B5B68E9
:101460005B6803930CE0039BDA68009B9A4204D10B
:10147000009BDA68039BDA6005E0039BDB6803935B
:10148000039B002BEFD100F017FA00BF05B05DF809
:1014900004FB10B582B00190019800F005F80346F6
:1014A0000C46184602B010BD10B584B001900198EA
:1014B000FFF784FB00F0E6F90198FFF78DFC019B34
:1014C0005B68D3E90C34CDE9023400F0F5F9DDE9CD
:1014D00002341846214604B010BD0000014B1846E6
:1014E000704700BF9C0A010008B5054B1B68002B24
:1014F00003D0034B1B680348984700BF08BD00BFDB
:10150000E80000209C0A010082B0019000231846E8
:1015100002B0704782B001900023184602B07047B5
:1015200000B585B00190019B1B6810331B68012238
:101530000021019898470390039B002B01DA039B3D
:1015400011E0019B1B6810331B68022200210198E7
:1015500098470290019B1B6810331B680022039977
:1015600001989847029B184605B05DF804FB00B54A
:1015700083B07346019000911A460099019800F0DB
:1015800005F80346184603B05DF804FB00B587B0C4
:1015900003900291019200230593029903980AF0A7
:1015A000CBFD0590059B184607B05DF804FB00B520
:1015B00087B003900291019200230593019A02994A
:1015C00003980BF021FA0590059B184607B05DF8CB
:1015D00004FB00B583B07346019000911A46009950
:1015E000019800F004F800BF03B05DF804FB00B5FB
:1015F00085B0039002910192029903980AF086FC4B
:1016000000BF05B05DF804FB00B587B00390029100
:10161000019200230593019A029903980AF0F0FBC6
:101620000590059B184607B05DF804FB00B587B030
:1016300005900491039200F025F9039B0093049B0D
:1016400000220599014800F089FA00BF4401FF809B
:1016500000B583B00190019B1B681F2B04D905497D
:101660004FF4E87009F0E5FC4FF0A043184603B0D2
:101670005DF804FB000B010000B585B0019001ABE3
:101680001846FFF7E5FF0390019B012202FA03F3DE
:101690001946039800F018F800BF05B05DF804FB88
:1016A00000B585B0019001AB1846FFF7D1FF03905C
:1016B000019B012202FA03F31946039800F00EF889
:1016C00000BF05B05DF804FB82B001900091019B62
:1016D000009AC3F8082500BF02B0704782B001909D
:1016E0000091019B009AC3F80C2500BF02B070471F
:1016F00000B583B001900091019B93F90030B3F1E4
:10170000FF3F04D120220C490C48FFF78FFF009BBC
:10171000002B06D0019B93F900301846FFF7ACFF71
:1017200005E0019B93F900301846FFF7B9FF00BFB1
:1017300003B05DF804FB00BF580B0100940B0100DF
:1017400000B585B000F09EF801AB11211846FFF7F7
:10175000FCF90023039312E001AB01211846FFF7C7
:10176000C7FF154800F076FE01AB00211846FFF7D1
:10177000BFFF114800F06EFE039B01330393039BF0
:10178000032BE9DD0023029312E001AB012118468F
:10179000FFF7AEFF094800F05DFE01AB00211846DF
:1017A000FFF7A6FF054800F055FE029B01330293A8
:1017B000029B032BE9DDCCE7F0490200801A06000A
:1017C0000FB400B583B005AB01930199049800F004
:1017D00007F800BF03B05DF804EB04B070470000E9
:1017E00000B5A5B00190009102A8009B019A842148
:1017F0000CF0BCFD2390239B832B06D902AB7F33D7
:101800000522074918460AF0B3FF239B002B03DD8E
:1018100002AB184600F006F800BF25B05DF804FBE7
:10182000AC0B010000B583B0019000F02BF80198DB
:101830000BF0A6FA03461A460199022000F01AFCA2
:1018400000F03AF800BF03B05DF804FB82B0EFF39C
:1018500010830193019B03F00103002B0CBF0123B4
:101860000023DBB2184602B0704782B0EFF3058365
:101870000193019B002B14BF01230023DBB2184608
:1018800002B0704708B504F057FD084B1B68B3F170
:10189000FF3F04D1532206490648FFF7C7FE034B1A
:1018A0001B680133014A136000BF08BD380D0020DA
:1018B000B40B0100D80B010008B5094B1B68002BC5
:1018C0000BD0074B1B68013B054A1360044B1B6898
:1018D000002B03D104F03CFD00E000BF08BD00BFB9
:1018E000380D002088B00190019B0493049BD3E83D
:1018F0004F3F0393039BDBB28DF81F30019B012206
:101900008DF81E2006939DF81E200699C1E8432FEE
:101910000593059B002BE7D19DF81F30002B14BFCA
:1019200001230023DBB2184608B0704788B001904D
:101930000B46ADF80230019B0493049BD3E85F3F54
:101940000393039B9AB2BDF802301344ADF81E30E6
:10195000BDF81E30ADF81C30019B0693BDF81C206D
:101960000699C1E8532F0593059B002BE3D1BDF8E1
:101970001E30184608B0704788B001900091019B56
:101980000393039B53E8003F0293029A009B134486
:101990000793079B0693019B05930599069A41E8D7
:1019A00000230493049B002BE9D1079B184608B041
:1019B000704788B001900B46ADF80230019B04934C
:1019C000049BD3E85F3F0393039B9AB2BDF80230B8
:1019D000D31AADF81E30BDF81E30ADF81C30019B97
:1019E0000693BDF81C200699C1E8532F0593059B6B
:1019F000002BE3D1BDF81E30184608B0704788B000
:101A000001900091019B0393039B53E8003F0293D5
:101A1000029A009BD31A0793079B0693019B059399
:101A20000599069A41E800230493049B002BE9D111
:101A3000079B184608B0704708B50F48FFF752FFDC
:101A40000346002B05D0FFF71DFFBFF34F8F20BFCC
:101A5000FDE7FFF70AFF0346002B07D1FFF7F6FE6D
:101A6000034683F00103DBB2002B01D0FFF768FED1
:101A7000012000F064FB00BF400D002000B593B0D2
:101A80000390029101920093039B002B01DB224BF8
:101A9000039304AB3422002118460AF067FF039B2E
:101AA0000493149B0593029B06931C4B5B69119353
:101AB000119B0793119BDB6B0893119B5B6B099345
:101AC000119B1B6B0A9304AB0B93FFF7DBFE144BCC
:101AD0001B680133124A1360114B1B68012B05D19F
:101AE00004AB342219460F480AF042FE04AB3422FC
:101AF00019460D480AF03CFE0C4B1B68002B03D026
:101B00000A4B1B6808489847FFF7D6FE0023184683
:101B100013B05DF804FB00BF0101FF80F401002059
:101B2000440D0020480D00207C0D0020B00D002049
:101B300000231846704710B586B07446059004918E
:101B40000392029323460093089B029A03990598F7
:101B5000FFF794FF0346184606B010BD10B586B0D7
:101B6000744605900491039202930C48FFF7BAFE65
:101B7000034683F00103DBB2002B0DD02346009314
:101B8000089B029A03990598FFF778FF089B029A31
:101B90000499034800F014F8FFF74EFF3C0D0020B5
:101BA0007C0D002082B00190019B002B01D0019B95
:101BB00000E0024B184602B0704700BF240C010041
:101BC00030B58BB00790069105920493079B1B6874
:101BD0005B1703F00303032B03D1079B1B685B42D6
:101BE00002E0079B1B689BB20993079B1B681B14B1
:101BF000DBB20893079B1968089B099A5948FFF7BD
:101C0000DFFD099BA3F23113132B67D801A252F811
:101C100023F000BF651C0000731C0000811C000045
:101C20008F1C00009D1C0000B91C0000AB1C0000B4
:101C3000C71C0000DD1C0000DD1C0000DD1C0000D6
:101C4000DD1C0000DD1C0000DD1C0000DD1C0000B0
:101C5000DD1C0000DD1C0000DD1C0000DD1C0000A0
:101C6000D51C0000079B9B6819463F48FFF7A8FD5D
:101C700035E0079B9B6819463C48FFF7A1FD2EE025
:101C8000079B9B6819463A48FFF79AFD27E0079B98
:101C90009B6819463748FFF793FD20E0079B9B6838
:101CA00019463548FFF78CFD19E0079B9B681946DC
:101CB0003248FFF785FD12E0079B9B6819463048C4
:101CC000FFF77EFD0BE0079B9B6819462D48FFF749
:101CD00077FD04E02C48FFF773FD00E000BF069895
:101CE000FFF7A0FD079B5B6819462848FFF768FDD2
:101CF000059B002B09D02648FFF794FD0598FFF7B8
:101D000091FD04992348FFF75BFD079B9B681946EB
:101D10002148FFF755FD079BDB685B681846FFF716
:101D200041FF0546079BD868079B1C69079B5B69B9
:101D3000079A92690799C969029101920093234613
:101D4000024629461548FFF73BFD079B1B681946CD
:101D50001348FFF735FD1348FFF732FD00BF0BB006
:101D600030BD00BF300C0100840C01009C0C010050
:101D7000AC0C0100BC0C0100D00C0100E40C010013
:101D8000F80C0100080D0100200D0100340D0100C8
:101D9000480D0100500D0100540D0100680D0100B7
:101DA000C00D01000C0E010008B5074B1B68002B8D
:101DB00007D0054B1B684FF0FF31184602F080FD3D
:101DC00000E000BF08BD00BFE018002008B5064BCA
:101DD0001B68002B05D0044B1B68184602F09AFDC7
:101DE00000E000BF08BD00BFE018002084B00390F1
:101DF000029101926FF01C03184604B0704782B044
:101E000001906FF01503184602B0704782B0019040
:101E10000123184602B0704782B001900023184693
:101E200002B0704700B585B0039001930B468DF862
:101E30000B3013468DF80A30039B1846FEF7CAFD97
:101E40000C4A039B1A600C4B1B68002B0CD19DF9AC
:101E50000A209DF90B301946084805F0BDFA019992
:101E6000064805F0F1FB00E000BF039B184605B0F3
:101E70005DF804FBC00F0100781500207C150020E0
:101E800000B587B0039002910192029B0493002356
:101E90000593059A019B9A420BD2049A059B134421
:101EA0001B781946054805F0EFFC059B01330593A7
:101EB000EFE7019B184607B05DF804FB7C15002096
:101EC00000B587B0039002910192029B0593019B9C
:101ED000002B01D1002307E0054805F05FFC034615
:101EE000DAB2059B1A700123184607B05DF804FBAF
:101EF0007C15002000B585B001900B46ADF802308E
:101F00000023ADF80E30BDF8023003F00103002BC2
:101F100007D0174805F030FD0346002B01D0012300
:101F200000E00023002B05D0BDF80E3043F0010384
:101F3000ADF80E30BDF8023003F01003002B07D0CF
:101F40000B4805F04FFD0346002B01D0012300E0B4
:101F50000023002B05D0BDF80E3043F01003ADF880
:101F60000E30BDF90E30184605B05DF804FB00BF19
:101F70007C15002082B001900023184602B0704703
:101F800082B001900023184602B0704708B5154B87
:101F90001B78BFF35B8FDBB203F00103002B0CBF98
:101FA00001230023DBB2002B19D00E4800F0ECF81F
:101FB0000346002B14BF01230023DBB2002B0ED0FD
:101FC0004FF41653082206210748FFF72BFF054858
:101FD00000F026F9054A0649034800F0A8F8024B2C
:101FE000184608BDC00D0020BC0D0020E0000020F8
:101FF0009922000000B585B001900198FFF7C0FF5D
:102000000390039B002B01D0039B0BE00198FFF78B
:10201000B1FF0390039B002B01D0039B02E0FFF76D
:10202000B5FF0346184605B05DF804FB00B585B062
:102030000190019B3F2B01DD002315E00C4A019B21
:1020400052F823300393039BB3F1FF3F0BD1019B65
:10205000022B08DC0198FFF7CDFF03900449019B98
:10206000039A41F82320039B184605B05DF804FB52
:10207000EC00002000B587B0039002910192039814
:10208000FFF7D4FF0590059B002B07D109F0E8FE70
:102090000246092313604FF0FF3315E0059B1B68D0
:1020A0000C331B68019A0299059898470490049B89
:1020B000002B08DA09F0D4FE0246049B5B42136051
:1020C0004FF0FF3300E0049B184607B05DF804FBB7
:1020D00008B5012000F033F884B001900C4B1B6868
:1020E00003930B4B1A68019B13440293094A029B0A
:1020F000934205D9084B0C221A604FF0FF3303E0DE
:10210000034A029B1360039B184604B0704700BF4C
:10211000EC01002000F80020E828002000B583B082
:102120000190019B002B01D0FFF70AFBFEE784B072
:102130000390029101920123184604B0704700B544
:1021400083B001900198FFF7E9FF00BF03B05DF88D
:1021500004FB82B001900123184602B0704700B51D
:1021600083B00190019800F06DFB00BF03B05DF8F3
:1021700004FB00B583B00190019800F073FB00BF31
:1021800003B05DF804FB000000B589B00190019B2D
:102190000793079B0593059B1B788DF813309DF8DB
:1021A000133003F00303012B0CBF01230023DBB228
:1021B000002B01D000232AE0FFF7F6FD079B1B78D8
:1021C0008DF81B309DF81B3003F00303012B03D166
:1021D000FFF7FCFD00231AE09DF81B3003F003031A
:1021E000002B05D04FF4B5620B490C48FFF71EFADF
:1021F0009DF81B3043F00203DAB2079B03931346AA
:102200008DF80B30039B9DF80B201A7001231846A4
:1022100009B05DF804FB00BFB00E0100D80E01004C
:1022200000B587B00190019B0593059B1B788DF845
:1022300013309DF8133003F00303022B05D040F256
:10224000B1520E490E48FFF7F1F99DF9133023F012
:1022500003035BB243F001035BB2DAB2059B039365
:1022600013468DF80B30039B9DF80B201A70FFF777
:10227000ADFD00BF07B05DF804FB00BFB00E01006C
:10228000F80E010000B583B00190019809F04CFFF1
:1022900000BF03B05DF804FB00B583B00190064AAF
:1022A000019B1A60019B1846FEF756FB019B1846DE
:1022B00003B05DF804FB00BFC00F010000B583B0A0
:1022C00001900198FFF7E8FF0198FFF7DBFF019B02
:1022D000184603B05DF804FB10B44FF000034FF054
:1022E0000004184621465DF8044B704700B583B0E2
:1022F000FFF7C8FA0D4B1B884FF6FF7293420BD1C4
:10230000FFF7DAFA094B1B881A46002300930023D3
:1023100007490848FFF722FC01210448FFF706FBA4
:10232000FFF7CAFA00BF03B05DF804FBC40D00203C
:10233000141001002301048000B583B0FFF7A2FA56
:102340000C4B1B88002B0BD1FFF7B6FA094B1B88EF
:102350001A4600230093002307490848FFF7FEFBB5
:1023600001210448FFF725FBFFF7A6FA00BF03B0E1
:102370005DF804FBC40D00203C1001002401048022
:1023800010B586B0FFF77EFAFFF7A6FFCDE904018E
:1023900000238DF80F3005F083FBFFF79DFFCDE99B
:1023A00000019DF80F30002B10D0DDE90012DDE9AF
:1023B0000434C91A62EB04020F4BD3E900345B18F2
:1023C00044EB02040C4AC2E900340FE0DDE90012DC
:1023D000DDE90434C91A62EB0402084BD3E9003486
:1023E0005B1844EB0204054AC2E90034FFF764FAC3
:1023F00000BF06B010BD00BFD00D0020C80D0020EA
:1024000000B585B00390FFF730FA0346002B07D1E3
:10241000FFF71CFA034683F00103DBB2002B01D067
:10242000012300E00023002B07D0002300930023AA
:10243000002206490648FFF791FB039B184603F06C
:1024400035FC00BF05B05DF804FB00BF5C10010067
:102450000601018000B587B00390039B42F2107221
:10246000934207DD00230093002300220E490F480A
:10247000FFF761FBFFF732F805900598FFF709F8C1
:1024800004900598FFF705F80246049BD21A039BB7
:102490009A4234BF01230023DBB2002B00D0F0E7C7
:1024A00000BF07B05DF804FBA4100100000101802B
:1024B00010B582B001900091019B00991846FEF77B
:1024C000CFF9019800F04BF90F4A019B1A60019A6D
:1024D0004FF000034FF00004C2E90834019A4FF0B6
:1024E00000034FF00004C2E90A34019B9B691846BF
:1024F000FEF7DAFF03460C46019AC2E90834019B55
:10250000184602B010BD00BFEC10010008B5044B26
:102510005B680449184603F095FB00BF08BD00BF87
:10252000501301004D2D000000B583B001900091C3
:10253000019B1846FEF7F4F9019B002283F8302036
:10254000019B012283F831200099019800F07AF86C
:1025500000BF03B05DF804FB82B00190019B93F8CB
:102560003030184602B070472DE9F04F85B0019029
:10257000019B1846FEF7D4F9019B002283F8312015
:10258000019B012283F83020019B9B691846FEF7CE
:102590008BFF0A460146019BD3E90834C91A62EB56
:1025A0000402084611464FF47A724FF000030DF012
:1025B000BFFE03460C46CDE90234DDE90234234375
:1025C00007D0DDE9023413F1FF3344F1FF34CDE9E4
:1025D0000234019BD3E908BCDDE902120B46144624
:1025E0004FEA441A4AEAD36A4FEA43194B46544623
:1025F0005B1A64EB02044FEA840848EA93789F0070
:102600003B4644465B1844EB0204E60046EA537638
:10261000DD002B46344613EB0B0344EB0C04019A0C
:10262000C2E90834019BD3E90A12DDE902345B18E0
:1026300044EB0204019AC2E90A34029B184605B031
:10264000BDE8F08F30B583B001900091FFF71AF923
:10265000019D019BD3E90812009B4FF47A7000FBA7
:1026600003F34FF000045B1844EB02041A462346C0
:102670002846FEF741F9FFF71FF900BF03B030BD50
:1026800000B583B00190019B1846FEF749F900BFE1
:1026900003B05DF804FB000000B583B00190074A69
:1026A000019B1A60019800F060F8019B1846FEF744
:1026B0000FF9019B184603B05DF804FBEC10010014
:1026C00000B583B001900198FFF7E6FF0198FFF78E
:1026D000D9FD019B184603B05DF804FB024B4FF097
:1026E00080625A6000BF704700ED00E010B483B014
:1026F0000190019BD3E90A34013344F10004019AAB
:10270000C2E90A34019BD3E9083413F57A7344F122
:102710000004019AC2E9083400BF03B05DF8044B1D
:10272000704700B583B00190FFF7ACF8019B93F8B8
:102730003130002B04D0019B012283F8302008E0C7
:10274000FFF7CCFF0198FFF7D1FF01210198FFF7B8
:1027500079FFFFF7B1F800BF03B05DF804FB82B06A
:102760000190019B184602B0704782B00190019B16
:10277000184602B07047000008B50A4B0A4A1A60B2
:102780000A4A094BD31A0A4A13600A4B0A4A1A60CA
:102790000A4A094BD31A0A4A136000F071F800F094
:1027A0008DF800BF380E002000F800200000012046
:1027B0003C0E0020B40D0020F028002000F800207E
:1027C000B80D002008B5144B144A1A60124B0B22A6
:1027D0005A60114B1C22DA600F4B114A9A600E4866
:1027E00002F048F802460F4B1A600F4B0F4A1A606E
:1027F0000D4B0B225A600C4B1C22DA600A4B0C4A20
:102800009A60094802F036F802460A4B1A6009F04D
:1028100063FC00BF08BD00BFF80D0020F8100100E8
:10282000DC0D0020D80D0020280E0020081101002A
:102830000C0E0020080E002008B5FDF7CBFD034666
:10284000184608BD00B583B00190054B1B684FF0DA
:10285000FF31184602F034F800BF03B05DF804FB06
:10286000D80D002000B583B00190044B1B681846BA
:1028700002F050F800BF03B05DF804FBD80D002053
:1028800008B500F013F803F0ADFE00F011F800BF3A
:1028900008BD08B5FFF796FF00F006F8FFF748F906
:1028A000FFF7CAFF00BF08BD00BF704700BF7047F9
:1028B00008B500F0D3FD00BF08BD000000B585B02D
:1028C0001F4B204A1A601E4B0B225A601C4B1C22C5
:1028D000DA601B4B1C4A9A601C4B1D4A1A611B4B49
:1028E0004FF480525A61194B4422DA60174B194A4F
:1028F0009A60164B18229A61144B174A1A601048B6
:1029000001F0B8FF0246154B1A60104A0021144826
:1029100003F06EF80390039B002B07D10B4A0023B2
:10292000009300230F491048FFF718F900F0B8FD95
:1029300000230093002300220C490B48FFF70EF9F7
:10294000AC1800201411010090180020BC180020C1
:10295000E8180020400E002024110100E01800209B
:10296000932800002C1101001D0101804811010075
:1029700000B583B00190064B1B68002B03D0044BBD
:102980001B680198984700BF03B05DF804FB00BFC7
:10299000840E002000B583B0019000F07BF90000A8
:1029A00000B585B003900291039B013B042B35D801
:1029B00001A252F823F000BFCD290000DD2900005C
:1029C000ED290000FD2900000D2A000000230093DE
:1029D0000023039A15491648FFF7C0F80023009317
:1029E0000023039A13491448FFF7B8F80023009313
:1029F0000023039A11491248FFF7B0F8002300930F
:102A00000023039A0F491048FFF7A8F8002300930A
:102A10000023039A0D490E48FFF7A0F80023009306
:102A20000023039A0B490C48FFF798F86011010046
:102A3000250102808411010026010280AC110100F1
:102A400027010280E4110100280102802012010008
:102A50002A010280601201000001028082B0019010
:102A6000019B0633052B1BD801A252F823F000BFAF
:102A70009D2A0000992A0000952A0000912A000052
:102A80008D2A0000892A0000074B0AE0074B08E066
:102A9000074B06E0074B04E0074B02E0074B00E062
:102AA000074B184602B070477C12010094120100D7
:102AB000C8120100E0120100F01201000813010029
:102AC0002413010000B585B003900398FFF7C6FFFB
:102AD0000146039A0023009300230148FFF73EF8C4
:102AE0003101018000B585B0039002910298FFF793
:102AF000B5FF0146039A0023009300230148FFF726
:102B00002DF800BF3201018000B585B0039002911D
:102B10000298FFF7A3FF0146039A002300930023C6
:102B20000148FFF71BF800BF3301018000B585B0F5
:102B3000039002910298FFF791FF0146039A002348
:102B4000009300230148FFF709F800BF3801018016
:102B500000B583B002F07CFF01900198FFF708FFF9
:102B600000BF03B05DF804FB08B5FFF709FC00BF28
:102B700008BD000038B5104B1B68002B14D1FEF7C0
:102B800007F805460D493820FDF7F4FD0446002CF2
:102B900005D029462046FFF78BFC224600E022465E
:102BA000054B1A60FFF7B2FC034B1B680121184666
:102BB000FFF748FD00BF38BD880E0020900E0020B2
:102BC00008B5034B1B681846FFF75AFD00BF08BD48
:102BD000880E002000BF70474FF0FF331846704743
:102BE00000B583B000F07CFC0190019B002B0CBF72
:102BF000012300238DF802309DF80230002B01D014
:102C0000FFF774FB214B1B6801991846FFF78CFCFA
:102C100000238DF803301D4B1B681846FFF79CFC02
:102C2000034683F00103DBB2002B08D09DF803308C
:102C300083F00103DBB2002B01D0012300E000236D
:102C4000002B10D0FEF71EFE114B9B7A002B03D0F9
:102C500001238DF8033001E0FFF786FFFEF72CFE1D
:102C6000BFF36F8FD7E79DF80230002B01D0FFF73D
:102C700063FB064B1B681846FFF776FC03461846B5
:102C800000F04EFC00BF03B05DF804FB880E00208E
:102C9000F401002008B5024B1B689847FBE700BF12
:102CA000F00100201EF0040F0CBFEFF30880EFF3DB
:102CB0000980816911F8021C91BB01B590E80F10E1
:102CC000E047BDE800508CE80300244B93E8060081
:102CD000914208BF704741B91EF0100F10D1204932
:102CE000086820F0010008600AE02CE9F00F1EF0EF
:102CF000100F08BF2CED108AC1F838C081F822E00F
:102D00001A6092F82210906B61F0FF0E1EF0100F07
:102D100008BFB0EC108AB0E8F00F80F30988704764
:102D2000104A13689942FAD801B552F821C00FC869
:102D3000E047BDE80050CCF80000704701B501F055
:102D400051FFBDE80140EFF3098CBEE701B501F08A
:102D5000E7FEBDE80140EFF3098CB6E7080200206A
:102D600034EF00E05014010082B0EFF305830193CB
:102D7000019B002B14BF01230023DBB2184602B0D5
:102D8000704782B0EFF310830193019B002B05D1B4
:102D9000EFF311830093009B002B01D0012300E08F
:102DA000002303F00103DBB2184602B0704700B500
:102DB00083B00190019B002B03D00199132002F0F6
:102DC000E9FA0023184603B05DF804FB00B585B0AE
:102DD0000190FFF7C9FF0346002B04D1FFF7D1FF95
:102DE0000346002B08D06FF005010020FFF77AFEA4
:102DF0006FF00503039307E0019B02930298054BD4
:102E00009C4600DF03460393039B184605B05DF81C
:102E100004FB00BFAF2D0000034BDB681B0A03F06F
:102E200007031846704700BF00ED00E082B0EFF3E3
:102E300005830193019B002B14BF01230023DBB208
:102E4000184602B0704782B0EFF310830193019BE4
:102E5000002B05D1EFF311830093009B002B01D0D1
:102E6000012300E0002303F00103DBB2184602B0A7
:102E70007047000000B583B0124BFF2283F8222078
:102E8000104B93F82230DBB263F0FF03DB43B3FA5D
:102E900083F3DBB2C3F120030193FFF7BDFF009082
:102EA000009A019B9A4202D3009B01330193054A89
:102EB000FE21019B01FA03F3DBB2D37700BF03B01D
:102EC0005DF804FB00ED00E0044B5B681B0EDBB219
:102ED00003F01003DBB21846704700BF00ED00E0BE
:102EE000024B4FF000625A6000BF704700ED00E0F7
:102EF000024B4FF080525A6000BF704700ED00E077
:102F000008B5FFF75DFE084B01225A72BFF34F8FE1
:102F1000FFF7DAFF0346002B04D0FFF7E1FF024B77
:102F200001229A7200BF08BDF401002008B5094BC8
:102F300000225A72BFF34F8F064B9B7A002B04D0AE
:102F4000044B00229A72FFF7D3FFFFF713FE00BF76
:102F500008BD00BFF401002008B5434B1B7A012BCC
:102F600001D1002357E1404B1B7A002B06D04FF0D4
:102F7000FF30FFF7A7FD4FF0FF334CE13B4B5B6D9C
:102F8000472B06D86FF00A00FFF79CFD4FF0FF3388
:102F900041E1364BDB68002B03D0344B1B8A002BFE
:102FA00006D14FF0FF30FFF78DFD4FF0FF3332E1D8
:102FB0009C2200212E4809F0D9FC2C4BDB682A4AC0
:102FC000D3652A4B1A8A284BA3F85420274B9B68B9
:102FD000254A1364254BDA6A244B1B6B19461046AD
:102FE00000F0D1FA0346002B04D0204BDB6A1E4AC6
:102FF000C2F880301D4B5A691C4B9B69194610461C
:1030000000F0C1FA0346002B04D0184B5B69164A46
:10301000536704E0144BD3F88030134A5367134BC3
:10302000DA69124B1B6A1946104600F0ACFA0346E7
:10303000002B04D00D4BDB690B4A936704E00A4B6D
:10304000D3F88030084A9367084B5A6A074B9B6A4B
:103050001946104600F097FA0346002B0AD0034B9E
:103060005B6A014AD3670AE0F401002050130100B3
:10307000FC010020694BD3F88030684AD367684B65
:103080005B6B002B14D0664B586B654B5B6B196800
:10309000634B5B6B9A68624B5B6BDB6800F0D2FB47
:1030A0000346002B04D05E4B5B6B5C4AC2F8843055
:1030B0005B4B9B6B002B14D0594B986B584B9B6B05
:1030C0001968574B9B6B9A68554B9B6BDB6800F0FC
:1030D000B9FB0346002B04D0514B9B6B4F4AC2F8FF
:1030E00088304F4BDB6B002B14D04D4BD86B4C4BC7
:1030F000DB6B19684A4BDB6B9A68494BDB6BDB680F
:1031000000F0A0FB0346002B04D0454BDB6B434A89
:10311000C2F88C30424B1B6C002B14D0404B186C07
:103120003F4B1B6C19683E4B1B6C9A683C4B1B6CED
:10313000DB6800F087FB0346002B04D0384B1B6C88
:10314000364AC2F89030364B5B6C002B14D0344BAF
:10315000586C334B5B6C1968314B5B6C9A68304B25
:103160005B6CDB6800F06EFB0346002B04D02C4B3D
:103170005B6C2A4AC2F89430294B9B6C002B14D00C
:10318000274B986C264B9B6C1968254B9B6C9A6857
:10319000234B9B6CDB6800F055FB0346002B04D0EF
:1031A0001F4B9B6C1D4AC2F898301D4BDB6C002BEB
:1031B00014D01B4BD86C1A4BDB6C1968184BDB6CAA
:1031C0009A68174BDB6CDB6800F03CFB0346002B76
:1031D00004D0134BDB6C114AC2F89C30104B1B6DB2
:1031E000002B14D00E4B186D0D4B1B6D19680C4B3A
:1031F0001B6D9A680A4B1B6DDB6800F023FB0346CE
:10320000002B04D0064B1B6D044AC2F8A030034BC0
:1032100001221A720023184608BD00BFF4010020E5
:103220005013010000B585B02E4B1B7A012B06D040
:103230006FF00600FFF746FC4FF0FF334DE002F061
:103240008DFB034683F00103DBB2002B06D04FF069
:10325000FF30FFF737FC4FF0FF333EE0FFF70AFE89
:10326000214B5B682149184602F0ECFC0346002B19
:1032700006D04FF0FF30FFF725FC4FF0FF332CE076
:10328000FFF7AAFC0246174B1A61FFF773FC1848B8
:1032900001F032FE0390039B002B06D14FF0FF306C
:1032A000FFF710FC4FF0FF3317E0039801F0F4FF35
:1032B0000D4B1B6803F00103002B05D00223029382
:1032C000029B83F3148804E003230193019B83F39F
:1032D0001488044B02221A720023184605B05DF8C8
:1032E00004FB00BFF4010020501301004D2D00002D
:1032F0001002002000B585B0164B1B7A022B05D0BA
:103300006FF00700FFF7DEFB00231FE0FFF7F8FD7B
:103310004FF0FF3303930F4BDB6A0293029B002BAA
:1033200002D0029BDB6903930A4B5B6C0193019B08
:10333000002B07D0019B1A69039B9A4202D2019B82
:103340001B690393034B04221A72039B184605B0B2
:103350005DF804FBF401002000B587B001903E4BFE
:103360001B7A042B74D13C4BDB6A0493049B002B27
:1033700034D0019B0593049BDA69059B9A4220D8BF
:10338000049BDB69059AD31A0593334BDA68049BD7
:10339000DB691344304AD360049B0122DA6101F0F7
:1033A000D9FE059B002B20D0059B013B05932A4BA2
:1033B000DB680133284AD360274BDB6A002BEED150
:1033C00014E0049BDA69059BD21A049BDA61224B54
:1033D000DA68059B1344204AD36007E01E4BDA6885
:1033E000019B13441C4AD36000E000BF1A4B5B6C86
:1033F0000393039B002B22D0039B1A69019B9A42E3
:1034000015D8039B1B69019AD31A0193039B0122D0
:103410001A61114B1B6D9847019B002B0ED0019B2D
:10342000013B01930C4B5B6C002BF2D107E0039B3B
:103430001A69019BD21A039B1A6100E000BF064B78
:1034400002221A72002001F039FFFFF76FFD00E041
:1034500000BF07B05DF804FBF401002000B583B0A5
:1034600000F07CF8FFF7E2FC0346002B04D1FFF7E5
:10347000EAFC0346002B07D06FF00500FFF722FBA4
:103480006FF00503019304E0044B9C4600DF034604
:103490000193019B184603B05DF804FB592F00000F
:1034A00000B583B0FFF7C2FC0346002B04D1FFF741
:1034B000CAFC0346002B07D06FF00500FFF702FBA4
:1034C0006FF00503019304E0044B9C4600DF0346C4
:1034D0000193019B184603B05DF804FB2532000000
:1034E00000B583B0FFF7A2FC0346002B04D1FFF721
:1034F000AAFC0346002B06D06FF00500FFF7E2FAA6
:103500000023019304E0054B9C4600DF0346019332
:10351000019B184603B05DF804FB00BFF5320000C4
:1035200000B585B00190FFF781FC0346002B04D164
:10353000FFF789FC0346002B04D06FF00500FFF76E
:10354000C1FA05E0019B03930398034B9C4600DFFF
:1035500000BF05B05DF804FB5933000000BF7047A1
:1035600082B00190019B184602B0704784B0019070
:103570000091019A009B13440393039B0293029BC7
:10358000184604B0704700B585B001900091019BCA
:10359000002B0CD0019B03F00703002B07D1009BED
:1035A00003F00703002B02D1009B172B01D8002347
:1035B00023E00198FFF7D4FF0390039B009A1A6061
:1035C000039B10225A6008210198FFF7CFFF029059
:1035D000009B083B19460198FFF7C8FF0246029B73
:1035E0001A60029B1B6800221A60029B1B68102253
:1035F0005A60029B00225A600123184605B05DF80C
:1036000004FB10B58AB0039002910192039B002B3A
:1036100007D0029B002B04D0019B23F00303002B57
:1036200001D0002374E0029B08330793079B073304
:1036300023F00703079308210398FFF797FF0890EB
:10364000089B1B681A46089BD31A0693089B5B6865
:1036500023F00303069AD31A0693069A079B9A420D
:1036600008D2089B1B680893089B1B68002BE7D1B6
:1036700000234DE000BF0398FFF772FF034659682F
:10368000079A0A445A600398FFF76AFF03461B68CB
:10369000083B19460398FFF769FF0590059B5C6896
:1036A0000398FFF75DFF03465B689C4206D20398D0
:1036B000FFF756FF03465A68059B5A60089B5B68F4
:1036C000002B0AD1079A019B1A43089B5A600821D4
:1036D0000898FFF74BFF099019E0089B5B6823F0FF
:1036E000030319460898FFF741FF0590089B1A68E5
:1036F000059B1A60079A019B1A43059B5A60089B19
:10370000059A1A6008210598FFF730FF0990099B78
:1037100018460AB010BD00B587B001900091019B1A
:10372000002B02D0009B002B01D1002334E00021AC
:103730000098FFF71BFF0390039B083B03930023B4
:10374000049308210198FFF711FF059009E0059BFC
:103750000493059B1B680593059B002B01D1002357
:103760001AE0059A039B9A42F1D10198FFF7F8FEFF
:1037700003465968059A526822F003028A1A5A6071
:10378000049B002B03D1059B00225A6003E0059B9C
:103790001A68049B1A600123184607B05DF804FB01
:1037A00010B483B00190019B53E8002F511C43E8F3
:1037B000001000B1F8E714462346184603B05DF840
:1037C000044B704710B483B00190019B53E8002F65
:1037D000511E43E8001000B1F8E71446234618468E
:1037E00003B05DF8044B704710B483B00190019BA7
:1037F00053E8002F12B9BFF32F8F04E0116843E89C
:10380000001000B1F4E714462346184603B05DF8F3
:10381000044B704710B483B001900091019B009A53
:1038200019681160BFF35F8F53E8001F106888426A
:10383000F6D143E8002404B1F2E700BF03B05DF81D
:10384000044B704786B00390029101920093039B52
:10385000002B08D0029B002B05D0019B002B02D02F
:10386000009B002B01D100232CE0039B029A1A60DD
:10387000039B00225A60039B019A9A60039B009A63
:10388000DA60039B009A5A61029B019A02FB03F3E0
:10389000009A1A44039B1A61009B059308E0059A5D
:1038A000019B13440493059B049A1A60049B05939F
:1038B000029B013B0293029B002BF0D1059B00224F
:1038C0001A600123184606B0704700B585B0019014
:1038D000019B002B01D100230EE0019B14331846FD
:1038E000FFF782FF0390039B002B04D0019B04335E
:1038F0001846FFF755FF039B184605B05DF804FB1B
:1039000000B583B001900091019B002B09D0019B71
:10391000DA68009B9A4204D8019B1A69009B9A427C
:1039200002D86FF003030BE0019B14330099184693
:10393000FFF770FF019B04331846FFF743FF002396
:10394000184603B05DF804FB82B0EFF305830193E2
:10395000019B002B14BF01230023DBB2184602B0E9
:10396000704782B0EFF310830193019B002B05D1C8
:10397000EFF311830093009B002B01D0012300E0A3
:10398000002303F00103DBB2184602B0704710B405
:1039900083B001900B468DF80330019B9DF8032006
:1039A000D3E84F1FC3E8402F00B1F9E7CCB223465C
:1039B000184603B05DF8044B704710B483B0019013
:1039C000019B53E8002F511C43E8001000B1F8E7B9
:1039D00014462346184603B05DF8044B704710B4F4
:1039E00083B00190019B53E8002F12B9BFF32F8FD2
:1039F00004E0511E43E8001000B1F4E714462346EA
:103A0000184603B05DF8044B704782B00190019BEB
:103A1000184602B0704782B00190019B184602B070
:103A200070470000014B5B6918467047F4010020A5
:103A300000B585B001900091019B1B6B002B2ED02F
:103A4000019B1B6B03930023029304E0039B0293EF
:103A5000039B5B680393039B002B05D0039BDA78E1
:103A6000009BDB789A42F1D3009B039A5A60009B3B
:103A7000029A9A60039B002B03D0039B009A9A60E2
:103A800002E0019B009ADA62029B002B03D0029BAA
:103A9000009A5A600FE0019B009A1A630BE0009BAA
:103AA00000225A60009B00229A60019B009ADA6211
:103AB000019B009A1A63019B28331846FFF77DFF8C
:103AC00000BF05B05DF804FB00B587B00190019B15
:103AD00028331846FFF783FF0490049B002B17D070
:103AE000019BDB6A05930FE0059B02330121184619
:103AF000FFF74DFF03468DF80F309DF80F30002B78
:103B000009D0059B9B680593059B002BECD103E036
:103B10000023059300E000BF059B184607B05DF841
:103B200004FB82B001900091009B5B68002B05D0E4
:103B3000009B5B68009A92689A6003E0009B9A6819
:103B4000019BDA62009B9B68002B05D0009B9B6861
:103B5000009A52685A6003E0009B5A68019B1A63FE
:103B600000BF02B0704700B589B00190019B9B78FF
:103B7000002B51D0019BDB68079301990798FFF751
:103B8000D0FF019B00221A70079B0C330199184645
:103B9000FFF7B6FE079B9B68002B00F08480079B15
:103BA0009B685B78932B7ED1079B0C331846FFF7FD
:103BB0008CFE0690069B002B75D00798FFF72BFF15
:103BC0000346184601F098F9059000220021059857
:103BD00001F0C0FB059801F017FB0490049B08332B
:103BE0001B680393069B03F10C00079B5B6A1A4654
:103BF000039908F0BDFD069B07221A70069B002260
:103C00009A70049B0C331B68DAB2069BDA70069933
:103C10000798FFF70DFF46E0019B9B680793019B08
:103C20005B680393079B9B68002B38D0079B9B68BE
:103C30005B78832B33D10798FFF7EDFE03461846D8
:103C400001F05AF9059000220021059801F082FB4D
:103C5000059801F0D9FA0490049B08331B6802937D
:103C6000019B03F10C01079B5B6A1A46029808F05E
:103C70007FFD049B0C331B68002B06D0049B0C3388
:103C80001B681A46019BDB781370019B00221A7097
:103C9000079B0C3301991846FFF732FE03E00199A8
:103CA0000798FFF7C5FE00BF09B05DF804FB0000F0
:103CB00000B58DB0039002910192039B002B02D0BE
:103CC000029B002B06D16FF003010020FEF72EFFB0
:103CD0000023F4E0029B033323F003030C33079328
:103CE000039BB3FA83F3DBB21A46079BB3FA83F361
:103CF000DBB213441F2B06D86FF003010020FEF740
:103D000015FF0023DBE0039B079A02FB03F30693F6
:103D1000019B002B46D0019B1B680893019B9B686D
:103D20000B93019B1B690A93019B5B6905930B9B9A
:103D3000002B0FD00B9B03F00303002B03D1019B3F
:103D4000DB68332B11D86FF008010020FEF7EEFE80
:103D50000023B4E0019BDB68002B06D06FF0080164
:103D60000020FEF7E3FE0023A9E00A9B002B0FD002
:103D70000A9B03F00303002B03D1059A069B9A428A
:103D800016D26FF009010020FEF7D0FE002396E066
:103D9000059B002B0CD06FF009010020FEF7C6FE3A
:103DA00000238CE00023089300230B9300230A9345
:103DB0000B9B002B19D1444BD3F8A030002B07D01C
:103DC000414BD3F8A0301846FFF77FFD0B9008E079
:103DD0003D4BD3F88030012234211846FFF711FC07
:103DE0000B9001238DF8273002E000238DF8273057
:103DF0000B9B002B35D00A9B002B32D1324BDB6F53
:103E0000002206991846FFF7FCFB0A900A9B002B3C
:103E10001CD19DF8273003F00103002B13D02A4B4F
:103E2000D3F8A030002B07D0274BD3F8A0300B9944
:103E30001846FFF765FD06E0234BD3F880300B9959
:103E40001846FFF768FC00230B9304E0069A002154
:103E50000A9808F08BFD9DF8273043F002038DF897
:103E600027300B9B002B24D00B9B08221A700B9B36
:103E70009DF827209A700B9B089A5A600B9B002292
:103E80009A600B9B029A5A620B9B00229A620B9BD0
:103E90000022DA620B9B00221A630B9B03F10C00D9
:103EA0000A9B079A0399FFF7CDFC074B074A1A674D
:103EB00004E06FF004010020FEF738FE0B9B18466B
:103EC0000DB05DF804FB00BFF4010020673B00006B
:103ED00010B58CB003900291009313468DF8073013
:103EE0000398FFF792FD0A900A9B002B06D00A9BCD
:103EF0001B78082B02D1029B002B07D16FF0030126
:103F00000A98FEF713FE6FF0030381E00A9B9B689B
:103F1000002B2FD00A9B9B685B78832B2AD10A98B1
:103F2000FFF779FD0346184600F0E6FF09900122ED
:103F30000021099801F00EFA099801F065F908903E
:103F4000089B08331B6807930A9B5B6A1A46029911
:103F5000079808F00DFC089B0C331B68002B06D05B
:103F6000089B0C331B681A469DF80730137000231A
:103F70000B934CE00A9B0C331846FFF7A6FC069007
:103F8000069B002B19D0069B03F10C000A9B5B6A71
:103F90001A46029908F0ECFB069B07221A70069B52
:103FA00000229A70069B9DF80720DA7006990A98FD
:103FB000FFF73EFD00230B9329E0009B002B23D04D
:103FC0000099932001F0E6F90346002B18D00A98D7
:103FD000FFF721FD0446FFF725FD0346194620465D
:103FE00000F054FFEFF309830593059B0893089BAA
:103FF0000833029A1A60089B0C339DF807201A6058
:104000006FF001030B9302E06FF002030B930B9B25
:1040100018460CB010BD10B58CB0039002910192FF
:1040200000930398FFF7F1FC0A900A9B002B06D03F
:104030000A9B1B78082B02D1029B002B07D16FF043
:1040400003010A98FEF772FD6FF0030390E00A98EF
:10405000FFF73AFD0990099B002B5FD009990A9858
:10406000FFF75FFD099B03F10C010A9B5B6A1A468F
:10407000029808F07DFB019B002B03D0099BDA78A6
:10408000019B1A70099B00221A700A9B0C33099934
:104090001846FFF735FC0A9B9B68002B3BD00A9B18
:1040A0009B685B78932B36D10A9B0C331846FFF73D
:1040B0000CFC0990099B002B2DD00A98FFF7ABFC54
:1040C0000346184600F018FF0890012200210898C6
:1040D00001F040F9089801F097F80790079B083322
:1040E0001B680693099B03F10C000A9B5B6A1A4646
:1040F000069908F03DFB099B07221A70099B0022D4
:104100009A70079B0C331B68DAB2099BDA70099925
:104110000A98FFF78DFC00230B9328E0009B002BEF
:1041200022D00099832001F035F90346002B17D0E7
:104130000A98FFF770FC0446FFF774FC0346194623
:10414000204600F0A3FEEFF309830593059B079338
:10415000079B0833029A1A60079B0C33019A1A6076
:104160006FF001030B9302E06FF002030B930B9BC4
:1041700018460CB010BD00B589B0039002910093B1
:1041800013468DF807300398FFF73FFC0690069B17
:10419000002B09D0069B1B78082B05D1029B002B16
:1041A00002D0009B002B07D06FF003010698FEF7AA
:1041B000BDFC6FF0030331E0069B0C331846FFF79C
:1041C00084FB0590059B002B24D0059B03F10C007C
:1041D000069B5B6A1A46029908F0CAFA059B0722F9
:1041E0001A70059B00229A70059B9DF80720DA70D3
:1041F000059B0433029A1A60059B0833069A1A60DD
:104200000598FFF708FC0346184600F041FD00231F
:10421000079302E06FF002030793079B184609B06B
:104220005DF804FB00B589B0039002910192009300
:104230000398FFF7EAFB0690069B002B09D0069B2C
:104240001B78082B05D1029B002B02D0009B002B72
:1042500007D06FF003010698FEF768FC6FF00303C8
:1042600028E00698FFF730FC0590059B002B1DD039
:10427000059B03F10C01069B5B6A1A46029808F045
:1042800077FA019B002B03D0059BDA78019B1A700B
:10429000059B0C33069A1A600598FFF7BCFB034692
:1042A000184600F0F5FC0023079302E06FF00203CC
:1042B0000793079B184609B05DF804FB00B589B069
:1042C000039002910192FFF73FFB0346002B04D1BC
:1042D000FFF747FB0346002B07D06FF005010020D6
:1042E000FEF724FC002307930EE0039B0693029B3A
:1042F0000593019B049306980599049B1A46054B68
:104300009C4600DF03460793079B184609B05DF8FB
:1043100004FB00BFB13C000010B58AB003900291CD
:10432000009313468DF80730FFF70EFB0346002B72
:1043300004D1FFF716FB0346002B08D09DF8072099
:10434000009B02990398FFF716FF099016E0039B64
:104350000893029B07939DF807308DF81B30009B54
:104360000593089B1846079B19469DF81B301A4673
:10437000059B044CA44600DF03460993099B18469D
:104380000AB010BDD13E000010B58AB00390029172
:1043900001920093FFF7D8FA0346002B04D1FFF7F0
:1043A000E0FA0346002B07D0009B019A029903987C
:1043B000FFF738FF099013E0039B0893029B0793D4
:1043C000019B0693009B0593089B1846079B194683
:1043D000069B1A46059B044CA44600DF034609933E
:1043E000099B18460AB010BD1740000082B0EFF3D9
:1043F00005830193019B002B14BF01230023DBB233
:10440000184602B0704782B0EFF310830193019B0E
:10441000002B05D1EFF311830093009B002B01D0FB
:10442000012300E0002303F00103DBB2184602B0D1
:10443000704782B00190019B184602B0704782B06D
:104440000190019B184602B070470000014B5B6968
:1044500018467047F401002000B587B00190019B19
:1044600005932EE0059B5B690493059BDB7803F0C5
:104470000803002B23D0059B00221A76059B9B681E
:10448000002B1CD00598FFF7DAFF0346184600F012
:1044900033FD039000220021039800F05BFF059B91
:1044A000039ADA60039BDA6A059B5A61059B002236
:1044B0001A61039B059ADA62059B01221A76049B16
:1044C0000593059B002BCDD100BF07B05DF804FB21
:1044D00000B587B00190019B002B26D0019B1B6883
:1044E0000293019B5B680493019B9B680593059B6A
:1044F000002B0FD0059B03F00303002B03D1019B7E
:10450000DB681B2B17D86FF008010020FEF7FCFAC0
:10451000002357E0019BDB68002B0CD06FF00801F3
:104520000020FEF7F1FA00234CE000230293002361
:10453000049300230593059B002B19D1234BD3F83B
:104540009430002B07D0214BD3F894301846FFF756
:10455000BCF9059008E01D4BD3F8803001221C21E6
:104560001846FFF74EF8059001238DF80F3002E052
:1045700000238DF80F30059B002B1DD0059B0422D6
:104580001A70059B9DF80F209A70049BDAB2059B68
:10459000DA70059B029A5A60059B00229A60059B7F
:1045A0000022DA60059B00221A61059B00225A61F5
:1045B000059B00221A7604E06FF004010020FEF74C
:1045C000A3FA059B184607B05DF804FBF401002030
:1045D00000B587B0019000910198FFF72AFF049081
:1045E000FFF734FF0390039B002B07D16FF0070107
:1045F0000498FEF789FA4FF0FF3383E0049B002B09
:1046000003D0049B1B78042B07D06FF003010498A0
:10461000FEF77AFA6FF0030374E0049B1B7E002B15
:104620001AD1049B039ADA60039BDA6A049B5A61ED
:10463000049B00221A61039BDB6A002B03D0039BBF
:10464000DB6A049A1A61039B049ADA62049B0122D2
:104650001A760023059354E0049BDB7803F00103F2
:10466000002B1AD0049BDA68039B9A4215D1049B55
:104670001B7EFF2B08D16FF00F010498FEF744FA60
:104680006FF0020305933CE0049B1B7E0133DAB21A
:10469000049B1A760023059333E0009B002B2DD05A
:1046A000049BDB7803F00203002B14D0049BDB682F
:1046B00093F92020039B93F920309A420BDA049B54
:1046C000DB68039A92F9202083F82020049BDB68A2
:1046D000184600F030FC0099532000F05BFE0346C2
:1046E000002B07D00498FFF7AAFE0346039918464B
:1046F00000F0CCFB6FF00103059302E06FF00203C2
:104700000593059B184607B05DF804FB00B589B01A
:1047100001900198FFF78DFE0590FFF797FE04903A
:10472000049B002B07D16FF007010598FEF7ECF909
:104730004FF0FF3399E0059B002B03D0059B1B78BE
:10474000042B07D06FF003010598FEF7DDF96FF039
:1047500003038AE0059B1B7E002B07D16FF00E013F
:104760000598FEF7D1F96FF002037EE0059BDA6849
:10477000049B9A4207D06FF00D010598FEF7C4F92B
:104780006FF0020371E0059B1B7E013BDAB2059BD3
:104790001A76059B1B7E002B66D1059B5B69002B5F
:1047A00004D0059B5B69059A12691A61059B1B6918
:1047B000002B05D0059B1B69059A52695A6103E0DD
:1047C000059B5A69049BDA62059BDB7803F00203C0
:1047D000002B25D0049B93F821308DF81B30049BCF
:1047E000DB6A079314E0079B9B68002B0DD0079BA7
:1047F0009B6893F920309DF91B209A4205DA079BAC
:104800009B6893F820308DF81B30079B5B690793FA
:10481000079B002BE7D1049B9DF81B2083F82020E9
:10482000059B9B68002B1CD00598FFF708FE0346EC
:10483000184600F061FB039000220021039800F06D
:1048400089FD059B039ADA60039BDA6A059B5A612E
:10485000059B00221A61039B059ADA62059B0122DF
:104860001A76002000F02AFD0023184609B05DF8F2
:1048700004FB000000B585B00190FFF7B7FD0346CB
:10488000002B04D1FFF7BFFD0346002B07D06FF0CC
:1048900005010020FEF738F90023039308E0019B8F
:1048A0000293029B1846054B9C4600DF0346039388
:1048B000039B184605B05DF804FB00BFD14400001F
:1048C00000B587B001900091FFF790FD0346002BE3
:1048D00004D1FFF798FD0346002B08D06FF00501C7
:1048E0000198FEF711F96FF0050305930BE0019BAA
:1048F0000493009B0393049B18460399044B9C4626
:1049000000DF03460593059B184607B05DF804FBDE
:10491000D145000000B585B00190FFF767FD034663
:10492000002B04D1FFF76FFD0346002B08D06FF07A
:1049300005010198FEF7E8F86FF00503039308E01E
:10494000019B0293029B1846044B9C4600DF0346E2
:104950000393039B184605B05DF804FB0D47000068
:10496000024B4FF080525A6000BF704700ED00E0EC
:1049700010B483B001900B46ADF80230019BBDF836
:104980000220D3E85F1F8A4202D8BFF32F8F04E0D2
:10499000481CC3E8540F04B1F3E78CB22346184611
:1049A00003B05DF8044B704710B483B001900B4620
:1049B000ADF80230019BBDF80220D3E85F1F481C10
:1049C000824200D80020C3E8540F04B1F5E78CB24E
:1049D0002346184603B05DF8044B704710B483B00B
:1049E0000190019BD3E85F2F12B9BFF32F8F04E032
:1049F000511EC3E8501F00B1F4E794B22346184695
:104A000003B05DF8044B704782B00190019B1846DB
:104A100002B0704782B00190019B184602B0704707
:104A200082B00190019B184602B0704782B001909D
:104A3000019B184602B0704782B00190019B184656
:104A400002B0704782B00190019B184602B07047D7
:104A5000014B1B7A18467047F401002000B587B05F
:104A60000190154BB3F85430ADF81230BDF8123048
:104A700019461248FFF77CFF03461A46BDF812306C
:104A8000934211D9BDF8123019460D48FFF78CFF3B
:104A900003460393084BDA6D039B9B001344019A72
:104AA0001A600123059301E000230593059B184636
:104AB00007B05DF804FB00BFF40100204A020020AB
:104AC0004C02002000B585B0124BB3F85430ADF85D
:104AD0000A301148FFF782FF0346002B12D0BDF8C1
:104AE0000A3019460D48FFF75FFF03460193094B53
:104AF000DA6D019B9B0013441B681846FFF784FF87
:104B0000039001E000230393039B184605B05DF872
:104B100004FB00BFF40100204A0200204E020020E6
:104B200000B583B0FEF756F82D4BDB6801332C4AF5
:104B3000D3602B4B1B6D002B02D0294B1B6D98476C
:104B400000F008FB002000F0B9FB254B1B6C002B8C
:104B500041D0234B9A6B224B9B699A4208D0204B41
:104B60009B691F4A93631E4B1B6C1D4AD36332E043
:104B70001B4BDB6B002B04D0194BDB6B013B184A42
:104B8000D363174BDB6B002B25D1FFF761FF034687
:104B9000022B20D1124B5B6A0193019B002B1AD090
:104BA000019B93F920200E4B9B6B93F920309A4286
:104BB00011D1019800F0E1F9094B9B6B184600F008
:104BC000F7F9019800F068FB054A019B9363044BD9
:104BD0001B6C034AD36300BF03B05DF804FB00BF46
:104BE000F401002010B582B0FFF76CFF0190019B2B
:104BF000002B44D0019B1B78013B062B3DD801A222
:104C000052F823F0214C00007B4C0000334C000094
:104C10007B4C0000454C0000574C0000694C0000E4
:104C20001A4B1C6E0198FFF7F5FE03461846A04785
:104C300024E0164B5C6E0198FFF7F2FE034618461F
:104C4000A0471BE0114B9C6E0198FFF7EFFE034657
:104C50001846A04712E00D4BDC6E0198FFF7ECFE02
:104C600003461846A04709E0084B1C6F0198FFF760
:104C7000E9FE03461846A04700E000BFB4E700BFC6
:104C8000002000F01BFB00BF02B010BDF4010020AB
:104C900000B583B001900198FFF7E0FE0346002BBA
:104CA0000BD00A4B5B7ADBB2002B02D1FFF758FE28
:104CB00007E0064B01229A7203E001990220FDF7FA
:104CC0006FFE00BF03B05DF804FB00BFF4010020DD
:104CD00082B003460A468DF8073013468DF8063039
:104CE0004FF08073184602B0704782B003468DF8CB
:104CF00007309DF8073003F01003002B01D160232B
:104D000000E02023184602B0704782B0EFF305831D
:104D10000193019B002B14BF01230023DBB2184633
:104D200002B0704782B0EFF310830193019B002B18
:104D300005D1EFF311830093009B002B01D00123D9
:104D400000E0002303F00103DBB2184602B0704715
:104D500010B483B001900091019B009A53E8001FAA
:104D600001EA0200904203D0BFF32F8F002105E03B
:104D700021EA020043E8000404B1EFE70C462346B1
:104D8000184603B05DF8044B704710B483B001902F
:104D90000091019B009A53E8001F114203D1BFF319
:104DA0002F8F002105E021EA020043E8000404B14E
:104DB000F1E70C462346184603B05DF8044B7047F4
:104DC00082B00190019B184602B0704782B00190FA
:104DD000019B184602B0704782B00190019B1846B3
:104DE00002B07047014B1B7A18467047F40100204F
:104DF000014B5B6918467047F401002082B00190B6
:104E0000024A019B536100BF02B07047F4010020C9
:104E100000B587B0039002910192019B03F0020359
:104E2000002B14D1019B03F00103002B07D0039B3F
:104E3000283302991846FFF78BFF059021E0039B6A
:104E4000283302991846FFF7A0FF059019E0039B4D
:104E50009B6A0593019B03F00103002B05D0059A83
:104E6000029B1A40029B9A4209D1019B03F0010365
:104E7000002B06D1059A029B1340002B01D1002381
:104E80000593059B184607B05DF804FB00B587B095
:104E900001900091009B002B2AD0009B93F92030B9
:104EA00003930198FFF798FF0590059B9B68049377
:104EB00004E0049B0593049B9B680493049B002BD4
:104EC00006D0049B93F920301A46039B9A42F0DAED
:104ED000009B059ADA60009B049A9A60059B009AF1
:104EE0009A60049B002B04D0049B009ADA6000E0D7
:104EF00000BF07B05DF804FB10B584B00190019BC2
:104F00009B680393039B002B11D0039B9A68019B22
:104F10009A60039B9B68002B06D0039B9C680198BA
:104F2000FFF75AFF0346E360039B0022DA60039B0E
:104F3000184604B010BD00B585B00190019B0393E5
:104F400002E0039BDB680393039B002B03D0039BCE
:104F50001B78012BF5D00398FFF738FF0290029BD6
:104F6000002B06D0019800F008F801990298FFF78D
:104F70008DFF00BF05B05DF804FB82B00190019B7E
:104F8000DB68002B10D0019BDB68019A92689A6065
:104F9000019B9B68002B04D0019B9B68019AD268FF
:104FA000DA60019B0022DA6000BF02B070470000A7
:104FB00000B583B00190019B01225A70019903480A
:104FC000FFF764FF00BF03B05DF804FB1002002090
:104FD00084B001900091009BB3F1FF3F21D10023E9
:104FE00003932D4B1B6B029304E0029B0393029BE4
:104FF0001B690293029B002BF7D1019B009ADA6197
:10500000019B039A5A61019B00221A61039B002BAA
:1050100003D0039B019A1A613AE01F4A019B136374
:1050200036E0002303931C4BDB6A029309E0029BEA
:10503000DB69009AD31A0093029B0393029B1B69BE
:105040000293029B002B04D0029BDA69009B9A42D8
:10505000EDD9019B009ADA61019B039A5A61019B89
:10506000029A1A61039B002B03D0039B019A1A61D9
:1050700002E0094A019BD362029B002B08D0029BED
:10508000DA69009BD21A029BDA61029B019A5A618B
:1050900000BF04B0704700BFF401002082B001904F
:1050A000019BDB69B3F1FF3F23D1019B5B69002BBF
:1050B00004D1274B1A6B019B9A4246D1019B1B6975
:1050C000002B04D0019B1B69019A52695A61019B14
:1050D0005B69002B08D0019B5B69019A12691A6118
:1050E000019B00225A6130E0019B1B69184A13633F
:1050F0002BE0019B5B69002B04D1154BDA6A019B05
:105100009A4222D1019B1B69002B0DD0019B1B6988
:10511000019A1269D169019AD2690A44DA61019B44
:105120001B69019A52695A61019B5B69002B08D087
:10513000019B5B69019A12691A61019B00225A6105
:1051400003E0019B1B69024AD36200BF02B07047B3
:10515000F401002000B583B02A4BDB6A0193019B68
:10516000002B4AD0019BDB695A1E019BDA61019B2F
:10517000DB69002B42D1019B5B78532B14D0532B5E
:1051800006DC332B12D0432B12D0132B12D01AE093
:10519000732B11D0732B02DC632B0FD013E0832B06
:1051A0000ED0932B0ED00EE000BF0CE000BF0AE043
:1051B00000BF08E000BF06E000BF04E000BF02E05F
:1051C00000BF00E000BF0198FFF7D7FE0198FFF78E
:1051D000EFFE019B1B690193019B002B03D0019BF8
:1051E000DB69002BC7D0019B002B02D0019B002262
:1051F0005A61044A019BD36200E000BF03B05DF82E
:1052000004FB00BFF401002010B584B00190019BA5
:105210009C6B019B93F822301846FFF766FD03460E
:1052200023440393039B184604B010BD00B587B018
:105230000190019B01225A70019B93F92030039346
:105240001448FFF7C9FD0590059B9B68049304E093
:10525000049B0593049B9B680493049B002B06D03E
:10526000049B93F920301A46039B9A42F0DC019B81
:10527000059ADA60019B049A9A60059B019A9A60EC
:10528000049B002B02D0049B019ADA6000BF07B098
:105290005DF804FB1002002000B583B00190019B73
:1052A00002225A70044A019B936100F0A7F800BFE4
:1052B00003B05DF804FB00BFF401002000B587B027
:1052C0000190FFF78FFD03468DF81730FFF790FD33
:1052D0000490019B002B1ED11D4B5B6A03939DF82C
:1052E0001730022B30D1049B002B2DD0039B002BB9
:1052F0002AD0039B93F92020049B93F920309A42F3
:1053000022DD0398FFF739FE0498FFF78FFF03981B
:10531000FFF7C2FF18E09DF81730022B11D1049B54
:10532000002B0ED0019B93F92020049B93F9203091
:105330009A4206DD0498FFF779FF0198FFF7ACFF6A
:1053400002E00198FFF734FE00BF07B05DF804FBF0
:10535000F401002000B587B00390029113468DF848
:1053600007300398FFF750FF0590059B029A1A60DB
:105370000398FFF793FE9DF80730002B03D00398A6
:10538000FFF79CFF02E00398FFF712FE00BF07B093
:105390005DF804FB00B585B0034600918DF8073039
:1053A000FFF720FD0346022B01D000231DE0FFF78D
:1053B0001FFD0390039B002B01D1002315E00D4B33
:1053C0005B6A002B01D100230FE0039B9DF80720AF
:1053D0005A7000990398FFF7FBFD0748FFF78CFD13
:1053E00003900398FFF758FF0123184605B05DF8B6
:1053F00004FB00BFF40100201002002000B583B0C0
:10540000FFF7F6FC0190019B002B0FD0019B9B6BDB
:10541000019A126B934205D9019B1B6B1B68054ACD
:10542000934203D001990120FDF7BAFA00BF03B0FF
:105430005DF804FBA52E5AE200B585B00190019BF2
:105440005B78332B11D1019B596A019B93F8233070
:105450001A460198FFF7DCFC0390039B002B04D055
:10546000002203990198FFF775FF00BF05B05DF8B2
:1054700004FB000010B58EB0039002910192039BD3
:10548000002B06D16FF003010020FDF72BFB00235A
:10549000A4E1019B002B54D0019B1B680793019B47
:1054A0005B680C93019B9B680D93019B1B690B939D
:1054B000019B5B690A93019B9B6909930D9B002BE0
:1054C0000FD00D9B03F00303002B03D1019BDB687E
:1054D000432B11D86FF008010020FDF703FB0023D8
:1054E0007CE1019BDB68002B06D06FF008010020F7
:1054F000FDF7F8FA002371E10B9B002B0ED00B9BFC
:1055000003F00703002B02D10A9B002B06D16FF09A
:105510000A010020FDF7E6FA00235FE1099B002B5A
:1055200002D11823099318E0099B002B02DD099B87
:10553000382B12DD6FF00B010020FDF7D3FA0023AA
:105540004CE10023079300230C9300230D930023C9
:105550000B9300230A93182309930A9B002B0ED068
:105560000A9B03F00703002B02D10A9B472B06D8A6
:105570006FF00A010020FDF7B5FA00232EE10D9B24
:10558000002B19D1974BD3F88830002B07D0954BBF
:10559000D3F888301846FEF798F90D9008E0914B43
:1055A000D3F88030012244211846FEF72AF80D90E6
:1055B00001238DF8233002E000238DF823300D9B6A
:1055C000002B54D00B9B002B51D10A9B002B21D1D7
:1055D000854B5B6D0A93834BD3F88430002B10D03E
:1055E000804BD3F884301846FEF76FF90B900B9B75
:1055F000002B17D09DF8233043F010038DF8233093
:1056000010E0784B5B6F00220A991846FDF7F9FF0E
:105610000B9007E0734B5B6F00220A991846FDF769
:10562000F0FF0B900B9B002B1BD19DF8233003F058
:105630000103002B13D06B4BD3F88830002B07D01D
:10564000684BD3F888300D991846FEF759F906E0F3
:10565000644BD3F880300D991846FEF75CF80023B0
:105660000D939DF8233043F002038DF823300D9BFA
:10567000002B00F0A7800D9B01221A700D9B0122C8
:105680005A700D9B9DF823209A700C9BDAB20D9BEB
:10569000DA700D9B079A5A600D9B00229A600D9B51
:1056A0000022DA600D9B00221A610D9B00225A61D4
:1056B0000D9B00229A610D9B0022DA61099B5AB270
:1056C0000D9B83F82020099B5AB20D9B83F8212063
:1056D0000D9BFD2283F822200D9B002283F82320BE
:1056E0000D9B00225A620D9B00229A620D9B0022A4
:1056F000DA620D9B0B9A1A630D9B0A9A5A630B9AF6
:105700000A9B1344A3F140020D9B9A63039A0D9BDD
:10571000DA630B9B0693069B344A1A60324B1B6874
:1057200003F00403002B11D00A9B9B08113B059347
:1057300009E0069B04330693069B4FF0CC321A60B7
:10574000059B013B0593059B002BF2D10D9B9B6BA9
:1057500006930023059308E0059B9B00069A1344DB
:1057600000221A60059B01330593059B0D2BF3D195
:10577000069B34331E4A1A60069B3833039A1A601C
:10578000069B03F13C04184B1B6803F00103002B3C
:1057900014BF01230023DAB2039B03F00103002BA3
:1057A00014BF01230023DBB219461046FFF790FA1D
:1057B00003462360069B2033029A1A60094B0D4A68
:1057C0001A6604E06FF004010020FDF78BF90D9BD1
:1057D000002B02D00D98FFF771FD0D9B18460EB0FF
:1057E00010BD00BFF401002050130100A52E5AE2A5
:1057F000895A00003954000000B583B0FFF7F8FA69
:105800000190019B184603B05DF804FB00B583B01E
:105810000190019B00225A70019B00221A70019B8B
:105820009B7803F00203002B17D0019B9B7803F0B9
:105830001003002B09D0184BD3F88420019B1B6B5D
:1058400019461046FEF75CF807E0134B5A6F019BB0
:105850001B6B19461046FDF75EFF019B9B7803F01A
:105860000103002B13D00C4BD3F88830002B07D04A
:10587000094BD3F8883001991846FEF741F806E045
:10588000054BD3F8803001991846FDF744FF00BF5F
:1058900003B05DF804FB00BFF401002000B583B045
:1058A000FFF7A6FA0190019B002B4CD0FFF79AFA64
:1058B0000346022B49D1274B5B6A002B45D0019B45
:1058C000DB6A1846FEF7C8FD019B9B69002B06D0DA
:1058D000019B9B69002200211846FFF73BFDEFF377
:1058E00009830093009A019B9A631B48FFF704FB0E
:1058F00003461846FFF7D0FC0020FFF77FFA019B14
:10590000DB7803F00103002B03D0019B9B69002B84
:1059100003D00198FFF77AFF18E0019B04225A7028
:10592000019B0022DA600B4B5A6B019B9A60094B7A
:105930005B6B002B03D0074B5B6B019ADA60054A67
:10594000019B536302E000BF00E000BF03B05DF8BD
:1059500004FB00BFF40100201002002000B583B05A
:1059600001238DF807301E4B9B6A002B14D11D4B71
:105970009B6D1A4600211C48FFF77CFD0346184624
:10598000FFF71EFA0246164B9A62154B9B6A002BD4
:1059900002D100238DF80730124B5B6E002B18D01C
:1059A0000F4B9B6C002B14D10E4BDB6D1A46002164
:1059B0000E48FFF75FFD03461846FFF701FA02465F
:1059C000074B9A64064B9B6C002B02D100238DF889
:1059D00007309DF80730184603B05DF804FB00BFA0
:1059E000F40100205013010095290000DD5B000048
:1059F00000B589B0039002910192FFF786F9034642
:105A0000002B04D1FFF78EF90346002B07D06FF06F
:105A100005010020FDF766F80023079310E0039BC3
:105A20000693029B0593019B0493069B1846059BD6
:105A30001946049B1A46054B9C4600DF0346079314
:105A4000079B184609B05DF804FB00BF75540000C1
:105A500000B583B0FFF759F90346002B04D1FFF7D7
:105A600061F90346002B03D0FFF7C6FE019004E066
:105A7000044B9C4600DF03460193019B184603B08C
:105A80005DF804FBF957000008B5FDF761F8044B19
:105A90009C4600DF4FF0FF310020FDF723F8FEE7C2
:105AA0009D58000082B00190019B184602B07047DB
:105AB00084B001900091002303931C4B5B6C029314
:105AC00009E0029B1B69009AD31A0093029B03937F
:105AD000029BDB680293029B002B04D0029B1A6995
