:020000022000DC
:103000000000012099AA0300D1AA0300A9340200FC
:10301000D5AA0300B9340200C13402000000000048
:10302000000000000000000000000000617A0300C2
:10303000DDAA030000000000F97A0300097B030009
:10304000E3AA0300E3AA0300E3AA0300E3AA030040
:10305000E3AA0300E3AA0300E3AA0300E3AA030030
:10306000E3AA0300E3AA0300E3AA0300E3AA030020
:10307000E3AA0300E9F00300E3AA0300E3AA0300C4
:10308000E3AA0300E3AA0300E3AA0300E3AA030000
:10309000E3AA0300E3AA0300E3AA0300E3AA0300F0
:1030A000E3AA0300E3AA0300E3AA0300E3AA0300E0
:1030B000E3AA0300E3AA03000000000000000000F0
:1030C000E3AA0300E3AA0300E3AA0300E3AA0300C0
:1030D000E3AA0300E3AA0300E3AA030010B5054C2A
:1030E000237833B9044B13B10448AFF300800123B4
:1030F000237010BD683E0020000000005C8D0400BD
:103100000C4B43B10C480D4910B5AFF300800C488F
:10311000036823B910BD0A48036833B97047094BE7
:10312000002BF7D0BDE810401847064B002BF5D018
:10313000184700BF000000005C8D04006C3E0020BA
:10314000683E002000000000154B002B08BF134B09
:103150009D46A3F5803A00218B460F461348144A3A
:10316000121A1FF06BFC0F4B002B00D098470E4B30
:10317000002B00D098470020002104000D000D48CE
:10318000002802D00C4813F006FE1EF0DBFF2000E2
:10319000290014F02FFA13F0F4FD00BF000008001E
:1031A000000001200000000035750300683E00208B
:1031B000D85F0020976D03000000000000B583B0C9
:1031C0000190019B1B681F2B04D905494FF4E8703F
:1031D00007F086FD4FF0A043184603B05DF804FBEE
:1031E0003868040000B585B0019001AB1846FFF7C0
:1031F000E5FF0390019B012202FA03F319460398AD
:1032000000F018F800BF05B05DF804FB00B585B00C
:10321000019001AB1846FFF7D1FF0390019B0122FB
:1032200002FA03F31946039800F00EF800BF05B048
:103230005DF804FB82B001900091019B009AC3F8F5
:10324000082500BF02B0704782B001900091019B39
:10325000009AC3F80C2500BF02B0704700B583B0D8
:1032600001900091019B93F90030B3F1FF3F04D12D
:1032700020220C490C4812F0CFFF009B002B06D0F7
:10328000019B93F900301846FFF7ACFF05E0019B66
:1032900093F900301846FFF7B9FF00BF03B05DF89F
:1032A00004FB00BF90680400CC68040000B583B044
:1032B00001900B468DF80330019B00221A70019B90
:1032C0009DF903201146184612F035FA019B184665
:1032D00003B05DF804FB00B583B001900091019B41
:1032E00000991846FFF7BAFF00BF03B05DF804FB72
:1032F00000B583B00190019B18461EF0B7F9034654
:10330000184603B05DF804FB00B583B0019000914E
:1033100000990198FFF7DFFF019B184603B05DF8A5
:1033200004FB00B583B001900198FFF7E1FF03466D
:10333000184603B05DF804FB82B00190019BD3F8FE
:103340001035DBB2184602B07047000000B585B0FA
:1033500001900B468DF803309DF803300393019BD9
:10336000094A934204D9094940F2692007F0B8FCA0
:10337000019B4FF47A5202FB03F2039B22FA03F300
:10338000184605B05DF804FB93180400E4680400D7
:1033900000B583B001900091019B1B681846FFF7B0
:1033A000CBFF034619460098FFF7D0FF03461846A7
:1033B00003B05DF804FB82B003460091ADF806301F
:1033C000BDF80630B3F5A07F00D000E000BF00BF1D
:1033D00002B0704700B585B06423039300211B48F9
:1033E000FFF792FF00211A48FFF78EFF01211848CE
:1033F000FFF78AFF174A6B4692E8030083E8030051
:103400006B46154A194615481BF058FF0399134897
:10341000FFF7BEFF02900123029A00210F481CF023
:10342000A9F80E481CF078F84FF4FA7013F032FE49
:103430000648FFF776FF0346002B0CBF012300234D
:10344000DBB219460148FFF75FFFEDE7843E00203D
:10345000883E002040690400B73302004869040038
:1034600000B583B001900091019B012B0CD1009B12
:103470004FF6FF72934207D111210548FFF716FF5F
:1034800012210448FFF712FF00BF03B05DF804FBF0
:10349000843E0020883E002008B54FF6FF710120D1
:1034A000FFF7DEFF08BD00004FF0100300F00CB87E
:1034B0004FF0200300F008B84FF0300300F004B8DC
:1034C0004FF0400300F000B8EFF308804FF0040124
:1034D00072460A4201D0EFF309809C46244B1968DA
:1034E00002680A60043142680A60043182680A6036
:1034F0000431C2680A600431F0C147460F600431EC
:103500004F460F60043157460F6004315F460F602D
:10351000043102690A60083142690A600431826933
:103520000A600431C2690A600431034620334FF453
:103530000076324200D0043375464FF01006354213
:1035400000D148330C46103C2360EFF309820A6037
:103550000431EFF308820A60043172460A600431D4
:10356000EFF314820A606046014900F003F8FEE7B9
:103570005069040000B587B00390029100230593C1
:10358000194812F013FF039B302B09D0402B0DD0AC
:10359000202B11D1154812F009FF154B059311E0AE
:1035A000144812F003FF144B05930BE0134812F07C
:1035B000FDFE134B059305E0124812F0F7FE124B87
:1035C000059300BF114812F0F1FE00F027F81048F3
:1035D00012F0ECFE0F4BDA6B0023009300230E4930
:1035E000059813F0DDF800BF5469040080690400F9
:1035F0003E01FF80906904003F01FF809C69040048
:103600004001FF80A86904003D01FF80B469040007
:10361000C0690400184F0020E069040030B587B08D
:10362000002305930CE0454A059B9B0013441B684F
:103630001A460599424812F0B9FE059B01330593DD
:10364000059B0C2BEFDD3D4B586B3C4B9C6B3B4B78
:10365000DD6B3A4B1B6C394A526C3849896C0291CC
:10366000019200932B4622460146364812F09EFEF8
:10367000354B1B681946354812F098FE324BD86A14
:10368000314B9B6ADCB2304B9B6A1B0ADDB22E4B7E
:103690009B6A1B0C9BB22C4A126B2B49C96B029183
:1036A000019200932B4622460146294812F07EFEE5
:1036B000254B9B6A03F08003002B05D0224B5B6BEC
:1036C0001946244812F072FE1F4B9B6A03F4004314
:1036D000002B05D01C4B9B6B19461F4812F066FE51
:1036E000164BDB6C03F00803002B10D01B4812F0C4
:1036F0005DFE124B1B6D03F00103002B03D0184835
:1037000012F054FE09E0174812F050FE05E016488A
:1037100012F04CFE134812F049FE084BDB6C03F02C
:103720000403002B03D0114812F040FE02E01048C1
:1037300012F03CFE00BF07B030BD00BF184F0020A4
:10374000F0690400006A040000ED00E0506A040023
:10375000606A0400B06A0400C06A0400D06A040011
:10376000E06A0400F06A0400046B0400146B0400B7
:10377000206B040082B001900091009B184602B0BB
:103780007047000000B583B00190019B184600F01F
:10379000ADFA019800F052F8084A019B1A60019BAB
:1037A00028330021184600F055F8019B012283F8C8
:1037B0003820019B184603B05DF804FB246F040019
:1037C00000B583B001900B4A019B1A60019800F08C
:1037D0001EFA019B2833184600F053F8019800F0B8
:1037E00033F8019B184600F0E3FA019B184603B03A
:1037F0005DF804FB246F040000B583B001900198CC
:10380000FFF7DEFF019813F087FB019B184603B01A
:103810005DF804FB00B583B00190019B1846FFF7EB
:10382000B1FF019800F03EF8034A019B1A60019B2A
:10383000184603B05DF804FB386F040082B00190B5
:10384000019B184602B0704782B00190019B184658
:1038500002B0704700B583B001900091009B002B2F
:1038600005D11022002101981FF0E8F804E06B4612
:103870001946019800F022F8019B184603B05DF844
:1038800004FB00B583B00190019BDB68002B04D0E2
:10389000019BDB689B6801989847019B184603B021
:1038A0005DF804FB82B00190019B184602B070479E
:1038B00082B00190019B184602B0704700B583B0FA
:1038C000019000911022002101981FF0B7F8019B90
:1038D00019460420FFF74EFF0346002B02D0009A42
:1038E00012681A60019B034ADA6000BF03B05DF8FA
:1038F00004FB00BF2C6B040000B583B00190019B5A
:103900001B68984703B05DF804FB00B583B00190D5
:103910000091019B19460420FFF72CFF0346002B62
:1039200002D0009A12681A6000BF03B05DF804FB71
:1039300082B0019000BF02B07047000000B583B0B4
:103940000190074A019B1A600198FFF7B1FF019BA4
:103950001846FFF735FF019B184603B05DF804FBDE
:10396000386F040000B583B001900198FFF7E6FFBF
:10397000019813F0D1FA019B184603B05DF804FBDF
:1039800000B583B0019000911022002101981FF032
:1039900055F8009BDB68002B05D0009BDB685B685B
:1039A000009901989847009BDA68019BDA60019BB7
:1039B000184603B05DF804FB00B583B00190019890
:1039C00000F004F803B05DF804FB000000B583B01C
:1039D0000190019BDB68002B05D140F23B22064998
:1039E000064812F019FC019BDB681B680198984798
:1039F00003B05DF804FB00BFAC6E0400CC6E0400A5
:103A000082B00190019BDB68002B14BF01230023CF
:103A1000DBB2184602B0704700B583B00190009148
:103A2000019A009B9A420ED00198FFF72AFF019B52
:103A300019461020FFF79EFE0346002B03D0009985
:103A40001846FFF79DFF019B184603B05DF804FB85
:103A500008B5074B1B68002B07D0054B1B684FF0C0
:103A6000FF31184615F00AFE00E000BF08BD00BF98
:103A7000704F002008B5064B1B68002B05D0044B87
:103A80001B68184615F024FE00E000BF08BD00BF0B
:103A9000704F002000B583B00190019800F006F847
:103AA0000346184603B05DF804FB000010B588B06B
:103AB0000190019B0693069B1B680593059B07934A
:103AC000079B002B20D1FFF7C3FF019B1B680793C7
:103AD000079B002B16D1019B083319462420FFF7C2
:103AE00049FE0446002C04D0204613F02BFB23464D
:103AF00000E023460793019B0493079B0393049BD9
:103B0000039A1A60FFF7B6FF019B03F10802079BB7
:103B10009A4204D06C220449044812F07DFB079BB2
:103B2000184608B010BD00BFD46E0400F86E040043
:103B300082B0019000916FF01503184602B07047F3
:103B400000B585B0039002910192039B1B6810336E
:103B50001B68019A0299039898470346184605B0D6
:103B60005DF804FB00B583B00190019B1B6818331E
:103B70001B68019898470346184603B05DF804FB9C
:103B800000B583B00190019B1B6828331B68019826
:103B900098470346184603B05DF804FB82B00190D5
:103BA0000B468DF803309DF80330002B01D0002325
:103BB00001E06FF01803184602B0704782B0019020
:103BC0000123184602B0704782B001900B468DF871
:103BD00003306FF01503184602B0704782B00190B1
:103BE0000B468DF803306FF01503184602B070478E
:103BF00082B001900B46ADF802301123184602B096
:103C0000704782B00190009100BF02B0704710B5BC
:103C100086B0019012F02CFC019B184600F0F0F8E1
:103C2000019B28331846FFF7EBFE0346002B06D016
:103C3000019B93F83830002B01D0012300E00023D2
:103C4000002B01D013F0C2F9019B03F1280402AB51
:103C500000211846FFF7FEFD02AB19462046FFF78C
:103C6000DBFE02AB1846FFF70CFE12F01BFC00BF98
:103C700006B010BD10B582B001900198019BD3E948
:103C80000212019BD3E908345B1844EB02041A4684
:103C9000234600F0A1F8019B28331846FFF7B0FE39
:103CA0000346002B04D0019B28331846FFF784FEFF
:103CB00000BF02B010BD00B587B00190019B03F1B9
:103CC000280202AB11461846FFF75AFE019B184620
:103CD000FFF79DFF02AB1846FFF778FE02AB1846D0
:103CE000FFF7CFFD00BF07B05DF804FB10B582B051
:103CF0000190019800F093F80F4A019B1A60019A15
:103D00004FF000034FF00004C2E90234019B00228F
:103D10001A61019B00225A6112F0D6F90246019BFA
:103D20009A61019B9B690549184612F0CFF8019BE7
:103D3000184602B010BD00BF4C6F0400913D020058
:103D400010B582B001900091019800F068F80E4A19
:103D5000019B1A60019A4FF000034FF00004C2E982
:103D60000234019B00221A61019B00225A61019BCF
:103D7000009A9A61019B9B690449184612F0A6F8C3
:103D8000019B184602B010BD4C6F0400913D02002B
:103D900000B585B00190019B0393039B1B6808331A
:103DA0001B680398984700BF05B05DF804FB00004E
:103DB00000B583B00190074A019B1A60019800F09A
:103DC0001FF8019800F031F8019B184603B05DF828
:103DD00004FB00BF4C6F040000B587B00590CDE92F
:103DE0000223059B9869059B03F10801059B00933D
:103DF000DDE9022312F0D0F800BF07B05DF804FB44
:103E000000B583B00190019B9A69019B0833194664
:103E1000104612F004F900BF03B05DF804FB82B055
:103E20000190019B184602B0704782B00190019B3F
:103E3000184602B07047000000B583B00190054AF3
:103E4000019B1A60019800F045F8019B184603B0E9
:103E50005DF804FB2077040000B583B00190019861
:103E6000FFF7EAFF019813F057F8019B184603B0DB
:103E70005DF804FB00B583B00190019B1B68103313
:103E80001B6801220021019898470346184603B099
:103E90005DF804FB00B583B00190019B1B681033F3
:103EA0001B68002200210198984700BF03B05DF80D
:103EB00004FB000000B583B00190019800F010F8F9
:103EC000034A019B1A60019B184603B05DF804FB8E
:103ED0002077040082B00190019B184602B0704721
:103EE00082B00190019B184602B0704782B00190E9
:103EF00000BF02B07047000010B582B00190019B76
:103F0000002B17D11D4A019B52F82330002B0CD1F6
:103F1000202012F0D9FF03461C460199204600F0EC
:103F200065F8164A019B42F82340144A019B52F857
:103F3000233020E0124B1B78BFF35B8FDBB203F022
:103F40000103002B0CBF01230023DBB2002B11D097
:103F50000B4812F03BFF0346002B14BF0123002344
:103F6000DBB2002B06D00121064800F03FF80448E0
:103F700012F078FF034B184602B010BD8C3E0020B3
:103F8000B03E0020903E002000B587B0019012F0B6
:103F90006FFA019B1B7F002B02D012F083FA22E004
:103FA000019B01221A7712F07DFA019B03F10802AE
:103FB00004AB1146184600F059F8049B002B04D1BD
:103FC000059B03F00103002B01D0012300E0002337
:103FD000002B08D0019B0393019B083303AA1146D1
:103FE000184600F061F807B05DF804FB10B582B028
:103FF00001900091019B009A1A60019B00225A6077
:10400000019B08330021184600F065F8019B00224F
:104010001A77019B1B68002B16D1019B1B680E4A67
:1040200052F82330002B07D1019B1C680B4B98479B
:104030000246094B43F82420019B1B68064A52F8AC
:104040002320019B5A6002E0019B00225A60019BE1
:10405000184602B010BD00BFB43E00202DD60200AD
:1040600082B00190019B184602B0704700B583B042
:1040700001900091009800F04AF80346002B06D00A
:10408000019B084A1A60019B00225A6005E0019BCF
:1040900000221A60019B00225A60019803B05DF86B
:1040A00004FB00BFED3E020000B583B0019000911B
:1040B0000099019800F03BF800BF03B05DF804FBE5
:1040C00000B583B001900198FFF7CAFF019B184625
:1040D00003B05DF804FB00B583B001900091019836
:1040E000FFF7EEFF019B1A460023136053609360B5
:1040F000019B0022DA60019B00221A61009901985D
:1041000000F022F8019B184603B05DF804FB82B072
:104110000190019B1B68002B03D1019B1B68002BA6
:1041200001D0012300E00023184602B0704700B51B
:1041300083B001900091019BDB680099019898473A
:1041400000BF03B05DF804FB82B001900091019BB9
:10415000009A1A60019B024ADA6000BF02B0704701
:104160006541020000B583B001900091019B1B687E
:10417000002B03D0019B1B680098984700BF03B039
:104180005DF804FB82B00190034A019B1A60019B19
:10419000184602B0704700BF606F040000B583B0DE
:1041A000019000910098FFF7A7FE03461846FFF71D
:1041B000EBFE00BF03B05DF804FB82B00190019BF1
:1041C0001B69184602B0704700B583B0019000919A
:1041D000019BDB6800990198984700BF03B05DF828
:1041E00004FB82B00190019B1B69184602B0704726
:1041F00082B00190019B4FF47A7202FB03F3044AF0
:10420000A2FB03235B0A9BB2184602B0704700BFB3
:104210005917B7D100B585B00390084611461A4624
:104220000346ADF80A300B46ADF808301346ADF83A
:104230000630BDF80A301846FFF7DAFF03461A4683
:10424000039B1A80BDF808301846FFF7D1FF0346DC
:104250001A46039B5A80039BBDF806209A80039B55
:104260009DF818209A71039B1B88032B02D8039B8F
:1042700004221A80039B1B88B3F5804F03D9039B4C
:104280004FF480421A80039B5B88032B02D8039B68
:1042900004225A80039B5B88B3F5804F03D9039BAC
:1042A0004FF480425A80039B184605B05DF804FB2A
:1042B00000B583B001900B468DF80330019B9DF84B
:1042C00003201146184600F005F8019B184603B07C
:1042D0005DF804FB82B001900B468DF80330019B22
:1042E0009DF803201A70019B184602B0704700B574
:1042F00083B00190019B184600F01DF8019B062237
:10430000002118461EF09AFB019B184603B05DF889
:1043100004FB00B583B001900B468DF80330019B80
:104320009DF803201146184600F013F8019B18462B
:1043300003B05DF804FB00B583B00190019B062239
:10434000002118461EF07AFB019B184603B05DF869
:1043500004FB82B001900B468DF80330019B9DF861
:1043600003201A70019B184602B0704700B583B055
:104370000190019B1022002118461EF05FFB019B5B
:10438000184603B05DF804FB82B08DF804008DF888
:1043900000109DF804209DF800309A420CBF0123C4
:1043A0000023DBB2184602B0704700B583B001901D
:1043B0000091019B0099062218461EF011FA03464F
:1043C000002B0CBF01230023DBB2184603B05DF8BD
:1043D00004FB82B00190019B184602B0704700B503
:1043E00083B001900B468DF80330019B9DF80320AC
:1043F0001146184604F055FA019B184603B05DF8C3
:1044000004FB00B583B001900B468DF80330019B8F
:104410009DF803201146184604F050FA019B1846F7
:1044200003B05DF804FB00B583B001900B468DF836
:104430000330019B9DF803201146184604F04BFA07
:10444000019B184603B05DF804FB00B583B00190F2
:104450000B468DF80330019B9DF80320114618464A
:1044600004F046FA019B184603B05DF804FB000017
:1044700086B00190009105230593154B0493059B8D
:10448000002B20DB049B009AB2FBF3F30393039B06
:10449000DBB23033D9B2019A059B13440A461A7035
:1044A000049B039A02FB03F3009AD31A0093059B23
:1044B000013B0593049B074A82FB03129210DB1712
:1044C000D31A0493DBE7019B184606B0704700BF80
:1044D000A08601006766666686B00190002305939A
:1044E0000023049301230393049B052B15D8019A01
:1044F000049B13441B78303B1A46039B03FB02F3D7
:10450000059A13440593049B01330493039A1346BD
:104510009B0013445B000393E6E7059B184606B037
:10452000704782B00190019B184602B0704700B5F9
:1045300083B001900091019B1846FFF7FCFE019BA0
:104540000622009918461EF07BF9019B184603B01D
:104550005DF804FB00B583B001900B468DF8033085
:10456000019B9DF803201146184604F0CEF9019BEB
:10457000184603B05DF804FB7EDF704700BF1846A5
:104580007FDF704700BF184680DF704700BF1846C6
:1045900081DF704700BF184684DF704700BF1846B0
:1045A00085DF704700BF184686DF704700BF18469A
:1045B0009DDF704700BF184682B001900B468DF812
:1045C0000330019B9DF803201A70019B184602B02E
:1045D000704782B00190019B1B78184602B070476B
:1045E00082B001908DF80010019B9DF800201A7098
:1045F000019B184602B0704710B584B001908DF849
:10460000001013468DF80330019C03AB01211846BE
:10461000FFF7D2FF9DF80C102046FFF7E1FF019B4A
:1046200001339DF800201A70019B00225A80019BE3
:104630009DF803201A71019B184604B010BD10B5F7
:1046400086B003900846694681E80C000346ADF841
:104650000A30039C05AB1B211846FFF7ADFF9DF800
:1046600014102046FFF7BCFF039BBDF80A205A80B8
:10467000039B04331A466B4693E8030082E8030069
:10468000039B184606B010BD10B586B003900846CF
:10469000694681E80C000346ADF80A30039C05AB7F
:1046A0001D211846FFF788FF9DF814102046FFF7DC
:1046B00097FF039BBDF80A205A80039B04331A46D8
:1046C0006B4693E8030082E80300039B184606B09C
:1046D00010BD82B00190019B00221A70019B184608
:1046E00002B0704782B001900B468DF80330019BF9
:1046F0009DF803201A70019B184602B0704700B560
:1047000083B00190084611461A4603468DF80330DF
:104710000B468DF8023013468DF80130019B0022C4
:104720001A709DF803301946019800F04FF89DF873
:1047300002301946019800F064F89DF801301946DE
:10474000019800F079F89DF810301946019800F0B2
:104750008EF8019B184603B05DF804FB82B001900F
:10476000019B1B7803F00103002B14BF01230023DE
:10477000DBB2184602B0704782B00190019B1B78F3
:1047800003F00203002B14BF01230023DBB2184601
:1047900002B0704782B00190019B1B7803F00403C4
:1047A000002B14BF01230023DBB2184602B0704770
:1047B00082B00190019B1B7803F00803002B14BF0B
:1047C00001230023DBB2184602B0704782B001908B
:1047D0000B468DF803309DF80330002B07D0019B6A
:1047E0001B7843F00103DAB2019B1A7006E0019BCB
:1047F0001B7823F00103DAB2019B1A7000BF02B0EC
:10480000704782B001900B468DF803309DF803305D
:10481000002B07D0019B1B7843F00203DAB2019B07
:104820001A7006E0019B1B7823F00203DAB2019BA9
:104830001A7000BF02B0704782B001900B468DF82D
:1048400003309DF80330002B07D0019B1B7843F009
:104850000403DAB2019B1A7006E0019B1B7823F077
:104860000403DAB2019B1A7000BF02B0704782B035
:1048700001900B468DF803309DF80330002B07D0D4
:10488000019B1B7843F00803DAB2019B1A7006E023
:10489000019B1B7823F00803DAB2019B1A7000BF5A
:1048A00002B0704710B582B001900091019B1C7856
:1048B000009800F009F803462340DAB2019B1A7011
:1048C000019B184602B010BD82B00190019B1B787D
:1048D000184602B0704782B001900B468DF8033045
:1048E000019B9DF803201A70019B184602B0704787
:1048F00000B583B00190084611461A4603468DF86C
:1049000003300B468DF8023013468DF80130019BC1
:1049100000221A709DF803301946019800F04FF8F4
:104920009DF802301946019800F064F89DF80130B6
:104930001946019800F079F89DF810301946019851
:1049400000F08EF8019B184603B05DF804FB82B0BE
:104950000190019B1B7803F00103002B14BF01237E
:104960000023DBB2184602B0704782B00190019B71
:104970001B7803F00403002B14BF01230023DBB2D8
:10498000184602B0704782B00190019B1B7803F07B
:104990000803002B14BF01230023DBB2184602B02A
:1049A000704782B00190019B1B7803F01003002B2D
:1049B00014BF01230023DBB2184602B0704782B057
:1049C00001900B468DF803309DF80330002B07D083
:1049D000019B1B7843F00103DAB2019B1A7006E0D9
:1049E000019B1B7823F00103DAB2019B1A7000BF10
:1049F00002B0704782B001900B468DF803309DF8ED
:104A00000330002B07D0019B1B7843F00403DAB27C
:104A1000019B1A7006E0019B1B7823F00403DAB2B5
:104A2000019B1A7000BF02B0704782B001900B4624
:104A30008DF803309DF80330002B07D0019B1B78C5
:104A400043F00803DAB2019B1A7006E0019B1B7861
:104A500023F00803DAB2019B1A7000BF02B070475E
:104A600082B001900B468DF803309DF80330002B87
:104A700007D0019B1B7843F01003DAB2019B1A7038
:104A800006E0019B1B7823F01003DAB2019B1A7039
:104A900000BF02B0704782B00190019B082B23D069
:104AA000082B0BD8042B27D0042B02D8002B17D0AF
:104AB00024E0062B1AD0072B14D01FE0112B17D09F
:104AC000112B04D80D2B15D0102B0BD016E043F270
:104AD0000202934206D043F20402934204D00DE056
:104AE00000230CE004230AE0062308E0022306E08A
:104AF000052304E0062302E0072300E00B23184609
:104B000002B0704784B003460091ADF80630002330
:104B10000393039B072B0BDC039B009A13441B7826
:104B2000002B01D001230AE0039B01330393F0E73C
:104B3000BDF80630002B01D0012300E00023184609
:104B400004B0704700B589B003900291039B5B6B82
:104B5000002B01D10923A7E00299039801F013FC6F
:104B60000790079B002B01D104239DE0039B93F842
:104B70008D3083F00103DBB2002B0CD0039B8A3312
:104B80001846FFF700FF034683F00103DBB2002B5A
:104B900001D0012300E00023002B01D0062383E095
:104BA00000220299039800F051FC0299039800F04A
:104BB000D9FB039B93F88A308DF81830079B1B7C38
:104BC00003F00103DBB2002B04D006AB0121184631
:104BD000FFF710FF039B8B331846FFF7E9FD0346F1
:104BE00043F00203DAB205AB11461846FFF77AFD2F
:104BF000079BDB7B23F07F03DBB2002B0AD0079BF4
:104C0000DB7B03F04003DBB2002B14BF0123002346
:104C1000DBB205E0039B8B331846FFF7BBFD034671
:104C200005AA19461046FFF707FE039B93F88E303E
:104C3000002B04D0039B93F88B308DF81430039B2A
:104C400093F88B308DF81030079BDB7B23F07F03CC
:104C5000DBB2002B0ED0079BDB7B03F04003DBB203
:104C6000002B14BF01230023DAB204AB114618460F
:104C7000FFF7E2FD039B986A079B1B7C03F0100380
:104C8000DBB2002B14BF01230023DAB29DF81030F1
:104C90008DF804309DF814308DF800309DF81830F0
:104CA000029901F0E2FC0346184609B05DF804FBE6
:104CB00000B58BB003900291039B5B6B002B01D17D
:104CC0000923B1E00299039801F05DFB0990099B6B
:104CD000002B01D10423A7E00299039800F042FBC6
:104CE000039B93F88A308DF81C30099B1B7C03F0E2
:104CF0000103DBB2002B04D007AB01211846FFF7FC
:104D000079FE099801F01AFC03468DF8183006ABBD
:104D10001846FFF73FFD03468DF82330039B93F8B9
:104D20008E30002B08D0039B03F18B0206AB11469B
:104D30001846FFF7B7FD0AE008AB0A211846FFF74F
:104D4000D1FC08AA06AB11461846FFF7ABFD9DF84B
:104D50002330002B1CD0099BDB7B23F07F03DBB2CD
:104D6000002B0AD0099BDB7B03F04003DBB2002B56
:104D700014BF01230023DBB205E0039B8B331846ED
:104D8000FFF708FD034606AA19461046FFF754FD33
:104D9000099801F0E7FB03468DF81430039B03F1FB
:104DA0008B0205AB11461846FFF77CFD05AB184694
:104DB000FFF7F0FC0346002B1CD0099BDB7B23F0A4
:104DC0007F03DBB2002B0AD0099BDB7B03F040039F
:104DD000DBB2002B14BF01230023DBB205E0039BF1
:104DE0008B331846FFF7D6FC034605AA1946104632
:104DF000FFF722FD039B986A099B1B7C03F01003BD
:104E0000DBB2002B14BF01230023DAB29DF814306B
:104E10008DF804309DF818308DF800309DF81C3066
:104E2000029901F042FC034618460BB05DF804FB02
:104E300010B584B001900091019B5B6B002B01D1F8
:104E400009230DE0019B9C6A03AB08211846FFF77C
:104E5000EAFA9DF80C200099204601F046FC034632
:104E6000184604B010BD00B585B001900091019BBB
:104E70005B6B002B01D109234DE00099019801F0F3
:104E800082FA0390039B002B01D1042343E0019B92
:104E90005B6B1B6808331B68019A506B039A52685E
:104EA000114698470290029B002B01D1042332E067
:104EB000029BDB7903F04003DBB2002B13D0039B92
:104EC000DB7B03F00203DBB2002B01D0002322E0E6
:104ED000039AD37B43F00803D3730099019800F041
:104EE000E5F8034617E0039A137C43F001031374BB
:104EF000039BDB7B03F00403DBB2002B06D0019B9A
:104F00000099184602F02DFE034604E0009901982E
:104F100000F097F80346184605B05DF804FB30B57D
:104F200085B00390029101920093039B184602F012
:104F30005CFE039803F010FE039803F018FE03983C
:104F400003F01BFE039B029A9A62039B019ADA62AA
:104F5000039B009A1A63039B00225A63039B383316
:104F60001846FFF7C4F9039B3E331846FFF7BFF915
:104F7000039B44331846FFF7F9F9039B5433184653
:104F8000FFF7F4F9039B64331846FFF7EFF9039B2F
:104F900074331846FFF7ABF9039B7A331846FFF7D3
:104FA000E5F9039B8A3300211846FFF794FC039B25
:104FB0008B330F211846FFF795FB039B002283F8E4
:104FC0008C20039B012283F88D20039B002283F811
:104FD0008E20039B903304241D46002C05DB2846BD
:104FE00001F04EFA1435013CF7E7039B9B6A0399E5
:104FF000184601F04CFC039B64330021184603F073
:1050000085FF034601221A70039B184605B030BD88
:1050100000B583B00190019B5B6B002B08D0019B16
:105020005B6B1B6804331B68019A526B10469847F0
:10503000019B184602F0F2FD019B184603B05DF893
:1050400004FB00B585B001900091019B5B6B002BC8
:1050500001D1092326E00099019801F094F9039009
:10506000039B002B01D104231CE0019B93F88A30A1
:105070008DF80830039B1B7C03F00103DBB2002B8F
:1050800014BF01230023DAB202AB11461846FFF722
:10509000B1FC019B9B6A9DF808200099184601F01D
:1050A00039FB0346184605B05DF804FB30B58BB0FC
:1050B00001900091019B5B6B002B01D1092351E012
:1050C0000099019801F05FF90990099B002B01D12B
:1050D000042347E0019B5B6B1B6808331B68019A44
:1050E000506B099A5268114698470890089B002B0C
:1050F00001D1042336E0099BDB7B03F00403DBB220
:10510000002B2AD0089BDB7903F00403DBB2002BD1
:105110001CD0019B5B6B1B6824331C68019B5D6B7F
:10512000124B06930023079302A806AB0CCB019900
:1051300003F0FBFE099B5A6802AB19462846A047BC
:1051400002AB184603F002FF00230BE0019B00991D
:10515000184602F006FD034604E000990198FFF7A7
:1051600070FF034618460BB030BD00BF71510200FE
:1051700030B589B0059004910392059B5B6B002BC1
:1051800005D140F2C6322B492B4811F045F804995D
:10519000059801F02CF90790079B002B45D0059B43
:1051A0005B6B1B6808331B68059A506B079A526843
:1051B000114698470690069B002B38D0039B002B86
:1051C00036D0069BDB7923F07F03DBB2002B11D0B6
:1051D000059B986A079B1968039A069BDB7903F085
:1051E0004003DBB2002B14BF01230023DBB201F02C
:1051F000BEFA1DE0059B986A079B1968039C039BF8
:1052000003F11205039B1033069AD27902F0400293
:10521000D2B2002A14BF01220022D2B2019200931E
:105220002B46224601F08BFA02E000BF00E000BFEF
:1052300009B030BDA46F0400F06F040010B588B051
:10524000059004910392059B5B6B002B05D140F206
:10525000DF322549254810F0DFFF0499059801F059
:10526000C6F80790079B002B38D0059B5B6B1B682B
:1052700008331B68059A506B079A52681146984785
:105280000690069B002B2BD0039B002B1DD0059B6B
:10529000986A079B1968039A069BDB7903F0400321
:1052A000DBB2002B14BF01230023DCB2069BDB79A9
:1052B00023F07F03DBB2002B14BF01230023DBB2FA
:1052C0000093234601F068FA0BE0059B9A6A079B5E
:1052D0001B681946104601F078FA02E000BF00E0B2
:1052E00000BF08B010BD00BFA46F0400F06F040041
:1052F00010B588B00590049103920499059801F0C7
:1053000076F80790079B002B27D0039B002B24D017
:10531000059B5B6B1B6808331B68059A506B079AEB
:105320005268114698470690069B002B17D0059BA4
:10533000986A079B1968039A069BDB7903F02003A0
:10534000DBB2002B14BF01230023DCB2039B1B69DB
:105350000093234601F04AFA02E000BF00E000BFDC
:1053600008B010BD00B585B001900091019B5B6B4A
:10537000002B05D140F226423249334810F04CFF51
:105380000099019800F0FFFF0390039B002B52D07F
:10539000019B5B6B1B6808331B68019A506B039A77
:1053A0005268114698470290029B002B45D0019B02
:1053B0008A331846FFF7E7FA0346002B10D0029A0B
:1053C000019B3E3319461046FEF7EFFF034603F0FC
:1053D0000103D9B2039A137C61F3041313742DE013
:1053E000039B1B7CC3F38003D9B2039A137C61F344
:1053F00004131374029A019B743319461046FEF786
:10540000D4FF0346002B0BD1039B03F10802019B41
:10541000743319461046FEF7C8FF0346002B01D02F
:10542000012300E00023002B08D0039A137C43F0F3
:105430001003137402E000BF00E000BF05B05DF888
:1054400004FB00BFA46F0400F06F040000B587B038
:105450000390029113468DF807300299039800F0EB
:1054600092FF0590059B002B15D09DF8073003F0A7
:105470000103D9B2059A137C61F3410313749DF8BB
:10548000073083F00103DBB2002B04D0059A137CB4
:105490006FF34513137400BF07B05DF804FB000001
:1054A00030B597B0039002918DF8043013468DF813
:1054B0000730039B5B6B002B05D14FF48B62614976
:1054C000614810F0A9FE0299039800F02BFF159097
:1054D000159B002B00F0B28005AB1C991846FFF716
:1054E00026F8159B083305AA92E8030018600433D8
:1054F00019809DF80730022B0CBF01230023D9B27D
:10550000159AD37B61F38203D373039B5B6B1B6898
:1055100058331C68039B5D6B07AB1A991846FFF75D
:1055200006F807AB1A469DF804102846A047024625
:10553000159B5A60039B5B6B1B6808331B68039ABF
:10554000506B159A526811469847149009AB1A99F6
:105550001846FEF7ECFF149B1A4609AB186810605A
:105560009B88938000240BAB00211846FEF7D1FEE8
:1055700001259DF82C109DF80400FEF705FF034659
:10558000002B0ED10CAB02211846FEF7C2FE0124FF
:105590009DF830109DF80400FEF7F6FE0346002B40
:1055A00001D0012300E0002303F00103D9B2149AD3
:1055B000D37961F30003D371002C002D00BF159B3C
:1055C000DB7B5BB2002B0ADA159BDB7B03F040032D
:1055D000DBB2002B14BF01230023DBB205E0039BE9
:1055E0008B331846FFF7D6F803468DF84F309DF8F9
:1055F0004F30002B23D0149BDB7903F00203DBB286
:10560000002B1CD0039B5B6B1B6820331C68039B27
:105610005D6B0E4B1193002312930DA811AB0CCBB5
:10562000039903F02EFC159B5A680DAB19462846CA
:10563000A0470DAB184603F035FC00E000BF17B0E3
:1056400030BD00BFA46F0400F06F0400F1520200EF
:1056500000B587B00390029113468DF80730039B85
:105660005B6B002B05D140F281421349134810F0C7
:10567000D3FD0299039800F086FE0590059B002B50
:1056800015D0039B9B6A0299184601F0C7F8039B4B
:105690005B6B1B6860331B68039A506B059A5268FA
:1056A000114698470599039800F0D5FE00E000BF29
:1056B00007B05DF804FB00BFA46F0400F06F0400A6
:1056C00010B586B0039002910192019B002B19D076
:1056D000039B9C6A019B9B7D03F00103DBB2002BC3
:1056E00001D0002200E0012205AB11461846FEF76A
:1056F00076FE019A019B06339DF81410204600F0B7
:105700009FFF00E000BF06B010BD00B587B003905A
:1057100002918DF8043013468DF80730039B93F8FF
:105720008D3083F00103DBB2002B0BD001AB1846A8
:10573000FFF729F9034683F00103DBB2002B01D008
:10574000012300E00023002B05D0039B029918469B
:1057500002F029FA2DE00299039800F014FE05905A
:10576000059B002B24D09DF82010059800F00EFF1B
:105770009DF82410059800F01FFF059A137C6FF325
:1057800041031374039B93F88C30002B0AD0039BC6
:10579000DB681B6808331B68039AD26802991046BD
:1057A000984706E0039B0299184602F0EBF900E0E7
:1057B00000BF07B05DF804FB30B587B003900291DD
:1057C0008DF80420002202990398FFF73FFE039B07
:1057D000DB681B680C331C68039BDD6801AB184653
:1057E00003F0C5FB034663F07F03DBB21A46029960
:1057F0002846A0470299039800F0C5FD0590059B37
:10580000002B1ED0059BDB7B03F00803DBB2002BD3
:1058100017D0059BDB7B03F01003DBB2002B10D00D
:10582000039BDB681B6814331C68039BDD6804ABB7
:1058300000211846FEF7E5FD9DF810200299284644
:10584000A04700BF07B030BD00B583B00190009104
:10585000002200990198FFF7F9FD019BDB681B68A6
:105860000C331B68019AD06801220099984700BF49
:1058700003B05DF804FB000030B58BB001900091DF
:10588000019B5B6B002B05D140F2015219491A486C
:1058900010F0C2FC0099019800F075FD0990099B79
:1058A000002B1AD0019B5B6B1B6838331C68019B73
:1058B0005D6B124B07930023089303A807AB0CCB37
:1058C000019903F05BFB099B5A6803AB1946284614
:1058D000A04703AB184603F062FB019BDB681B6823
:1058E0000C331B68019AD06800220099984700BFCA
:1058F0000BB030BDA46F0400F06F0400C15602006D
:1059000082B00190009100BF02B0704700B589B02D
:10591000039002918DF80420039B5B6B002B05D153
:1059200040F24B5239493A4810F076FC02990398FC
:1059300000F029FD0690069B002B60D0039B5B6B5B
:105940001B6808331B68039A506B069A526811460D
:1059500098470590059B002B53D000238DF81F30EE
:1059600001AB1846FFF70FF80346002B10D0059B3C
:10597000DB7923F07F03DBB2002B09D1039B8A3351
:105980001846FFF700F80346002B01D0012300E082
:105990000023002B02D001238DF81F3001AB1846E5
:1059A000FEF7E3FF0346002B08D0059BDB7903F0ED
:1059B0004003DBB2002B01D1012300E00023002BC8
:1059C00007D001238DF81F30069A137C43F00103A2
:1059D00013749DF81F30002B05D0039B02991846C5
:1059E00002F0BFF80EE0069BDB7B03F00803DBB29E
:1059F000002B07D102990398FFF758FB02E000BF84
:105A000000E000BF09B05DF804FB00BFA46F040014
:105A1000F06F040030B58BB0039002918DF8042034
:105A20000299039800F0AFFC0990099B002B00F04D
:105A3000958005AB02211846FEF7E3FC9DF8141093
:105A40009DF8040003F03FFA0346002B0FD0099A9B
:105A5000D37B6FF3C303D373099AD37B6FF3041320
:105A6000D373099AD37B43F02003D3736AE00024F5
:105A700006AB03211846FEF7C4FC01259DF818105B
:105A80009DF8040003F01FFA0346002B0ED107AB6C
:105A900004211846FEF7B5FC01249DF81C109DF862
:105AA000040003F010FA0346002B01D0012300E0AC
:105AB0000023002C002D002B14D0099AD37B6FF308
:105AC000C303D373099AD37B6FF30413D373099A77
:105AD000D37B43F00203D373099AD37B43F02003B3
:105AE000D3732FE008AB00211846FEF78AFC01248F
:105AF0009DF820109DF8040003F0E5F90346002B03
:105B00000FD0099BDB7B03F00803DBB2002B08D02E
:105B1000099BDB7B03F01003DBB2002B01D10123D7
:105B200000E00023002C002B0CD0039A099B1B687B
:105B30001946104602F015F8099AD37B43F010037A
:105B4000D3730CE0039BDB681B6814331B68039A58
:105B5000D0689DF804200299984700E000BF0BB080
:105B600030BD30B585B001900091019BDB681B68AA
:105B700014331C68019BDD6803AB00211846FEF757
:105B800040FC9DF80C2000992846A04700BF05B0B6
:105B900030BD30B587B00390029101920122029985
:105BA0000398FFF753FC039BDB681B6818331C68E2
:105BB000039BDD6804AB01991846FEF759FC04AB62
:105BC0001846FEF7AEFC03461A4602992846A0473F
:105BD00000BF07B030BD00B585B0039002911346F9
:105BE0008DF80730012202990398FFF72FFC039BE1
:105BF000DB681B6824331B68039AD0689DF8072074
:105C00000299984700BF05B05DF804FB00B583B06A
:105C100001900091012200990198FFF717FC019B68
:105C2000DB681B6820331B68019AD2680099104614
:105C3000984700BF03B05DF804FB00B583B0019046
:105C40000091012200990198FFF700FC019BDB689D
:105C50001B681C331B68019AD2680099104698474C
:105C600000BF03B05DF804FB10B588B0039002914B
:105C7000012202990398FFF7E9FB0299039800F0CB
:105C800082FB0790079B002B3BD0039B5B6B1B6841
:105C900008331B68039A506B079A5268114698475D
:105CA0000690069B002B2ED0069A039B3E33194686
:105CB0001046FEF77AFB0346002B14D0039B986A2C
:105CC000039B03F16402039B03F14401039B5433E0
:105CD00000930B46029900F0B2FD039B3E33184639
:105CE00003F06EF910E0039B9C6A05AB0221184695
:105CF000FEF799FB9DF814200299204600F0F5FC70
:105D000002E000BF00E000BF08B010BD00B585B0E4
:105D100001900091019B5B6B002B05D140F2DD529D
:105D20003749384810F078FA0099019800F02BFBB9
:105D30000390039B002B5DD0019B5B6B1B680833BA
:105D40001B68019A506B039A52681146984702905B
:105D5000029B002B50D0029A019B743319461046C7
:105D6000FEF723FB0346002B0BD1039B03F1080234
:105D7000019B743319461046FEF717FB0346002BB0
:105D800001D0012300E00023002B1CD00122009948
:105D90000198FFF75BFB019B986A019B7A331A46D7
:105DA000009900F061FD029A019B74331946104678
:105DB000FEF7FBFA0346002B1FD0019B74331846F5
:105DC00003F0FEF819E0039B1B7C03F02003DBB219
:105DD000002B12D1039A137C43F020031374019B10
:105DE000DB681B6828331B68019AD268009910464B
:105DF000984702E000BF00E000BF05B05DF804FB7B
:105E0000A46F0400F06F040000B587B00390029106
:105E10000192039B5B6B002B05D140F20D6223497D
:105E2000234810F0F9F90299039800F0ACFA0590B4
:105E3000059B002B34D0039B5B6B1B6808331B68EE
:105E4000039A506B059A5268114698470490049B38
:105E5000002B27D0059B1B7CC3F34003D9B2049AC7
:105E6000D37961F38613D371049AD37943F0800315
:105E7000D371039B5B6B1B6828331B68039A506BC1
:105E8000059A5168019A9847039B5B6B1B6818330E
:105E90001B68039A506B059A5168019A984702E073
:105EA00000BF00E000BF07B05DF804FBA46F040072
:105EB000F06F040000B587B0039002910192039B3C
:105EC0005B6B002B05D140F224621B491B4810F08C
:105ED000A3F90299039800F056FA0590059B002B50
:105EE00024D0039B5B6B1B6808331B68039A506BC1
:105EF000059A5268114698470490049B002B17D0CE
:105F0000059B1B7CC3F34003D9B2049AD37961F398
:105F10008613D371039B5B6B1B6828331B68039A42
:105F2000506B059A5168019A984702E000BF00E063
:105F300000BF07B05DF804FBA46F0400F06F04001D
:105F400010B586B00390029101920093039B5B6BA6
:105F5000002B05D140F23A620D490E4810F05CF971
:105F60000299039800F00FFA0590059B002B0CD0C6
:105F7000039B5B6B1B682C331C68039B586B059B56
:105F80005968009B019AA04700E000BF06B010BD11
:105F9000A46F0400F06F040000B587B00390029175
:105FA0000192039B5B6B002B05D14FF4C96216492C
:105FB000164810F031F90299039800F0E4F90590C1
:105FC000059B002B1AD0039B5B6B1B6808331B6877
:105FD000039A506B059A5268114698470490049BA7
:105FE000002B0DD0039B5B6B1B6818331B68039A57
:105FF000506B059A5168019A984702E000BF00E093
:1060000000BF07B05DF804FBA46F0400F06F04004C
:1060100010B586B00390029101920093039B5B6BD5
:10602000002B05D140F25C620D490E4810F0F4F8E7
:106030000299039800F0A7F90590059B002B0CD05E
:10604000039B5B6B1B681C331C68039B586B059B95
:106050005968009B019AA04700E000BF06B010BD40
:10606000A46F0400F06F040000B587B003900291A4
:106070000192039B5B6B002B05D140F26A621649CB
:10608000164810F0C9F80299039800F07CF90590C1
:10609000059B002B1AD0039B5B6B1B6808331B68A6
:1060A000039A506B059A5268114698470490049BD6
:1060B000002B0DD0039B5B6B1B6830331B68039A6E
:1060C000506B059A5168019A984702E000BF00E0C2
:1060D00000BF07B05DF804FBA46F0400F06F04007C
:1060E00070B586B0039002918DF804200093039B55
:1060F0005B6B002B05D140F27E621549154810F00C
:106100008BF80299039800F03EF90590059B002B4F
:106110001AD0039B5B6B1B6834331C68039B5D6B5D
:10612000059B5E6804AB00211846FEF758F99DF800
:1061300010109DF8040002F0FEFC03461A46009B76
:1061400031462846A04700E000BF06B070BD00BF42
:10615000A46F0400F06F040010B586B003900291A4
:106160000192039B5B6B002B05D14FF4D262254952
:10617000254810F051F80299039800F004F90590B1
:10618000059B002B38D0039B5B6B1B6808331B6897
:10619000039A506B059A5268114698470490049BE5
:1061A000002B2BD0059B1B7CC3F34003D9B2049A70
:1061B000D37961F34513D371039B5B6B1B68403349
:1061C0001B68039A506B059A5168019A9847039B84
:1061D000DB681B6834331C68039BD868049BDB793D
:1061E00003F02003DBB2002B14BF01230023DBB23A
:1061F000019A0299A04702E000BF00E000BF06B08C
:1062000010BD00BFA46F0400F06F040030B58FB064
:106210000590049103920293059B5B6B002B05D1C3
:1062200040F2AB621E491F480FF0F6FF0499059833
:1062300000F0A9F80D900D9B002B2CD0059B5B6BFB
:106240001B6808331B68059A506B0D9A52681146FB
:1062500098470C900C9B002B1FD0059B5B6B1B6819
:1062600010331C68059B5D6B0F4B0A9300230B9347
:1062700006A80AAB0CCB059902F057FE0D9B5A6895
:1062800006A9029B0093039B2846A04706AB18462D
:1062900002F05CFE02E000BF00E000BF0FB030BDC6
:1062A000A46F0400F06F04003D52020030B58BB0C3
:1062B00001900091019B5B6B002B05D14FF4DB62D9
:1062C000154916480FF0A8FF0099019800F05BF8F7
:1062D0000990099B002B1BD0019B5B6B1B6814333F
:1062E0001C68019B5D6B0E4B07930023089303A86A
:1062F00007AB0CCB019902F018FE099B5A6803AB5F
:1063000019462846A04703AB184602F01FFE00E0DE
:1063100000BF0BB030BD00BFA46F0400F06F0400DD
:106320003D52020084B00190009100230393039B2F
:10633000042B24D80199039A13469B0013449B0015
:106340000B449833DB79C3F30003DBB2002B12D18B
:10635000039A13469B0013449B009033019A134405
:106360000293029AD37B43F00103D373029B009AFA
:106370001A60029B04E0039B01330393D7E70023D9
:10638000184604B0704784B0019000910023039335
:10639000039B042B27D80199039A13469B001344AF
:1063A0009B000B449833DB79C3F30003DBB2002B73
:1063B00014D00199039A13469B0013449B000B448D
:1063C00090331A68009B9A4209D1039A13469B00A6
:1063D00013449B009033019A134405E000BF039BD4
:1063E00001330393D4E70023184604B0704784B008
:1063F0000190009100230393039B042B27D801995C
:10640000039A13469B0013449B000B449833DB799B
:10641000C3F30003DBB2002B14D00199039A134697
:106420009B0013449B000B4494331A68009B9A42D0
:1064300009D1039A13469B0013449B009033019AA1
:10644000134405E000BF039B01330393D4E700230B
:10645000184604B0704730B589B00190009103AB85
:10646000184600F00DF8009B1D4603AC0FCC2860C9
:106470006960AA60EB6023782B7400BF09B030BD5F
:1064800000B583B00190019B00221A60019B00229D
:106490005A60019B08331846FDF729FF019AD37B08
:1064A0006FF30003D373019AD37B6FF34103D3736C
:1064B000019AD37B6FF38203D373019AD37B6FF37B
:1064C000C303D373019AD37B6FF30413D373019A7D
:1064D000D37B6FF34513D373019AD37B6FF386138A
:1064E000D373019AD37B6FF3C713D373019A137CD1
:1064F0006FF300031374019A137C6FF34103137459
:10650000019A137C6FF382031374019A137C6FF367
:10651000C3031374019A137C6FF304131374019A69
:10652000137C6FF345131374019A137C6FF3871375
:106530001374019B184603B05DF804FB00B585B0E9
:106540000190019B9B7BC3F30303DBB21A4603ABB1
:1065500011461846FEF7C6F89DF80C30184605B0EF
:106560005DF804FB00B585B00190019B9B7BC3F3F4
:106570000313DBB21A4603AB11461846FEF7B2F816
:106580009DF80C30184605B05DF804FB00B583B0EB
:1065900001908DF800106B461846FEF795F90346FA
:1065A00003F00F03D9B2019A937B61F30303937352
:1065B00000BF03B05DF804FB00B583B001908DF817
:1065C00000106B461846FEF77FF9034603F00F03F1
:1065D000D9B2019A937B61F30713937300BF03B0A1
:1065E0005DF804FB82B00190019B184602B0704731
:1065F00000B583B00190019802F0F6FC019B0022E7
:106600001A60019B184603B05DF804FB00B583B027
:106610000190019802F0EEFC019B184603B05DF872
:1066200004FB00B583B001900198FFF7DBFF034640
:10663000184600F082F90346184603B05DF804FBE3
:1066400000B585B003908DF808100192009303986F
:10665000FFF7C8FF009B019A9DF8081000F078F939
:106660000346184605B05DF804FB00B587B00590F9
:1066700004918DF80C3013468DF80F300598FFF714
:10668000B1FF9DF80F209DF824308DF804309DF85F
:1066900020308DF800309DF80C30049900F0BAF9E4
:1066A0000346184607B05DF804FB00B587B00590B7
:1066B00004918DF80C3013468DF80F300598FFF7D4
:1066C00091FF9DF80F209DF824308DF804309DF83F
:1066D00020308DF800309DF80C30049900F0E9F975
:1066E0000346184607B05DF804FB00B585B003907B
:1066F00002918DF804200398FFF774FF03469DF87C
:1067000004200299184600F039FA0346184605B0ED
:106710005DF804FB00B585B0039002918DF804206C
:106720000398FFF75FFF03469DF80420029918467F
:1067300000F079FA0346184605B05DF804FB00B591
:1067400087B005900491039202930598FFF74AFFE2
:106750009DF824300193089B0093029B039A0499AF
:1067600000F0B3FA0346184607B05DF804FB00B525
:1067700085B00390029101928DF803300398FFF7E2
:1067800031FF9DF80330019A029900F0F6FA0346B2
:10679000184605B05DF804FB00B587B0059004917C
:1067A00003928DF80B300598FFF71CFF9DF80B2026
:1067B0009DF8203000931346039A049900F022FBC1
:1067C0000346184607B05DF804FB00B583B001909E
:1067D00000910198FFF706FF03460099184600F064
:1067E00056FB0346184603B05DF804FB00B587B0BE
:1067F0000590049103928DF80B300598FFF7F2FE97
:106800009DF80B20089B00931346039A049900F00F
:1068100052FB0346184607B05DF804FB00B583B091
:10682000019000910198FFF7DDFE0346009918469C
:1068300000F04BFB0346184603B05DF804FB00B5BF
:1068400087B005900491039202930598FFF7CAFE62
:10685000089B0093029B039A049900F03DFB0346BA
:10686000184607B05DF804FB00B585B003900291AF
:1068700001920398FFF7B6FE0346019A0299184663
:1068800000F0A9FB0346184605B05DF804FB82B092
:1068900001900091019B009A1A6000BF02B07047FE
:1068A00082B00190019B1B68184602B0704700B58A
:1068B00083B00190019B1846FFF79AFE019B0433B9
:1068C0001846FDF753FD019B00225A61019B1833C6
:1068D00003211846FDF7B9FD019B07225A76019B5B
:1068E00010229A76019B0022DA61019B2033184620
:1068F00002F086FB019B4033184602F081FB019BAE
:106900006033184602F07CFB019B0022C3F8802014
:10691000019B184603B05DF804FB00B583B00190FD
:10692000019B1846FFF77DFE019B1846FFF76EFEA0
:10693000019B184603B05DF804FB00B583B00190DD
:10694000019801F0FCF80023184603B05DF804FB41
:1069500030B587B003908DF8081001920093039B27
:10696000D3F88030072B01D906233EE0039BD3F8F0
:10697000802013465B001344DB009B1A8033039A8C
:1069800013440433059302AB184602F047FB034659
:1069900003F07F03D9B2059A137C61F347031374A4
:1069A000059B03F11104019B184602F03EFB0546CE
:1069B00002F041FB03461A46294620461BF040FFE1
:1069C000059C009802F03AFB054602F0A8FA03463F
:1069D0001A46294620461BF033FF039BD3F880302C
:1069E0005A1C039BC3F880200023184607B030BD13
:1069F00000B583B001900091009B03F18401009BDE
:106A0000D3F880301A46019802F01EFB019803B0BB
:106A10005DF804FB00B58BB0059004918DF80C3047
:106A200013468DF80F300499059801F019F8099074
:106A3000099B002B01D1072337E0099B00221A7222
:106A400000210CA8FDF7F8FE0DAB00211846FDF75C
:106A5000F3FE00210CA8FDF70AFF0DAB002118463C
:106A6000FDF705FF06A89DF80F209DF834308DF83E
:106A700004309DF830308DF800309DF80C300599C9
:106A800000F0B2FE049B9BB206AA11461846FDF721
:106A900073FD0890089B002B03D00999059801F01D
:106AA00009F80898FDF7F7FF034618460BB05DF8A4
:106AB00004FB10B594B0059004918DF80C3013468A
:106AC0008DF80F300499059800F0CAFF1390139BBE
:106AD000002B0DD1059C11AB08211846FDF7A3FC36
:106AE0009DF8442004992046FFF7FFFD072342E06C
:106AF000139B01221A72002116A8FDF79DFE17AB09
:106B000000211846FDF798FE002116A8FDF7AFFEFC
:106B100017AB00211846FDF7AAFE0FA89DF80F201D
:106B20009DF85C308DF804309DF858308DF80030B9
:106B30009DF80C30059900F057FE07A89DF85C30D1
:106B40008DF800309DF85830139A059900F012FF27
:106B5000049B98B207AB0FAA0021FDF711FD12901C
:106B6000129B002B03D01399059800F0A3FF1298F5
:106B7000FDF791FF0346184614B010BD10B588B05C
:106B8000039002918DF80420002307930299039843
:106B900000F0BDFF0690069B002B35D1002006F0CB
:106BA0004CFD024613681C331B68104698470DF1D4
:106BB00017031A46029905F0C8F80346002B14BFC4
:106BC00001230023DBB2002B01D0042328E09DF831
:106BD0001730012B10D1029B9CB201AB184602F07A
:106BE000C6F9034663F07F03D9B200230022204692
:106BF000FDF7C6FC07900FE0029B9BB200211846F0
:106C0000FDF7BAFC079007E0029B9BB2002200212F
:106C10001846FDF7B9FC07900798FDF73CFF0346BF
:106C2000184608B010BD00B589B0039002918DF8E8
:106C3000042005AB00221A601A7101AB1846FDF75B
:106C400086FE034603F00103DAB29DF8143062F3C6
:106C500000038DF8143001AB1846FDF786FE03469D
:106C600003F00103DAB29DF8143062F341038DF8AA
:106C7000143001AB1846FDF786FE034603F001030E
:106C8000DAB29DF8143062F382038DF8143001AB50
:106C90001846FDF786FE034603F00103DAB29DF8BD
:106CA000143062F3C3038DF81430029B9BB205AA23
:106CB00011461846FDF760FC07900798FDF7EBFEBC
:106CC0000346184609B05DF804FB10B58EB003907A
:106CD000029101920093009802F0C4F9044602F078
:106CE00021F902460AAB0233214618461BF0A8FDE3
:106CF000109802F0BDF9044602F0C0F902460AAB52
:106D0000214618461BF09CFD019802F097F90446B5
:106D100002F005F9024605AB214618461BF090FD2E
:106D20009DF824306FF300038DF824309DF8443033
:106D300003F00103DAB29DF8243062F341038DF8C9
:106D4000243002F0ECF80346DBB203F03F03DAB282
:106D50009DF8243062F387038DF82430029B9BB2A8
:106D600005AA0AA91846FDF71BFC0D900D98FDF722
:106D700092FE034618460EB010BD10B58EB00390BB
:106D8000029101928DF803300AAB00221A605A601A
:106D90001A81019802F052F9044602F0C0F8024646
:106DA00005AB214618461BF04BFD9DF8243043F0FF
:106DB00001038DF824309DF8033003F00103DAB2AB
:106DC0009DF8243062F341038DF8243002F0A7F8D7
:106DD0000346DBB203F03F03DAB29DF8243062F3DE
:106DE00087038DF82430029B9BB205AA0AA9184696
:106DF000FDF7D6FB0D900D98FDF74DFE03461846A6
:106E00000EB010BD10B58AB00390029101928DF8BA
:106E10000330019802F012F9044602F080F80246AD
:106E200004AB214618461BF00BFD9DF8303003F0F3
:106E30000103DAB29DF8203062F300038DF82030B0
:106E40009DF8033003F00103DAB29DF8203062F3BD
:106E500041038DF8203002F062F80346DBB203F004
:106E60003F03DAB29DF8203062F387038DF82030BB
:106E7000029B98B204A900230022FDF795FB09901C
:106E80000998FDF708FE034618460AB010BD00B584
:106E900085B001900091009B98B200230022002150
:106EA000FDF782FB03900398FDF7F5FD03461846B6
:106EB00005B05DF804FB84B00390029101928DF857
:106EC00003300223184604B0704782B0019000914D
:106ED0000223184602B0704710B5A0B0039002918B
:106EE0000192009319AB1846FDF740FA02990398F6
:106EF00000F00DFE1E901E9B002B01D1062367E0C3
:106F000000238DF87F3019AB1946019802F0B9F8CB
:106F10000346002B0FD001238DF87F30019802F03B
:106F20008DF8044601F0FBFF02460FAB0733214604
:106F300018461BF085FC00238DF87E3019AB1946EE
:106F4000009802F09EF80346002B09D019AB1946B1
:106F5000229802F096F80346002B01D0012300E0AE
:106F60000023002B1CD001238DF87E30009802F006
:106F700065F8044601F0D3FF024605AB073321460E
:106F800018461BF05DFC229802F058F8044601F008
:106F9000C6FF024605AB1733214618461BF050FCCE
:106FA000029B98B29DF87F30002B01D00FA900E022
:106FB00000219DF87E30002B01D005AB00E00023BE
:106FC0001A46FDF7E9FA1D901D98FDF764FD03468A
:106FD000184620B010BD10B586B003900291019202
:106FE000029B9CB2019802F029F803461A4602213E
:106FF0002046FDF7C9FA05900598FDF74CFD0346BC
:10700000184606B010BD000008B5134B1B78BFF33F
:107010005B8FDBB203F00103002B0CBF01230023C5
:10702000DBB2002B15D00C480FF0D0FE0346002B2E
:1070300014BF01230023DBB2002B0AD00748FFF75F
:1070400036FC05480FF00EFF054A064903480FF0CD
:1070500090FE024B184608BDF43F0020B83E0020C9
:10706000B03200201B69020070B5CAB003AB1860D3
:1070700002AB1960FFF7C8FF4990499B1846FFF71C
:107080000FFC489002AB1B68002B02D0489B002BE2
:1070900001D10023A4E302AB1B6804334793479B51
:1070A0001B88ADF81A31BDF81A311946499800F01D
:1070B0002EFD459002AB1B681B88133B0B2B00F287
:1070C0008E8301A252F823F0F9700200D5720200FB
:1070D00033730200897302009D730200D5730200AE
:1070E00079740200F37602004F770200DF77020026
:1070F000DF7702006B770200479B04334493449B85
:107100001B7903F00103DBB2002B14BF0123002322
:10711000D9B2449B1B7903F00203DBB2002B14BFEE
:1071200001230023DAB2449B1B7903F00403DBB292
:10713000002B14BF01230023DCB2449B1B7903F016
:107140000803DBB2002B14BF01230023DBB210A81D
:1071500000932346FDF7D3FA449BDB7803F0010349
:10716000DBB2002B14BF01230023D9B2449BDB7890
:1071700003F00203DBB2002B14BF01230023DAB2B9
:10718000449BDB7803F00403DBB2002B14BF012324
:107190000023DCB2449BDB7803F00803DBB2002B56
:1071A00014BF01230023DBB20FA800932346FDF791
:1071B000A6FA459B002B41D0459B1B7A002B3DD165
:1071C00010AB00211846FDF737FB0FAB0021184626
:1071D000FDF732FB10AB00211846FDF748FB0FAB63
:1071E00000211846FDF743FB04A803A99DF83C3095
:1071F0008DF800309DF84030459A096800F0BAFBE0
:1072000004ABBDF81A0100220021FDF7B9F9439043
:10721000439B002B5BD003AB4599186800F04AFCF8
:10722000BDF81A4111AB08211846FDF7FCF89DF88E
:1072300044202146489801F04CFF48E0BDF81A412F
:10724000449B1B7823F07F03DBB2002B14BF012388
:107250000023DDB2449B1B7803F00103DBB2002B5B
:1072600014BF01230023D9B2449B1B7803F002030F
:10727000DBB2002B14BF01230023DAB2449B1B783E
:1072800003F00403DBB2002B14BF01230023DEB2A2
:10729000449B1B7803F00803DBB2002B14BF0123CF
:1072A0000023DBB212A800933346FDF721FB9DF8C3
:1072B0003C308DF804309DF840308DF800309DF85A
:1072C00048302A462146489801F017FF00E000BFE9
:1072D000012385E2479B04334293429B1A89429BD8
:1072E0000A3319461046FDF70DFC0346002B18D053
:1072F000BDF81A41429B03F1080213AB1146184630
:1073000001F01AFF429B03F10A0214AB1146184622
:1073100001F021FF14AB13AA2146489801F02AFF7F
:1073200005E0BDF81A311946489801F035FF0123F0
:1073300056E2479B04334193419B9B7903F0010341
:10734000DBB2002B0CD1BDF81A41419B1846FDF76A
:10735000C3F803461A462146489801F02DFF11E074
:10736000BDF81A41419B1846FDF7B6F803461A4688
:107370002146489801F020FFBDF81A311946489877
:1073800001F02CFF01232BE2BDF81A11479B1B795A
:107390001A46489801F032FF012321E2479B1B79EE
:1073A0008DF803319DF80331012B03D0022B08D057
:1073B000002B0DE0BDF81A311946489801F032FF54
:1073C00006E0BDF81A311946489801F03BFF00BFAE
:1073D000012305E2479B04333F934FF440700FF0C5
:1073E00073FD03461C46204603F0D2FC3E943F9BAF
:1073F0001B68184601F036FF034616933F9B1B6837
:107400002033184601F02EFF0346179303AB1B6889
:107410006033184601F034FF0346189304AA19ABF1
:107420001146184601F03FFF18A817AA16A9199B84
:10743000009303463E9803F0F0FC3E9C002C05D0E0
:10744000204603F0D1FC20460FF066FD04AABDF8EB
:107450001A3111461846FDF79BF83F9B1B7903F044
:107460000103DBB2002B05D0BDF81A31194648984C
:1074700001F023FF0123B3E1479B04333D933D9B80
:107480001B78012B00F00281012B02DC002B05D0C0
:1074900028E1813B0D2B00F225810CE10EAB184653
:1074A000FDF717F90DAB1846FDF713F9459B1B7A4D
:1074B000002B08D1459B5B7A8DF83830459B9B7A31
:1074C0008DF8343007E0459B9B7A8DF83830459B2A
:1074D0005B7A8DF83430459BDA8B459B2033194617
:1074E0001046FDF70FFB0346002B5ED00EAB18468F
:1074F000FDF734F90346002B27D0BDF81A41459B10
:1075000003F10C021AAB1146184601F0D3FD1AAB79
:107510001A462146489801F0E0FEBDF81A41459B05
:1075200003F11E021EAB1146184601F005FE459BF5
:1075300003F120021FAB1146184601F00CFE1FABF1
:107540001EAA2146489801F0DAFE0DAB1846FDF759
:1075500005F90346002B38D0BDF81A41459B03F1CD
:10756000900221AB1146184601F0A4FD21AB1A464A
:107570002146489801F0D5FEBDF81A41459B03F11C
:10758000A20225AB1146184601F0D6FD459B03F13A
:10759000A40226AB1146184601F0DDFD26AB25AA54
:1075A0002146489801F0CFFE0FE0BDF81A41459BF7
:1075B00003F10C0228AB1146184601F07BFD28AB05
:1075C0001A462146489801F0D0FE0DAB1846FDF74B
:1075D000D3F80346002B36D0BDF81A41459B03F182
:1075E000AC022CAB1146184601F064FD2CAB1A46D8
:1075F0002146489801F0CBFE0CAB00211846FCF761
:10760000EEFE459B93F8BC3023F00103DBB2002B68
:1076100008D030AB01211846FCF7E1FE9DF8C030E0
:107620008DF83030BDF81A41459B03F1BD0231ABF6
:1076300011461846FCF77BFF31AB9DF83020214600
:10764000489801F0B6FE0DAB1846FDF7A3F80346C7
:10765000002B0FD0BDF81A41459B03F1C30233AB99
:107660001146184601F026FD33AB1A4621464898CC
:1076700001F0B3FE4599499800F01CFABDF81A31A3
:107680001946489801F0BBFE00BF30E0459B002B37
:1076900006D1BDF81A311946489801F0C0FE26E01F
:1076A0004599499800F006FABDF81A3119464898EC
:1076B00001F0C5FE1BE04599499800F0FBF9BDF8C3
:1076C0001A413D9B1B7803F00F03DAB237AB11462A
:1076D0001846FCF7A8FE9DF8DC202146489801F0EA
:1076E000F8FC04E04599499800F0E4F900BF012353
:1076F00076E0479B04333C933C9B1B7803F00F03DD
:10770000DBB2012B14D13C9B1B78C3F30313DBB218
:10771000012B0DDDBDF81A4138AB02211846FCF7EC
:1077200070FE9DF8E0202146489801F098FE0CE09C
:10773000BDF81A4139AB00211846FCF762FE9DF8EE
:10774000E4202146489801F08AFE012348E0479B47
:107750001B79032B07D1BDF81A311946489801F05F
:1077600092FE01233CE000233AE0479B04333B9325
:10777000BDF81A413B9B1B7803F00103DBB2002BE1
:1077800014BF01230023D9B23B9B1B7803F00203F3
:10779000DBB2002B14BF01230023DAB23B9B1B7822
:1077A00003F00403DBB2002B14BF01230023DDB27E
:1077B0003B9B1B7803F00803DBB2002B14BF0123B3
:1077C0000023DBB23AA800932B46FDF791F89DF811
:1077D000E8202146489801F066FE012300E00023DE
:1077E00018464AB070BD00BF00B585B00390029145
:1077F0008DF8043013468DF8073001AB1846FDF7BD
:10780000A6F8034603F00103D9B2039A137861F393
:107810000003137001AB1846FDF7A7F8034603F009
:107820000103D9B2039A137861F34103137001ABDA
:107830001846FDF7A8F8034603F00103D9B2039AEE
:10784000137861F38203137001AB1846FDF7A9F8B2
:10785000034603F00103D9B2039A137861F3C3031B
:107860001370029B1833184601F031FE034603F0F3
:107870000703D9B2039A137861F3061313709DF8C6
:10788000073003F00103D9B2039A137861F3C713E9
:107890001370029B5A7E039B5A70029B9A7E039B35
:1078A0009A7007AB1846FCF759FF034603F0010333
:1078B000D9B2039AD37861F30003D37007AB1846AB
:1078C000FCF75AFF034603F00103D9B2039AD378B9
:1078D00061F34103D37007AB1846FCF75BFF034627
:1078E00003F00103D9B2039AD37861F38203D37012
:1078F00007AB1846FCF75CFF034603F00103D9B25F
:10790000039AD37861F3C303D37006A8FCF726FF6C
:10791000034603F00103D9B2039A137961F300031C
:10792000137106A8FCF728FF034603F00103D9B240
:10793000039A137961F34103137106A8FCF72AFF38
:10794000034603F00103D9B2039A137961F382036A
:10795000137106A8FCF72CFF034603F00103D9B20C
:10796000039A137961F3C303137100BF039805B041
:107970005DF804FB30B585B00390029101928DF85B
:107980000030019B9DF800205A72019B9DF8202039
:107990009A72019B03F10C02039B1A60019B03F195
:1079A0002802039B5A60019B03F13F02039B9A60EC
:1079B000019B03F14F02039BDA60019B03F19002EC
:1079C000039B1A61019B03F1AC02039B5A61019B6B
:1079D00003F1C302039B9A61019B03F1D302039B52
:1079E000DA61039B9B68002B10D0039B9B681C46AD
:1079F000029B0433184601F077FA054601F08FFA2E
:107A000003461A46294620461AF01AFF019B03F145
:107A10004F04029B2033184601F046FB054601F057
:107A200040FB03461A46294620461AF009FF019BEF
:107A300003F14F0401F035FB03461C44029B403325
:107A4000184601F031FB054601F02BFB03461A46B0
:107A5000294620461AF0F4FE00BF039805B030BD59
:107A600010B584B00190009111494FF48A700FF065
:107A700047FA0446002C0BD020464FF48A731A466E
:107A800000211AF0DBFF204601F082F8234600E0D7
:107A900023460393039B002B06D0019BDA69039BCB
:107AA0001A60019B039ADA61039B184604B010BD6B
:107AB000D48A040000B585B001900091019BDA6979
:107AC000009B9A4208D1019BDB691A68019BDA612D
:107AD00000980FF021FA17E0019BDB690393039BE9
:107AE0001B68002B10D0039B1A68009B9A4207D199
:107AF000009B1A68039B1A6000980FF00DFA03E0D0
:107B0000039B1B680393EAE705B05DF804FB84B0B0
:107B100001900091019BDB690393039B002B0AD02A
:107B2000039B5A68009B9A4201D1039B04E0039B8C
:107B30001B680393F1E70023184604B0704700B5B3
:107B400083B00190019BDB69002B06D0019BDB69B0
:107B500019460198FFF7AEFFF4E700BF03B05DF8E8
:107B600004FB00B583B001900091019801F062F927
:107B7000034600991846FCF7E5FF0346184603B094
:107B80005DF804FB00B583B001900091019801F00D
:107B900051F9034600991846FDF78AF8034618463E
:107BA00003B05DF804FB00B583B00190009101982B
:107BB00001F040F9034600991846FDF739F90346EC
:107BC000184603B05DF804FB00B583B00190009146
:107BD000019801F02FF9034600991846FDF743F983
:107BE0000346184603B05DF804FB00B583B001906E
:107BF000019801F073FC019B184601F081FC019B88
:107C00001033184600F01CF8019B03F11002019B91
:107C1000DA60019B184603B05DF804FB00B583B041
:107C20000190019B1033184600F0C4FF019B1846D9
:107C300001F07AFC019B184603B05DF804FB0000DC
:107C400000B583B00190019B184600F095F80B4AEF
:107C5000019B1A60019B00225A60019B00229A60DE
:107C6000019B0022DA60019B00221A61019B002225
:107C70005A61019B184603B05DF804FB14720400BE
:107C800000B585B00390029113468DF80730039B31
:107C90009B68002B06D0039B9B689DF8072011462C
:107CA0000298984700BF05B05DF804FB30B589B075
:107CB000039002918DF80420039BDB68002B45D0D4
:107CC00005AB02211846FCF79CFB9DF814109DF8AB
:107CD000040001F0F8F80346002B03D002238DF8CE
:107CE0001F302CE0002406AB03211846FCF789FB6B
:107CF00001259DF818109DF8040001F0E4F80346F2
:107D0000002B0ED107AB04211846FCF77AFB0124A7
:107D10009DF81C109DF8040001F0D5F80346002BD7
:107D200001D0012300E00023002C002D002B03D004
:107D300003238DF81F3002E001238DF81F30039BD1
:107D4000DB689DF81F2011460298984700BF09B0D4
:107D500030BD00B585B0039002910192039B5B6931
:107D6000002B04D0039B5B6901990298984700BFE0
:107D700005B05DF804FB000082B00190034A019B4E
:107D80001A60019B184602B0704700BF547204008D
:107D900082B00190034A019B1A60019B184602B011
:107DA000704700BF5472040000B583B00190019881
:107DB000FFF7EEFF01980FF0AFF8019B184603B0F4
:107DC0005DF804FB82B00190009100BF02B07047E3
:107DD00084B00390029113468DF8073000BF04B0C1
:107DE000704782B00190009100BF02B0704784B02C
:107DF000039002918DF8042000BF04B0704784B056
:107E000003900291019200BF04B0704782B00190CC
:107E1000009100BF02B0704782B00190009100BF96
:107E200002B0704784B00390029113468DF807307A
:107E300000BF04B0704782B00190009100BF02B053
:107E4000704784B003900291019200BF04B0704764
:107E500084B0039002910192009300BF04B0704778
:107E600084B00390029101928DF8033000BF04B0FA
:107E70007047000010B58EB001900091019B18462C
:107E800000F0A2FB019800F0B5FE019800F0B8FEEA
:107E9000019B009A5A63019B38330021184600F079
:107EA000D2FD019B0022DA64019B00221A65019B2E
:107EB000002283F85420019B5B6B1C46164B0693F3
:107EC0000023079302A806AB0CCB019901F06AFBD3
:107ED00002AB1946204601F0A3FB02AB184601F0A5
:107EE00072FB019B5B6B1C460C4B0C9300230D93A8
:107EF00008A80CAB0CCB019901F0A0FB08AB19460C
:107F0000204601F0D9FB08AB184601F0A8FB019B05
:107F100018460EB010BD00BFC57F0200558102009B
:107F200000B583B00190019B184600F02BFB019B2C
:107F3000012283F85420019B1B6D002B0AD0019B6A
:107F40001B6D1B6810331B68019A126D0199104656
:107F50009847F0E7019B002283F85420002318463D
:107F600003B05DF804FB00B585B0039002911346A1
:107F7000ADF80630039B1B68002B09D0039B1B68E0
:107F80001B681B68039A1068BDF806200299984781
:107F900000BF05B05DF804FB84B001900091019B27
:107FA0001B6D0393039B002B08D0039B9A68009BD7
:107FB0009A4203D0039BDB680393F3E7039B1846C5
:107FC00004B0704700B585B0039002910192019B07
:107FD0001846FCF7FEFA0346013B1C2B48D801A2C9
:107FE00052F823F05980020071800200598002008B
:107FF00071800200598002007180020059800200E5
:1080000071800200598002007180020059800200D4
:1080100071800200598002007180020059800200C4
:1080200071800200598002007180020059800200B4
:10803000718002007180020071800200598002008C
:108040007180020059800200718002006580020088
:108050007180020065800200019A0299039800F085
:108060000BF806E0019A0299039800F01FF800E06F
:1080700000BF05B05DF804FB00B587B00390029126
:10808000019202990398FFF787FF0590059B002B4B
:1080900008D0059B1B6808331B68019A0399059853
:1080A000984700E000BF07B05DF804FB00B58BB057
:1080B00003900291019204AB00221A605A609A6008
:1080C000DA60029B0493019B1846FCF782FA034690
:1080D0001B2B02D01D2B1AD039E0019B0993099B61
:1080E0005B88ADF8143001238DF81630099B0433FA
:1080F000184600F08FFC03469BB2ADF81830099B80
:108100000433184600F08DFC0346079319E0019BE9
:108110000893089B5B88ADF8143002238DF8163065
:10812000089B0433184600F075FC03469BB2ADF87B
:108130001830089B0433184600F073FC034607937D
:1081400000BF039B04AA1146184600F05FFA0BB06B
:108150005DF804FB00B585B001900091009901988D
:10816000FFF71AFF0390039B002B07D0039B1B68AC
:108170000C331B6801990398984700E000BF05B0D5
:108180005DF804FB00B583B00190019B184601F037
:10819000BEFA019B03F124020323002B04DB002120
:1081A00011600432013BF8E7019B184603B05DF80B
:1081B00004FB00B583B00190019B184601F0D0FA92
:1081C000019B184601F0BAFA019B184603B05DF80E
:1081D00004FB00B585B0019000230393039B032BA0
:1081E0001BD8019A039B08339B0013445B68002B48
:1081F0000FD0019A039B08339B0013445B68184619
:1082000000F083F9019A039B08339B00134400227A
:108210005A60039B01330393E0E70023184605B03F
:108220005DF804FB08B5134B1B78BFF35B8FDBB223
:1082300003F00103002B0CBF01230023DBB2002B52
:1082400015D00C480EF0C2FD0346002B14BF0123CD
:108250000023DBB2002B0AD00748FFF793FF054845
:108260000EF000FE054A064903480EF082FD024B5F
:10827000184608BD2C400020F83F0020B0320020F6
:10828000B381020000B583B00190019B1B88303B95
:108290000B2B33D801A252F823F000BFCD8202008D
:1082A000CD820200CD820200CD820200CD8202008A
:1082B000CD820200CD820200CD820200CD8202007A
:1082C000DD820200FD820200ED820200FFF7AAFFBC
:1082D00003460199184600F075F80FE0FFF7A2FF7A
:1082E00003460199184600F086F807E0FFF79AFF69
:1082F00003460199184600F0CBF800BF00BF03B059
:108300005DF804FB00B585B00190FFF78BFF0346D5
:108310000199184600F00BF80390039B002B02D044
:10832000039800F0F2F800BF05B05DF804FB84B0DC
:108330000190009100230393039B032B1CD8019A07
:10834000039B08339B0013445B68002B10D0019AF9
:10835000039B08339B0013445B685A68009B9A4256
:1083600006D1019A039B08339B0013445B6804E029
:10837000039B01330393DFE70023184604B07047E3
:1083800084B00190009100230393039B032B15D825
:10839000019A039B08339B0013445A68009B9A423E
:1083A00008D1019A039B08339B00134400225A60B2
:1083B000012304E0039B01330393E6E700231846FF
:1083C00004B0704700B585B001900091009B9B8878
:1083D00019460198FFF7ABFF0390039B002B06D0D3
:1083E000039B1B6808331B6800990398984700BFDC
:1083F00005B05DF804FB30B58FB001900091009B93
:108400009B880D93009B0A330C930C9B9B78012B4C
:1084100002D0022B19D039E0019C0C9B1D880C9BCB
:10842000991D0C9B9B881A4605AB184601F052F922
:1084300002A805AB0CCB2946FCF701F902AB1A46A2
:108440000D99204601F09BF920E00D9B9AB20C9B00
:108450001B8819461046FCF7ABF8019C0C9B1D8845
:108460000C9B991D0C9B9B881A460AAB184601F081
:1084700031F907A80AAB0CCB2946FCF705F907AB85
:108480001A460D99204601F07AF900BF0FB030BDB1
:1084900000B585B001900091009B9B8803930399E0
:1084A0000198FFF744FF0290029B002B02D0029834
:1084B00000F02BF8019B0399184601F078F900BFF2
:1084C00005B05DF804FB00B583B001900091FFF7A3
:1084D000A9FE034601991846FFF752FFFFF7A2FED7
:1084E00003461846019B5B68009A194601F047F95C
:1084F000019B002B05D0019B1B6804331B6801986E
:10850000984700BF03B05DF804FB00B585B001904B
:10851000019B02A80E22197AFCF76EF802AB1946ED
:108520000198FFF7D0FF00BF05B05DF804FB00B570
:1085300083B00190019B2833184601F06DF9019B2F
:108540001C33184601F04AF9019B1033184600F01D
:1085500007FA019B0433184600F020FA019B1846E5
:1085600003B05DF804FB00B583B00190019801F001
:1085700071F903461846FFF7D3FC0346184603B0CB
:108580005DF804FB00B583B00190019B283301998D
:10859000184601F065F9019B2833184601F06CF983
:1085A000019B0433184600F00BFC019B1033184666
:1085B00000F0ECFB019B1C33184601F077F9002317
:1085C000184603B05DF804FB00B583B00190019834
:1085D00001F086F9019B00221A60019B04331846C2
:1085E00000F06AFB019B1033184600F045FB019B2D
:1085F0001C33184601F086F9019B2833184601F018
:10860000A1F9019B184603B05DF804FB00B585B0E5
:1086100001900091019B03F11C0202AB1146184628
:1086200001F0A4F9029B002B04D1039B03F001038A
:10863000002B01D0012300E00023002B05D0019B7B
:108640001C330099184601F0AFF900BF05B05DF882
:1086500004FB00B583B00190019800F0DCFA019BA7
:1086600000221A60019B00221A71019B00225A719C
:10867000019B0833184600F0DFFA019B14331846BB
:1086800000F0FAFA019B2033184600F015FB019B1D
:108690002C33184600F030FB019B3833002118467C
:1086A00000F03EFB019B4C330021184600F038FBE4
:1086B000019B60330021184600F032FB019B1846F5
:1086C00003B05DF804FB00B583B001900091019BFD
:1086D00014330099184601F073F900BF03B05DF838
:1086E00004FB00B589B001900B468DF803301346AA
:1086F000ADF800309DF80330042B22D0052B3ED07E
:10870000032B00D05EE0019B03F1380202AB11465F
:10871000184601F061F9029B002B04D1039B03F082
:108720000103002B01D0012300E00023002B44D0E3
:10873000019B3833BDF800201146184601F06AF954
:108740003BE0019B03F14C0204AB1146184601F0DB
:1087500043F9049B002B04D1059B03F00103002B7C
:1087600001D0012300E00023002B28D0019B4C33D3
:10877000BDF800201146184601F04CF91FE0019B9E
:1087800003F1600206AB1146184601F025F9069B7D
:10879000002B04D1079B03F00103002B01D0012320
:1087A00000E00023002B0CD0019B6033BDF80020BB
:1087B0001146184601F02EF903E000BF02E000BFA9
:1087C00000E000BF00BF09B05DF804FB00B583B056
:1087D00001900091019B08330099184601F02AF995
:1087E00000BF03B05DF804FB00B583B001900198B1
:1087F00000F01AFB0346184604F01CF9034618461D
:1088000003B05DF804FB10B592B00190019B2C33CE
:108810000199184601F01AF9019B2C33184600F013
:10882000E9FA019B00221A71019B00225A71019BF7
:108830000833184600F090FA019B1433184600F0F4
:10884000A5FA019B2033184600F0BAFA019B03F108
:10885000380403AB0021184600F062FA03AB194656
:10886000204600F0FBFA019B03F14C0408AB002109
:10887000184600F055FA08AB1946204600F0EEFA0B
:10888000019B03F160040DAB0021184600F048FA8B
:108890000DAB1946204600F0E1FA0023184612B04D
:1088A00010BD82B001900B468DF80330019B9DF8FE
:1088B00003201A70019B184602B0704782B00190E5
:1088C0000B468DF80330019B9DF803201A70019B25
:1088D000184602B0704782B001900B468DF8033005
:1088E000019B9DF803201A70019B184602B0704747
:1088F00082B001900B468DF80330019B9DF8032058
:108900001A70019B184602B0704782B001900B4666
:108910008DF80330019B9DF803201A70019B1846C7
:1089200002B0704700B583B00190054A019B1A6000
:10893000019800F011FA019B184603B05DF804FBA2
:108940000472040000B583B001900198FFF7EAFFBC
:1089500001980EF0E1FA019B184603B05DF804FBA4
:1089600000B583B00190054A019B1A60019800F0A0
:108970000DFA019B184603B05DF804FBF471040086
:1089800000B583B001900198FFF7EAFF01980EF05F
:10899000C3FA019B184603B05DF804FB00B583B031
:1089A0000190054A019B1A60019800F009FA019BA9
:1089B000184603B05DF804FBE471040000B583B011
:1089C00001900198FFF7EAFF01980EF0A5FA019BCC
:1089D000184603B05DF804FB00B583B00190054A6A
:1089E000019B1A60019800F005FA019B184603B03C
:1089F0005DF804FBD471040000B583B001900198C8
:108A0000FFF7EAFF01980EF087FA019B184603B0C2
:108A10005DF804FB82B00190019B5B68184602B0D0
:108A2000704782B00190019B1B68184602B07047E6
:108A300000B583B001900198FBF712FB019B18462B
:108A400003B05DF804FB00B583B00190009101987C
:108A5000FFF7EEFF019B1A460023136053609360FB
:108A6000019B0022DA60019B00221A6100990198A3
:108A700000F0E6F9019B184603B05DF804FB00B571
:108A800083B001900198FBF7EBFA019B184603B005
:108A90005DF804FB84B0039002910192039B029A5B
:108AA0001A60039B019A5A60039B184604B07047F2
:108AB00082B00190019B1B78184602B0704700B548
:108AC00087B001900091019B05331B789B11012B0E
:108AD0001AD0032B02D0002B0BD020E003AB0021D7
