:1000000000000120292F0000612F0000C502000020
:10001000652F0000D5020000DD0200000000000096
:100020000000000000000000000000002517000094
:100030006D2F000000000000BD170000CD1700006C
:10004000732F0000732F0000732F0000732F000028
:10005000732F0000732F0000732F0000732F000018
:10006000732F0000732F0000732F0000732F000008
:10007000732F0000E5440000732F0000732F000071
:10008000732F0000732F0000732F0000732F0000E8
:10009000732F0000732F0000732F0000732F0000D8
:1000A000194600001F460000732F0000732F000048
:1000B000732F0000732F00000000000000000000FC
:1000C000732F0000732F0000732F0000732F0000A8
:1000D000732F0000732F0000732F000010B5054C24
:1000E000237833B9044B13B10448AFF300800123E4
:1000F000237010BD880C002000000000BCB200007E
:100100000C4B43B10C480D4910B5AFF300800C48BF
:10011000036823B910BD0A48036833B97047094B17
:10012000002BF7D0BDE810401847064B002BF5D048
:10013000184700BF00000000BCB200008C0C00207B
:10014000880C002000000000154B002B08BF134B4B
:100150009D46A3F5803A00218B460F461348144A6A
:10016000121A06F0CBF90F4B002B00D098470E4B1C
:10017000002B00D098470020002104000D000D48FE
:10018000002802D00C4800F077FF05F06DFD20003C
:10019000290001F0A9F900F06CFF00BF0000080081
:1001A000000001200000000045140000880C002021
:1001B000C0280020791000000000000070470000F7
:1001C00038B590F900506B1C04D120220F4910481B
:1001D00000F086FC012461B11F2D04D90D494FF4B4
:1001E000E87005F0C5F84FF0A043AC40C3F80845EF
:1001F00038BD1F2D04D907494FF4E87005F0B8F851
:100200004FF0A043AC40C3F80C4538BD58A20000E5
:1002100093A20000ABA2000013B500211948194CAD
:10022000FFF7CEFF00211848FFF7CAFF012116484B
:10023000FFF7C6FF154A92E80300154A8DE8030050
:100240006946144804F0EEF9134B1449D3F810250D
:100250001048D2B221FA02F20123002104F0A2FADE
:100260000C4804F083FA4FF4FA7001F01BF82046B2
:1002700005F03AFAB0FA80F149092046FFF7A0FFED
:10028000F1E700BFA40C0020A50C002048A200004C
:10029000BD01000050A2000000A00040006A18004C
:1002A00010B5064800241121047000F0CAF9044872
:1002B00012210470BDE8104000F0C3B9A40C002066
:1002C000A50C00204FF0100300F00CB84FF02003F5
:1002D00000F008B84FF0300300F004B84FF04003CE
:1002E00000F000B8EFF308804FF0040172460A42B4
:1002F00001D0EFF309809C46244B196802680A601C
:10030000043142680A60043182680A600431C268BC
:100310000A600431F0C147460F6004314F460F6058
:10032000043157460F6004315F460F6004310269A3
:100330000A60083142690A60043182690A60043146
:10034000C2690A600431034620334FF4007632421A
:1003500000D0043375464FF01006354200D14833C3
:100360000C46103C2360EFF309820A600431EFF37E
:1003700008820A60043172460A600431EFF3148285
:100380000A606046014900F079F8FEE704A3000026
:10039000F0B52C4C2C4F85B00025264654F825206E
:1003A00029463846013500F045FC0D2DF6D1A36CE9
:1003B0000293636C0193236C009304F13401234C8A
:1003C00023480EC900F036FC2168224800F032FCB8
:1003D000E16AA26AA36AA06A256BE76B0297000C28
:1003E00001950090C3F30723D2B21B4800F022FC12
:1003F000A36A1D0603D5616B184800F01BFCA36AB5
:10040000180403D5A16B164800F014FCF36C19070F
:1004100012D5144800F00EFC336DDA070FD51248E0
:1004200000F008FCF36C5B074CBF1048104805B0A7
:10043000BDE8F04000F0FEBB0E4800F0FBFB0E48AC
:10044000EEE700BF0C18002098A3000000ED00E0CC
:10045000A6A30000F5A3000003A4000052A400001E
:1004600060A400006EA400007DA40000ADA4000004
:10047000B9A400009DA400008AA4000013B504469E
:10048000154800F0D7FB302C17D0402C1AD0202C68
:100490001DD11248124C00F0CDFB124800F0CAFBEF
:1004A000FFF776FF104800F0C5FB00230F4A0093CA
:1004B000D26B0F49204600F02BFD0E480E4C00F089
:1004C000B9FBEAE70D480E4C00F0B4FBE5E70D4838
:1004D0000D4C00F0AFFBE0E708A3000031A30000E3
:1004E0003E01FF805EA3000069A300000C180020FD
:1004F00088A3000040A300003F01FF8049A3000043
:100500004001FF8054A300003D01FF806FF0150003
:10051000704703681B69184703689B69184703689D
:100520009B6A184700290CBF6FF018000020704725
:10053000012070476FF0150070476FF0150070478D
:10054000704703689B68184710B50446074B236043
:1005500000220023C4E9022300230846A16123618D
:100560006361034900F00CFA204610BDD0A40000DE
:100570004305000007B5009000F10801806900F014
:100580003EFA03B05DF804FB00F10801806900F059
:100590005FBA000010B5034B03600446FFF7F4FF99
:1005A000204610BDD0A40000036801221B69002171
:1005B0001847036800221B691146184738B590F99F
:1005C00000506B1C04D120220F49104800F088FA1B
:1005D000012461B11F2D04D90D494FF4E87004F0D6
:1005E000C7FE4FF0A043AC40C3F8084538BD1F2DEF
:1005F00004D907494FF4E87004F0BAFE4FF0A04365
:10060000AC40C3F80C4538BD58A2000093A20000CE
:10061000ABA2000070B50E460446154605F040F842
:1006200001360DD029462046FFF7C8FF204601219C
:1006300005F0A4F820460021BDE8704005F07CB824
:1006400070BD0022FFF7E6BF00487047DCA4000041
:10065000024B1B680BB1024818477047E4000020AA
:10066000DCA400002DE9F74FD0F804A09AF83A3046
:100670000446002B46D103685B68984763681B6A91
:1006800098423FD0DAF82030DAF80840CAF8200063
:10069000A0EB0308DAF80C30314808EA030884427A
:1006A00046464FF0000727D0DAE90A239AF83BB014
:1006B000A8FB0089CDE900230025BBF1000F2BD05A
:1006C0005A464046494608F083FFDDE9002312EB15
:1006D000080243EB090390465A46994606460F46E0
:1006E00008F082FFB8EB000069EB0101A94208BFE6
:1006F000A0420AD2CAE90A01DAE90C23B6185F411E
:10070000CAE90C6703B0BDE8F08F013647F1000776
:10071000001B61EB0501EDE722462B4640464946AA
:1007200009F0FEFB224606460F46404649462B4648
:1007300009F0F6FBDDE9008918EB020849EB030933
:10074000A94508BFA04502D2CAE90A89D4E7013603
:1007500047F10007B8EB040869EB0509F4E700BFAF
:1007600040420F00824206D98A420BD9884294BF88
:10077000002001207047884206D98A428CBF0020A1
:100780000120704701207047002070472DE9F14F8C
:10079000476897F83A300646002B60D197F8393011
:1007A000002B5CD1FFF75EFF75686B68002B59D09A
:1007B000D5E90C89D3E90001894508BF804505D3F7
:1007C00033685B6901B0BDE8F04F1847D5E90623EF
:1007D000B0EB080861EB09094B4508BF42452C699D
:1007E00006D3AB68254A93420FD1444528BF4446FF
:1007F0002A6A3B6A1444EA681440A34221D14FF4A8
:1008000084721F491F4800F06BF995F83B20DFF810
:1008100078A04FF0000B7AB14046494608F0E4FE5C
:1008200010EB0A0041EB0B01144A002309F078FB9E
:10083000844228BF0446DBE7A3FB080103FB091140
:10084000EEE7336820461B69984733685B68984732
:1008500022460146386AFFF785FF0028B0D101B073
:10086000BDE8F08F3B69386AFA68184433681B6941
:10087000104001B0BDE8F04F184700BF40420F00E4
:1008800004A5000024A500003F420F002DE9F04F11
:10089000436893F8382085B00546002A66D193F85E
:1008A0003A30002B62D103681B6898472B68DB69DC
:1008B0009847076827B92D222E492F4800F010F9D4
:1008C0001F23012202FA03F18F425FFA83FB02D059
:1008D000013BF7D19B46D0F804A0AAF104031C2BDE
:1008E00001D93B22E8E7072617F1FF3006FA03F6A5
:1008F000224C4FF0000343F1FF313A46C4FB06019E
:1009000009F00EFB6C682A6800232360636052685C
:100910000393CDE90001904720626C684FF0000816
:100920004FF000095246C4E90A89A76084F83BB039
:100930000120002108F058FEDDE90023C4E9062368
:10094000039B84F8393084F83A3001380123E060A1
:1009500026612846C4E90C8984F83830FFF782FE06
:10096000284605B0BDE8F04FFFF710BF05B0BDE861
:10097000F08F00BF04A5000059A8000040420F00FE
:1009800038B505460C46FFF781FF00F06DF96B683E
:100990001C60BDE8384000F07DB970B5044600F039
:1009A00063F92368DB689847636893F83A201AB1C3
:1009B000BDE8704000F06EB9012283F83920636809
:1009C0005B68A3B12046FFF74DFE65686E68D5E908
:1009D0000C01D6E90023994208BF904207D3F3687F
:1009E0006B602B68002BEAD0B0689847E7E7636834
:1009F000002283F839202046FFF7C8FED8E72DE90A
:100A0000F04180460C4616461F46069D00F02CF924
:100A10004046FFF727FED8F80420A560C4E9006728
:100A2000536800254BB9E36085B954604046FFF731
:100A3000ADFEBDE8F04100F02DB9D3E900018F42D1
:100A400008BF8642EFD31D46DB68EBE7EC60F0E7BA
:100A500038B505460C4600F007F96A685368A342AA
:100A600009D1DB6853602846FFF790FEBDE83840A7
:100A700000F010B91346002BF8D0DA689442F9D18F
:100A8000E268DA60F2E738B50446FFF7FFFE00F0EF
:100A9000EBF82046FFF7E6FD6368D3E90C4500F06C
:100AA000F9F82046294638BD08B5FFF7ECFF08BD28
:100AB0000048704748A50000024B1B680BB1024874
:100AC00018477047E800002048A500000020704744
:100AD00005F0FAB805F060BD04F0E0BF04F058BFBF
:100AE00007B504460D46164600F0BEF800962B46A4
:100AF00000222146014800F00BFA00BF4401FF80AC
:100B000002494FF4E87004F033BC00BFABA2000010
:100B100008B5202201490248FFF7E2FF58A2000071
:100B200093A2000083B500F09FF8112101A8FFF700
:100B300088FD01252E46DFF8A08004279DF904409A
:100B4000601C01D1FFF7E4FF1F2C01D9FFF7D8FF8C
:100B50004FF0A04305FA04F4C3F80845404600F0FE
:100B600081FB9DF90440611CECD01F2C01D9FFF7DB
:100B7000C7FF4FF0A04306FA04F4C3F80C45404603
:100B800000F070FB013FD9D1DFF8508004279DF9B8
:100B90000440621CD6D01F2C01D9FFF7B1FF4FF0E3
:100BA000A04305FA04F4C3F80845404600F05AFB98
:100BB0009DF90440631CC5D01F2C01D9FFF7A0FF8D
:100BC0004FF0A04306FA04F4C3F80C45404600F089
:100BD00049FB013FDBD1AEE7F0490200801A060075
:100BE00010B5044600F040F8204605F0A9FE214665
:100BF0000246022000F0C8FABDE8104000F04AB8F2
:100C000010B5A2B00B460246842101A807F08EF968
:100C10008328044605D9052205490DF1830005F016
:100C20006FFB002C02DD01A8FFF7DAFF22B010BD38
:100C300070A500000FB407B504A951F8040B019189
:100C4000FFF7DEFF03B05DF804EB04B07047EFF38D
:100C50001080C04300F001007047EFF305800030C2
:100C600018BF01207047000008B502F0EFFA064AED
:100C70001368591C04D1532204490548FFF730FF7B
:100C80000133136008BD00BF280D002075A50000CA
:100C900098A50000044A136823B1013B13600BB907
:100CA00002F0DCBA704700BF280D00200122D0E816
:100CB0004F3FC0E8412F0029F9D1D8B2003018BF0A
:100CC00001207047D0E85F3F0B449BB2C0E8523F21
:100CD000002AF7D11846704750E8003F0B4440E81F
:100CE0000032002AF8D118467047D0E85F3F5B1AFF
:100CF0009BB2C0E8523F002AF7D11846704750E82F
:100D0000003F5B1A40E80032002AF8D118467047CD
:100D100008B50B48FFF7CAFF28B1FFF7A5FFBFF3DF
:100D20004F8F20BFFDE7FFF798FF08B1FFF7FAFEEE
:100D3000FFF78DFF0028F9D0012000F09AF900BFDD
:100D40006C0D0020F0B51B4D8FB001AC35EA2005CD
:100D500028BF05460E46174600213422204605F0DE
:100D6000CDFB154B01955B690493DA6B05925A6BC9
:100D70001B6B06920793029703960894FFF774FF84
:100D80000E4A13680133012B136004D1342221462B
:100D90000B4805F0B5FA342221460A4805F0B0FAAE
:100DA000094B1B680BB107489847FFF773FF0020FA
:100DB0000FB0F0BD0101FF80F40100202C0D0020D8
:100DC000380D0020700D0020300D00202DE9FF416E
:100DD000374C0E462168C1F34173032B0CBF4D42C3
:100DE0008DB2C1F307438046174632482A46FFF7C3
:100DF00021FF6FF498731D44132D0FD8DFE805F021
:100E00000A3E4144474D4A500E0E0E0E0E0E0E0E77
:100E10000E0E0E53A1682848FFF70CFF4046FFF75F
:100E2000DFFE61682548FFF705FF4EB12448FFF754
:100E3000D7FE3046FFF7D4FE39462248FFF7FAFEC8
:100E4000A1682148FFF7F6FEE268E36951681F4890
:100E50000293A369019363690093002908BF0146C7
:100E600023691B48FFF7E6FE21681A48FFF7E2FEF8
:100E7000194804B0BDE8F041FFF7DCBEA16817488F
:100E8000CAE7A1681648C7E7A1681648C4E7A16881
:100E90001548C1E7A1681548BEE7A1681448BBE73B
:100EA000A1681448B8E71448FFF7C4FEB6E700BFCE
:100EB000700D0020D3A5000024A60000CCA60000E1
:100EC000DDA60000E5A60000E9A60000C9A5000017
:100ED000FDA6000055A700009FA700003AA600004D
:100EE0004AA6000059A600006CA6000080A60000DB
:100EF00094A60000A3A60000B9A600000020704739
:100F000000B5114672465DF804EBFFF71BBF000009
:100F100080B506460948F0460C4617461D46FFF7C1
:100F2000C5FE48B9424639463046FFF70BFF029AE4
:100F300029462046FFF74AFFFFF7EAFE340D00205E
:100F40006FF01C0070476FF015007047012070476C
:100F50000020704770470000034B186818B14FF02D
:100F6000FF3101F00FBB7047B0180020024B18682A
:100F700008B101F01FBB7047B0180020F8B5074E4C
:100F800015460C468F18BC4205D014F8011B30469C
:100F900002F062FDF7E72846F8BD00BF50150020BB
:100FA00038B58DB215F0010405D0084802F08EFD69
:100FB000041C18BF0124EB0605D5044802F0A6FD69
:100FC00008B144F01004204638BD00BF5015002081
:100FD00010B5044604F070FE204610BD10B50C4656
:100FE0002AB1044802F0FAFC2070012010BD10461E
:100FF00010BD00BF5015002038B51D46074B0360DB
:10100000074B1B68044633B9064802F0C7FB294664
:10101000044802F069FC204638BD00BFC4A70000A8
:10102000BC1500205015002000207047002070479C
:1010300008B5012000F01DF8074A08491368184454
:10104000884289BF064B10600C224FF0FF308CBFE6
:101050001A601846704700BFEC01002000F800201D
:10106000B828002008B508B1FFF75CFDFEE70120B5
:10107000704708B5FFF7F6FF0120704708B500F08C
:1010800035FA08BD08B500F039FA08BD10B5037887
:101090000446DBB203F00303012B08D0FFF75CFF2B
:1010A000237803F00302012A03D1FFF75FFF00203A
:1010B00010BD2AB14FF4B56204490548FFF710FD91
:1010C00043F002032370012010BD00BF18A80000E8
:1010D0003DA8000008B5037803F00302022A05D0FA
:1010E00040F2B15206490748FFF7FAFC23F0030328
:1010F00043F001030370BDE80840FFF737BF00BFAE
:1011000018A800005BA800003F2870B504462FDC3B
:10111000184D55F820305A1C13D1022811DCFFF766
:1011200085FF034658B92046FFF77EFF034630B9D6
:10113000114E3378BFF35B8FDB0704D50F4B45F8B7
:101140002430184670BD3046FFF7A0FF0028F5D0C8
:101150004FF41653082206210848FFF74DFF30468A
:10116000FFF7B8FF064A07490448FFF780FFE5E7A5
:101170000023E6E7EC000020A40D0020A80D0020CD
:10118000E0000020550F000038B50C461546FFF76B
:10119000BBFF38B904F02CFC092303604FF0FF3487
:1011A000204638BD03682146DB682A469847041E5E
:1011B000F6DA04F01DFC64420460EFE704F07CBD45
:1011C00013B50D4CFFF750FD22884FF6FF739A427E
:1011D00008D1FFF75FFD00232288009307490848E4
:1011E000FFF796FE01212046FFF76CFD02B0BDE837
:1011F0001040FFF74FBD00BFB40D002092A80000C3
:101200002301048037B50B4CFFF72EFD258845B927
:10121000FFF740FD228800952B4607490748FFF756
:1012200077FE01212046FFF760FD03B0BDE83040A6
:10123000FFF730BDB40D0020B7A8000024010480E2
:1012400008B5FFF711FD064B1B882BB902F0A4FC73
:10125000BDE80840FFF71EBD02F07AFCF8E700BFCA
:10126000B40D002042F21073984273B5044606DDB7
:10127000002300931A4609490948FFF741FEFFF78A
:1012800017FC0646FFF710FC05463046FFF70CFC3E
:10129000401BA042F9D302B070BD00BFD5A800002A
:1012A0000001018010B50446FFF7D7FC38B9FFF7FD
:1012B000CEFC20B12046BDE8104001F027BE4FF41F
:1012C0007A706043BDE81040FFF7CCBF10B5034B08
:1012D00003600446FFF75EF9204610BD20A9000018
:1012E00010B50446FFF7F2FF2046FFF767FF2046E0
:1012F00010BD000010B50446FFF726F9074B236028
:1013000000220023C4E90823C4E90A23A069FFF7E7
:10131000BAFBC4E90801204610BD00BF20A90000A7
:10132000024B0349586801F0D1BD00BFDCAA0000A0
:10133000CD17000090F830007047F8B50446FFF76D
:1013400023F9002384F83130012384F83030A06978
:10135000FFF799FBD4E90867801B4FF0000361EBAE
:1013600007014FF47A7208F0DBFD50EA010303D065
:1013700010F1FF3041F1FF314FF47A75A0FB0523E6
:10138000B61805FB01335F41D4E90A2312184B411B
:10139000C4E90867C4E90A23F8BD70B504460D46E0
:1013A000FFF762FCD4E908014FF47A726A438518AA
:1013B00041F100062A4633462046FFF7DBF8BDE838
:1013C0007040FFF767BC38B504460D46FFF7DCF800
:1013D000002384F83030012384F831302946204638
:1013E000BDE83840FFF7D9BFFFF7CEB8D0E90A23F0
:1013F000013243F10003C0E90A23D0E9082312F5C2
:101400007A7243F10003C0E90823704710B504461F
:10141000FFF72AFC94F8313033B1012384F83030DF
:10142000BDE81040FFF736BC054B4FF08062204608
:101430005A60FFF7DBFF01212046FFF7AEFFEFE721
:1014400000ED00E008B5094B094A1A60094B9B1AE8
:10145000094A1360094B0A4A1A600A4B9B1A0A4A46
:10146000136000F051F800F065F800BF1C0E00207A
:1014700000F8002000000120180E0020B00D002010
:10148000C028002000F80020AC0D00200E4838B520
:101490000E4B03600B251C240D4B4560C46083601C
:1014A00001F058F80B4B18600B480C4BC46080E8F7
:1014B00028000B4B836001F04DF80A4B1860BDE823
:1014C000384004F0D1BB00BFE80D00202CA900007B
:1014D000FC0D0020F80D0020B80D002039A90000F7
:1014E000CC0D0020C80D0020FEF796BE024B4FF039
:1014F000FF31186801F046B8F80D0020014B18685C
:1015000001F058B8F80D002008B501F0FBFEBDE869
:10151000084000F00CB8704708B5FFF7B7FFFFF7B9
:10152000FAFFFFF7EBFCBDE80840FFF7DDBF00F076
:101530000FBB000007B51748174B03600B23436030
:101540001C23164CC360164B8360164B23614FF46B
:10155000805363614423E360134BA3601823A361AA
:10156000124B236000F0F6FF114B22461860002159
:10157000104801F017FC034628B90F490090224695
:101580000E48FFF7C5FC00F0FBFA002300931A4653
:101590000B49F5E77C18002043A900008C180020B7
:1015A00060180020B8180020200E002053A9000069
:1015B000B01800201915000058A900001D01018075
:1015C00074A9000008B500F0A5F8000007B5411E99
:1015D00002460023042923D8DFE801F0030A10168D
:1015E0001C0012491248009301220023FFF790FCCF
:1015F0000093022200230F490F48F7E700930322CC
:1016000000230E490E48F1E70093042200230D4900
:101610000D48EBE70093052200230C490C48E5E751
:1016200000930C490C480023E0E700BF89A90000A3
:1016300025010280AAA9000026010280CFA900008E
:101640002701028004AA0000280102803FAA0000AE
:101650002A0102807FAA00000001028010B501F07B
:10166000B9FB034B1B6813B1BDE81040184710BD10
:10167000640E0020F8B500F099FA054608B9FFF7A6
:101680009FFD114C114F20682946FFF79CFE002654
:101690002068FFF74FFE68B966B9FFF7E5FABB7A35
:1016A00033B9FFF7CDFDFFF7F5FABFF36F8FEFE723
:1016B0000126F8E70DB9FFF7A5FD2068FFF73DFE0D
:1016C000BDE8F84000F086BAA00E0020F40100202A
:1016D00038B5094C23684BB9FEF7B6FF074D0146F4
:1016E0002846FFF707FE2560FFF71AFE2068012154
:1016F000BDE83840FFF751BEA00E0020680E002064
:10170000014B1868FFF770BEA00E002070474FF025
:10171000FF30704708B5024C23689847FCE700BFCC
:10172000F00100201EF0040F0CBFEFF30880EFF370
:101730000980816911F8021C91BB01B590E80F1076
:10174000E047BDE800508CE80300244B93E8060016
:10175000914208BF704741B91EF0100F10D12049C7
:10176000086820F0010008600AE02CE9F00F1EF084
:10177000100F08BF2CED108AC1F838C081F822E0A4
:101780001A6092F82210906B61F0FF0E1EF0100F9D
:1017900008BFB0EC108AB0E8F00F80F309887047FA
:1017A000104A13689942FAD801B552F821C00FC8FF
:1017B000E047BDE80050CCF80000704701B500F0EC
:1017C00059FFBDE80140EFF3098CBEE701B500F019
:1017D00017FFBDE80140EFF3098CB6E708020020CF
:1017E00034EF00E044AB000008B5014610B113200F
:1017F00001F03CFA002008BD08B5EFF305833BB1CA
:101800006FF00501002000F012F86FF0050008BD30
:10181000EFF31083002BF3D1EFF31183002BEFD103
:10182000DFF804C000DF08BDE9170000704770470B
:1018300070477047EFF310832BB9EFF3118000303E
:1018400018BF01207047012070470000F8B5564CC2
:10185000217A012900F0998031B14FF0FF30FFF774
:10186000E5FF4FF0FF30F8BD504D6B6D472B02D8B0
:101870006FF00A00F3E7EF68002FEED02E8A002EFB
:10188000EBD09C2204F1080004F038FEA4F8546068
:10189000EE6AAB68296BE7653046236400F0B1F966
:1018A00008B1C4F880606E69A969304600F0A9F9F2
:1018B00000286CD06667EE69296A304600F0A1F90D
:1018C000002868D0A6676E6AA96A304600F099F9C8
:1018D000002864D0E6676E6B46B1F368B268316881
:1018E000304600F0FAF908B1C4F88460AE6B46B136
:1018F000F368B2683168304600F0EFF908B1C4F817
:101900008860EE6B46B1F368B2683168304600F02B
:10191000E4F908B1C4F88C602E6C46B1F368B26883
:101920003168304600F0D9F908B1C4F890606E6CA7
:1019300046B1F368B2683168304600F0CEF908B1BC
:10194000C4F89460AE6C46B1F368B2683168304652
:1019500000F0C3F908B1C4F89860EE6C46B1F368C2
:10196000B2683168304600F0B8F908B1C4F89C603C
:101970002D6D45B1EB68AA682968284600F0ADF9DD
:1019800008B1C4F8A050012323720020F8BDD4F898
:10199000803063678FE7D4F88030A36793E7D4F88B
:1019A0008030E36797E700BFF4010020DCAA000065
:1019B00038B5254C237A012B06D06FF00600FFF7CF
:1019C00035FF4FF0FF3038BD01F0C6F910B94FF0C8
:1019D000FF30F4E71D4A1E4DFF2382F8223092F8B3
:1019E0002230D168686863F0FF03DB43B3FA83F306
:1019F000C3F12003C1F302218B4298BF4B1CFE218F
:101A000001FA03F3DBB2D377124901F05FFA002841
:101A1000DDD1FFF77CFE2061FFF75AFE0E4800F093
:101A200074FF0028D3D000F0D7FF2B6813F0010F0C
:101A30004FF0020304D083F314882372002038BDD2
:101A4000032282F31488F8E7F401002000ED00E09F
:101A5000DCAA0000CD1700001002002010B5134CC6
:101A6000237A022B05D06FF00700FFF7DFFE00207E
:101A700010BDFFF745FE01236372BFF34F8F0C4A81
:101A80005168C90042BF4FF000615160A372E36A20
:101A90004BB1D869636C1BB11B69984228BF1846CB
:101AA0000423237210BD4FF0FF30F3E7F401002050
:101AB00000ED00E070B5244C237A042B064641D19A
:101AC000E26A002A37D0D369984232D3E168C51A56
:101AD0000B44E3600123D36100F046FF35B1E368B6
:101AE0000133E360E36A013D002BF5D1636C63B120
:101AF0001D69AE4223D30122751B1A61236D9847DD
:101B00001DB1636C013D002BF8D10223002023722C
:101B100000F06CFF00236372BFF34F8FA27A22B1F3
:101B2000A3720A4B4FF080525A60BDE87040FFF735
:101B3000CFBD1B1AD361E3683344E360D6E7AD1B26
:101B40001D61E2E770BD00BFF401002000ED00E080
:101B500008B500F055F8EFF3058333B16FF00500D9
:101B6000FFF764FE6FF0050008BDFFF763FE002875
:101B7000F4D1DFF808C000DF08BD00BF4D18000039
:101B800008B5EFF3058333B16FF00500FFF74EFEA4
:101B90006FF0050008BDFFF74DFE0028F4D1DFF817
:101BA00008C000DF08BD00BFB119000008B5EFF3A1
:101BB00005832BB16FF00500FFF738FE002008BD4C
:101BC000FFF738FE0028F5D1DFF804C000DF08BDBC
:101BD0005D1A000008B50246EFF305832BB16FF0E4
:101BE0000500BDE80840FFF721BEFFF723FE0028EF
:101BF000F5D11046DFF804C000DF08BDB51A0000BB
:101C0000704710B5A8B140EA010313F007030DD1E6
:101C100017290DD9016008390C1810228460426020
:101C20000B5081684A60C360012010BD002010BDC8
:101C3000184610BD70B5B0B100292ED032F00303A4
:101C40002BD10F3121F0070100F108052E686C68D7
:101C5000731B24F003041B1B994205D933683546D6
:101C6000002BF3D1184670BD446803680C444460EF
:101C70001844083843689C4288BF44606B6811432D
:101C80001BB9696005F1080070BD23F00303E81873
:101C9000EE5041602860083070BD002070BD10B566
:101CA000D0B1C1B1A1F1080400F108030022A342A0
:101CB00009D1596821F003044168091B41603AB910
:101CC0005A60012010BD19681A4621B10B46EEE793
:101CD0001B681360F5E7084610BD30B5C0B189B187
:101CE000C2B1CBB10024446002FB01F41D190160B4
:101CF0008260C360436105611846013904D1A21AAC
:101D000099500121084630BD851805602846F4E742
:101D10000146F7E71146F5E71946F3E710B5034624
:101D2000B0B100F1140252E8000F10B9BFF32F8FC9
:101D300004E0016842E8001404B1F4E740B1043360
:101D400053E8002F511C43E8001404B1F8E710BD1C
:101D500010BD30B5F0B1C3688B421BD803699942FE
:101D600018D200F114031A680A60BFF35F8F53E8BA
:101D7000002F0C689442F6D143E8001505B1F2E754
:101D8000043050E8003F5A1E40E8002101B1F8E756
:101D9000002030BD6FF0030030BDEFF310832BB98E
:101DA000EFF31180003018BF012070470120704709
:101DB000036B30B5E3B1CD780024DA78AA420FD3B3
:101DC0001A464A608C608AB19160A4B16160283083
:101DD00050E8003F5A1C40E8002101B1F8E730BD4F
:101DE0005A681C46002AECD01346E6E7C162ECE7CD
:101DF0004B608B60C1620163E9E74B688A6823B17D
:101E00009A608A681AB153607047C262F9E7036347
:101E1000704700002DE9F74F8A46074600B131B9F7
:101E20006FF003010020FFF704FD002079E0CE1CD5
:101E300026F003060C36B0FA80F3B6FA86F10B44AE
:101E40001F2BEDDD06FB00F802B39468D2F800907A
:101E5000D2F810B055693CB1A30702D1D368332B37
:101E600005D86FF00801DDE7D368002BF9D1BBF18D
:101E7000000F07D01BF0030301D1A84554D96FF020
:101E80000901CFE7002DFAD114B10DE09146934638
:101E9000274BD3F8A000D8B1FFF740FF0446A0B10C
:101EA0000125BBF1000F25D1214B0193D86F0022F2
:101EB0004146FFF7BFFE019B8346A8B92DB1D3F879
:101EC000A000214658B1FFF744FF6FF00401A9E7D5
:101ED00001223421D3F88000FFF7ACFEDEE7D3F80F
:101EE0008000FFF7DCFEF0E74246002104F006FB2D
:101EF00045F00205082323700023A360A362E36278
:101F0000236332465B46A570C4F80490C4F824A04D
:101F1000394604F10C00FFF7E0FE054B054A1A674D
:101F2000204603B0BDE8F08F002CB1D01D46E1E79C
:101F3000F4010020391F0000F8B586780446AEB3DE
:101F4000C56801460026284605F10C07FFF755FF36
:101F5000267021463846FFF7FCFEAB68002B4BD0BD
:101F60005B78932B48D13846FFF7D8FE044600280B
:101F700042D0284600F0C9FC32460746314600F000
:101F800063FD384600F00AFD6A6A8168074604F17D
:101F90000C0004F0B5F907232370A670FB68E3700A
:101FA00021462846BDE8F840FFF702BF8568AB68C8
:101FB000002BF5D05B78832BF2D1284600F0A5FCEE
:101FC00032463146074600F03FFD384600F0E6FC59
:101FD00006466A6A806804F10C0104F091F9F3681E
:101FE0000BB1E2781A7000232370214605F10C0032
:101FF000BDE8F840FFF7ADBEF8BD00002DE9F041A7
:102000000C4617469846054618B10378082B00D1B0
:1020100041B928466FF00301FFF70BFC6FF0030096
:10202000BDE8F0818368C3B15B78832B15D100F0E4
:102030006CFC01220646002100F006FD304600F04F
:10204000ADFC06466A6A8068214604F059F9F068DA
:1020500058B307700020BDE8F08105F10C00FFF7D0
:102060005DFE064670B121466A6A0C3004F048F9FC
:10207000002407233370B470F77031462846FFF709
:1020800097FEE7E7B8F1000F11D04146932000F02A
:10209000EDFD40B1084B2846596900F023FCEFF3F1
:1020A00009839C60DF606FF00100BDE8F0816FF094
:1020B0000200BDE8F08100BFF401002010B500F17E
:1020C000280353E8002F12B9BFF32F8F04E0511EED
:1020D00043E8001404B1F4E70AB9002010BDC06A57
:1020E00001230028F9D0821CD2E84F1FC2E8443FE8
:1020F00004B1F9E711F0FF0F01D08068F1E710BDDE
:102100002DE9F0410F4614469846054618B103786C
:10211000082B00D141B928466FF00301FFF789FB76
:102120006FF00300BDE8F081FFF7C8FF0646002806
:102130003ED001462846FFF760FE6A6A06F10C01B0
:10214000384604F0DDF80CB1F3782370002405F173
:102150000C07347031463846FFF7FBFDAB6813B906
:102160000020BDE8F0815B78932BF9D13846FFF76A
:10217000D5FD06460028F3D0284600F0C6FB2146D0
:102180000746012200F060FC384600F007FC6A6A4E
:102190008168074606F10C0004F0B2F8072333709B
:1021A000B470FB68F37031462846FFF701FED7E7AD
:1021B000B8F1000F11D04146832000F057FD40B127
:1021C000084B2846596900F08DFBEFF309839F60A7
:1021D000DC606FF00100BDE8F0816FF00200BDE847
:1021E000F08100BFF401002010B50446EFF3058331
:1021F00033B16FF005010020FFF71BFB002010BD7D
:10220000FFF7CBFD0028F4D12046DFF808C000DF3F
:1022100010BD00BF151E00002DE9F04106460F4617
:1022200090461C46EFF305834BB19EB930466FF0E4
:102230000301FFF7FEFA6FF00300BDE8F081FFF73E
:10224000ACFD0028F1D130462346DFF850C000DF56
:10225000BDE8F0813378082BE8D1002FE6D0002CC0
:10226000E4D106F10C00FFF759FD054688B1726A0A
:1022700039460C3004F044F8072328462B70AC7024
:1022800085F803806F60AE6000F038FA2046BDE844
:10229000F0816FF00200BDE8F08100BFFD1F00007B
:1022A000F8B504460F4616461D46EFF3058343B1C5
:1022B0008CB920466FF00301FFF7BBFA6FF0030003
:1022C000F8BDFFF76AFD0028F2D120462B46DFF863
:1022D00044C000DFF8BD2378082BEAD1002FE8D0F6
:1022E000002DE6D12046FFF7E9FE054670B100F16A
:1022F0000C01626A384604F003F80EB1EB783370D3
:102300002846EC6000F0FAF90020F8BD6FF00200FA
:10231000F8BD00BF01210000EFF310832BB9EFF3EC
:102320001180003018BF0120704701207047000065
:1023300070B5002835D0846890E8600064B114F06E
:10234000030302D1C2681B2A19D86FF008010020CC
:10235000FFF76EFA002070BDC368002BF5D1124B59
:10236000D3F8940030B901221C21D3F88000FFF784
:1023700061FC01E0FFF7D2FC044668B101230422AE
:10238000A37000232270E6706560A360E3602361A0
:1023900063612376204670BD6FF00401FFF748FAB1
:1023A000F8E705460646DAE7F4010020284B70B549
:1023B0005D6904460E4635B96FF00701FFF738FA3C
:1023C0004FF0FF3070BD10B10378042B07D02046CA
:1023D0006FF00301FFF72CFA6FF0030070BD037E6E
:1023E00053B9EA6AC5604261036102B11061EC62EF
:1023F00001232376002070BDC278D1070DD5C168B6
:10240000A9420AD1FF2B06D16FF00F01FFF710FA96
:102410006FF0020070BD0133EBE7002EF8D0930798
:102420000AD5E06895F9203090F920209A4203DA25
:1024300080F8203000F07DFA3146532000F016FC81
:1024400018B12946204600F04DFA6FF0010070BD2A
:10245000F401002038B52E4B5A69044632B96FF0AA
:102460000701FFF7E5F94FF0FF3038BD10B10378F1
:10247000042B07D020466FF00301FFF7D9F96FF066
:10248000030038BD037E33B96FF00E01FFF7D0F9BA
:102490006FF0020038BDC168914202D06FF00D01AB
:1024A000F4E7013BDBB2037623BB43690BB101695F
:1024B0001961216901B34B61E3789B0705D592F956
:1024C0002110D36AD3B982F82010A3687BB12046CB
:1024D00000F01BFA00220546114600F0B5FAEB6A3F
:1024E0006361002323610123E560EC622376002011
:1024F00000F07CFA002038BDD362DDE7986820B197
:1025000090F920008142B8BF01465B69DAE700BF5D
:10251000F40100202DE9F0410446002601270CB902
:10252000BDE8F081E378D4F814801B0710D5A368C8
:1025300026766BB1204600F0E8F9002205461146E8
:1025400000F082FAEB6AE56063612661EC6227764F
:102550004446E4E708B50246EFF3058333B16FF074
:1025600005010020FFF764F9002008BDFFF7D4FE45
:102570000028F4D11046DFF808C000DF08BD00BF16
:102580003123000008B50246EFF305833BB1104646
:102590006FF00501FFF74CF96FF0050008BDFFF77C
:1025A000BBFE0028F3D11046DFF804C000DF08BDF1
:1025B000AD23000008B50246EFF305833BB110469A
:1025C0006FF00501FFF734F96FF0050008BDFFF764
:1025D000A3FE0028F3D11046DFF804C000DF08BDD9
:1025E0005524000010B5D0E85F3F5A1C914200D836
:1025F0000022C0E8542F04B1F5E798B210BD0000E6
:1026000038B51B4CFFF782F8E3680133E360236DB4
:1026100003B1984700F0A8F9002000F0E7F9236C17
:102620002BB1A26BA1698A4202D0A163E36338BDDA
:10263000E36B0BB1013BE363E36B002BF7D1237A30
:10264000022BF4D1656A002DF1D095F9201092F992
:1026500020309942EBD1284600F061F9A06B00F0E0
:102660007BF9284600F0B8F9A563236CDEE700BFCC
:10267000F401002070B5204C04F1560504F15A060F
:10268000B4F85410D5E85F3F13B9BFF32F8F04E0BF
:102690005A1EC5E8502F00B1F4E79BB23BB3304659
:1026A000FFF7A0FFE36D53F8200000B30378013B70
:1026B000062BE5D801A252F823F000BFD92600006E
:1026C00081260000DF26000081260000E3260000AE
:1026D000E7260000EB260000236E9847D0E7636EE4
:1026E000FBE7A36EF9E7E36EF7E7236FF5E700205A
:1026F000BDE8704000F07AB9F401002070B5164CC6
:102700000546B4F8541004F15602D2E85F3F9942EE
:1027100002D8BFF32F8F04E0581CC2E8560F06B151
:10272000F3E79BB2994210D904F15800FFF75AFF22
:10273000E36D43F82050637A23B9084B4FF0805281
:102740005A6070BD0123A37270BD29460220BDE806
:102750007040FEF73BBF00BFF401002000ED00E039
:10276000EFF310832BB9EFF31180003018BF012075
:10277000704701207047000010B50123094A4370DB
:1027800090F92010536A1C321BB193F920408C42FF
:1027900005DCC2608360906003B1D86010BD1A464A
:1027A0009B68F1E7F4010020014B5869704700BFB6
:1027B000F401002008B5FEF751FFDFF810C000DF7C
:1027C0004FF0FF310020FFF732F8FEE7F12C000058
:1027D00012F0020F10B502F0010222D100F128031D
:1027E00082B153E8000F00EA01028A4203D0BFF32E
:1027F0002F8F002005E020EA010243E8002404B105
:10280000EFE710BD53E8000F084203D1BFF32F8F4D
:10281000002005E020EA010243E8002404B1F1E7CA
:1028200010BD806A01EA00031AB1994218BF002066
:1028300010BD002B08BF002010BD000010B5C469FA
:102840004269631C10D11AB9104B1B6B98421BD103
:10285000036903B15A6142691AB1136100234361EC
:1028600010BD0A4A136310BD1AB9084BDB6A9842BF
:102870000AD103691BB1D9695A612144D9614269FE
:10288000002AEAD1014AD36210BD00BFF401002042
:1028900010B500234370037083789A07044608D567
:1028A00013F0100F016B0E4B0FD0D3F88400FFF71D
:1028B00050FAA378DB0712D5094BD3F888002146DC
:1028C00038B1BDE81040FFF744BA586FFFF7E7F999
:1028D000EFE7D3F88000BDE81040FFF7E0B910BD86
:1028E000F401002010B561B191F9202083681BB17B
:1028F00093F92040944205DAC8608B60816003B18F
:10290000D96010BD18469B68F1E783682BB19A68BF
:10291000826002B1D0600022DA6018467047C36856
:1029200033B182689A60826802B1D3600023C360C9
:10293000704710B50146044664B12378012B07D0D7
:102940000846FFF7ECFF2046BDE81040FFF7CABF7E
:10295000E468F1E710BD000001230146437001481F
:10296000FFF7C0BF1002002038B50B4DEC6A94B1E0
:10297000E369013BE36173B92046FFF7D0FF2046CE
:10298000FFF7EAFF246924B1E369002BF4D00023A8
:102990006361EC6238BD38BDF401002090F822304C
:1029A000826B13F0100F0CBF602020201044704782
:1029B000074B596951B10B6B8A6B934203D21A686A
:1029C000044B9A4202D00120FEF700BE704700BFC0
:1029D000F4010020A52E5AE208B502234370024BF1
:1029E0009861FFF7E5FF08BDF401002010B5154B15
:1029F00004461A7A5969A8B9022A21D101B35C6A3E
:102A0000F4B194F9202091F920309A4218DD204643
:102A1000FFF785FF0846FFF7AFFE2046BDE81040F0
:102A2000FFF7DABF022A06D129B190F9202091F9E7
:102A300020309A42EEDC2046BDE81040FFF78CBF04
:102A400010BD00BFF401002038B504461546FFF75D
:102A5000A5FF01602046FFF7F1FE20461DB1BDE84D
:102A60003840FFF7C3BFBDE83840FFF775BF10B56A
:102A70004378332B04460CD1416A90F82320FFF7AA
:102A8000A7FE014628B120460022BDE81040FFF70E
:102A9000DBBF10BD2DE9F04F85B08246029128B909
:102AA0006FF00301FEF7C3FE0020B7E0002A48D014
:102AB000946816695569976944B1A30702D1D36830
:102AC000432B06D86FF008010020EBE7D368002BFA
:102AD000F8D13EB1700702D1002D40F0B8806FF000
:102AE0000A01F1E72FB17B1E372B03D96FF00B01E1
:102AF000EAE718271DB16907F1D1472DEFD95368CF
:102B0000D2F8009001934CBB534BD3F88800F0B13E
:102B1000FFF704F90446002800F096804FF0010802
:102B2000002E36D1DFF830B1DDB94C4ADBF8840035
:102B3000556DB0B1FFF7F2F8D8B148F0100806466D
:102B400023E091461827154616460192DCE701223C
:102B50004421D3F88000FFF76DF8DBE74FF0000861
:102B6000DEE732462946DBF87400FFF763F80028F9
:102B7000E5D1B8F1000F5BD0DBF88820002A50D0F7
:102B800021461046FFF7E5F8002448F00208002C23
:102B90005AD00123237063709DF80430E370002342
:102BA000A360E36023616361A361E36184F8233080
:102BB0006362A362E362A5F1400333447FB2A3637F
:102BC000FD22274B84F80280C4F8049084F820701A
:102BD00084F8217084F8222026636563C4F83CA041
:102BE00033601E4B1B685B0724D4A36B00201A1FA5
:102BF00003F1300142F8040F9142FBD1194A5A63A4
:102C00004FF08072DA63029A1A62C3F838A0124B4E
:102C1000154A1A662046FFF7E9FE204605B0BDE8D2
:102C2000F08F2146DBF880000392FFF738F8ABE71E
:102C30004446AAE7AD08113D4FF0CC33002DD4D067
:102C400046F8043F013DF9E76FF004013CE7002F2F
:102C50007FF449AF18274EE7F4010020DCAA0000FA
:102C6000A52E5AE2B52700006F2A000038B51E4C89
:102C7000237A022B36D16369002B33D0626A002A93
:102C800030D04A1C587015D1226B00216AB94FF020
:102C9000FF30D86159611A6151B10B611348FFF7D8
:102CA00034FEFFF799FE012038BD11461269EDE7A9
:102CB0002363F3E7E26A002012B1D569A9420BD27F
:102CC000D96158611A6158B10361002AE6D0D06910
:102CD0005361411AD161E1E71046491B1269EBE7E4
:102CE000E362F2E7002038BDF4010020100200206A
:102CF00038B5174D6C694CB32B7A022B26D16B6A11
:102D000023B3E06AFFF706FCA06918B10022114660
:102D1000FFF79AFEEFF309830E48A363FFF7F5FD73
:102D2000FFF75AFE00236B61E378DB0701D5A36947
:102D300023B12046BDE83840FFF7AABD04226270E7
:102D4000E3606B6BA36003B1DC606C6338BD00BFF4
:102D5000F40100201002002070B50E4D0E4EA96A3D
:102D6000A9B9B26D0D48FFF795FE041CA86218BF03
:102D70000124736E4BB1A96C39B9F26D0848FFF7A5
:102D800089FE0028A86408BF0024204670BD0124E5
:102D9000EFE700BFF4010020DCAA0000C515000029
:102DA000892E000010B50446EFF3058333B16FF0B0
:102DB00005010020FEF73BFD002010BDFFF7D0FC11
:102DC0000028F4D12046DFF808C000DF10BD00BFA6
:102DD000952A000008B5EFF3058313B1054B586938
:102DE00008BDFFF7BDFC0028F8D1DFF80CC000DFFC
:102DF00008BD00BFF4010020A92700000C4A536C55
:102E000030B5002413B11D69A9420AD20161846062
:102E1000C3601BB11D699860691A19612CB1E0602B
:102E200030BD1C46491BDB68ECE7506430BD00BF79
:102E3000F401002070B5134D6C6C04B32369013BA1
:102E4000236101262369D3B9E3680BB1A2689A60B4
:102E50006B6400231A4604F11801E86CFFF7DCF9F3
:102E600018B121460320FEF7B1FBE378012B07D10F
:102E700061692046FFF7C2FF6C6C002CE2D170BD87
:102E80006670F9E7F40100200D4B13B51A6E586E09
:102E90000C4C0821FFF7A8F9E06470B10A4B2365D8
:102EA0004FF0FF3300226946E06CFFF7F9F9002884
:102EB000F6D10198009B9847F2E702B010BD00BF21
:102EC000DCAA0000F4010020352E0000A8B10C4B54
:102ED0001B68B3FBF0F00138B0F1807F0DD2094BD5
:102EE000FF2283F82320A3F54F6306221A6058605F
:102EF00000209860044B187070474FF0FF30704707
:102F00009802002000ED00E0F014002008B5FEF764
:102F100073FC20B16C2202490248FDF7E1FD08BDB7
:102F2000CAAB0000BBAB00000749084A084B9B1A1C
:102F300003DD043BC858D050FBDC064880470648F8
:102F40008047064800470000C8B20000E0000020AB
:102F5000880C0020F92F0000DD320000490100003C
:102F6000FEE7FEE7FEE7FEE7FEE7FEE7FEE7FEE739
:102F7000FEE7FEE71030024B43F82010704700BF19
:102F800000000020094B1B78062B0CD1084B1B6856
:102F90001A0708D1074B186800F0F000A0F13003C1
:102FA0005842584170470020704700BFE00F00F0C2
:102FB000E40F00F0E80F00F00C4B1B78062B10D14B
:102FC0000B4B1B681A070CD10A4B186800F0F00372
:102FD000302B08D000F0E000A0F1400358425841E7
:102FE0007047002070470120704700BFE00F00F0DD
:102FF000E40F00F0E80F00F008B5FFF7DDFF28B19F
:103000007E4B7F4A1B68C3F304231360FFF7BAFFAC
:1030100010B17C4B7C4A1A60FFF7CEFF28B17B4B86
:103020007B4A1B68C3F342331360FFF7ABFF20B149
:10303000784AD36823F08073D360FFF7BDFF40B1B7
:103040004FF080430022C3F80C21C3F81021C3F8CD
:103050003825FFF797FF10B16F4B03221A60FFF777
:1030600091FF40B16D4B05221A6001229A67002240
:103070009A603F225A606A4B1B78062B09D1694B34
:103080001B68190705D1684B1B6803F0F003502B30
:103090006BD0FFF791FF28B1644B654A1B6803F0C2
:1030A0004F031360FFF788FF48B14FF08043D3F818
:1030B0000024D20744BF6FF00102C3F800245D4A28
:1030C000D2F8883043F47003C2F88830BFF34F8FD2
:1030D000BFF36F8F4FF01023D3F80022002A03DBD9
:1030E000D3F80432002B2FDA534B0122C3F8042506
:1030F000D3F80024002AFBD04FF010221521C2F88B
:103100000012D3F80024002AFBD04FF01023152220
:10311000C3F80422484B1A46D3F800140029FBD008
:103120000021C3F80415D2F80034002BFBD0BFF304
:103130004F8F4049414BCA6802F4E0621343CB60B1
:10314000BFF34F8F00BFFDE73D4B3E4A1A604FF083
:10315000804301220021C3F81825C3F804119A60A6
:10316000D3F80421002AFBD008BD4FF08052364B23
:10317000D2F80414C3F82015D2F80814C3F82415A3
:10318000D2F80C14C3F82815D2F81014C3F82C1573
:10319000D2F81414C3F83015D2F81814C3F8341543
:1031A000D2F81C14C3F84015D2F82014C3F8441503
:1031B000D2F82414C3F84815D2F82814C3F84C15D3
:1031C000D2F82C14C3F85015D2F83014C3F85415A3
:1031D000D2F83414C3F86015D2F83814C3F8641563
:1031E000D2F83C14C3F86815D2F84014C3F86C1533
:1031F000D2F84424C3F870254BE700BF2403001025
:103200004035014074C007400DF0ADBA44020010D3
:103210003C050040F0ED00E0A005004010560040E5
:10322000E00F00F0E40F00F0E80F00F0580200108B
:10323000E40E004000ED00E000E001400400FA056B
:10324000980200200090D00300C00040024803789C
:103250000BB100F0B7BC70479C020020024B01226A
:1032600000201A7000F0BCBC9C02002070B5194E02
:10327000002316F933506A1C06EBC30411D094F9ED
:103280000120B2F1FF3F0CD0854217D18A4215D1FF
:103290006368114A02F8130002EB43025C1C517090
:1032A0000AD10D4A92F90040A042134608D192F982
:1032B00001208A4204D10023184670BD0133D8E7AB
:1032C0000134F8D193F901200132F4D1187059700A
:1032D000F1E700BF58AC00009D020020064A0748F5
:1032E000002350F8231042F823100133372BF8D174
:1032F000034B9A60704700BF0000002000000000F0
:1033000000ED00E013B5052101A8FDF79AF99DF93C
:103310000440631C04D1202209490A48FDF7E0FB60
:103320001F2C04D908494FF4E87002F021F84FF03F
:10333000A0420123A340C2F80C3502B010BD00BF6B
:1033400058A2000093A20000ABA20000002343504B
:1033500082B043580193019B02B07047114A124B4F
:1033600010B54FF4A671C2F8083304461046FFF7B3
:10337000EDFF4FF488711046FFF7E8FFD2F80032F6
:103380000A4823F02003C2F80032282303FB04007C
:1033900001230374002380F824301023C2F804337F
:1033A00010BD00BF002000401000080024150020C0
:1033B0002DE9F041164F174CDFF85C80C4F8088304
:1033C000282545437E190435706901F00EFA202343
:1033D000B3614FF4A6712046FFF7B8FF4FF4887130
:1033E0002046FFF7B3FFD4F8003243F02003C4F8BF
:1033F00000320023B3743D440122C4F83455C4F8AC
:103400003825337486F82430C4F80483BDE8F0818D
:1034100024150020002000401000080002494FF44D
:10342000E87001F0A5BF00BFABA20000F7B53F4DAB
:10343000D5F81031B3B14FF488712846FFF786FFF5
:103440003B4B1A7C1C46002A3DD000221A749A730A
:103450001B68DA6B196C2AB1C80503D54FF480716B
:1034600059649047314CD4F84C31D3B1D4F8103171
:10347000BBB94FF4A6712046FFF768FF2C4A937C36
:1034800083F0010304331344C4F834350123C4F832
:103490003835106A411C04D09169032942D900F0E3
:1034A00059FD2248D0F820315BB14FF49071FFF7FD
:1034B0004DFF204B01221A701F4B4FF48012C3F8AE
:1034C000002103B0F0BD9A7C82F00103A374D5F80B
:1034D0003C55002DC6D00335D61C15442644254442
:1034E00004F118070FE001A9606901F0A0F960B1CB
:1034F00016F8013F037001A9606901F0C2F90121CA
:103500003846FDF7FCFBAE42EDD1637C002BA9D120
:103510000A4A012313706374074B4FF48012C3F8F7
:1035200000219FE782F82430BBE700BF0020004065
:10353000241500204D15002000E100E04C1500206E
:1035400010B5184B1A787AB100221A70164BD97B35
:10355000D9B1DA735A731B681A6B596B22B14907D8
:1035600002D5042199639047104B1A78CAB1002103
:1035700019700D4B59741B681A6A586A8AB1800712
:103580000FD5D869BDE81040104759731B681A6AF7
:10359000596A002AE8D0CC07E6D50121D8699047BE
:1035A000E2E710BD4D150020241500204C15002029
:1035B000F8B5044628B9534953484FF41572FDF73E
:1035C0008FFA4568681C14D01F2D01D9FFF726FF1C
:1035D0004FF0A0430122AA40C3F8082566681F2EB9
:1035E0001D4601D9FFF71AFF06F5E076032345F8DB
:1035F0002630A568691C0AD01F2D01D9FFF70EFFE0
:1036000005F5E0754FF0A043002243F825203F4D1B
:10361000A2686168C5F80C15C5F81425227D012A39
:1036200014D1E668721C0AD01F2E01D9FFF7F6FEEE
:1036300006F5E0764FF0A043002243F82620E36829
:103640004FF0FF32C5F80825C5F810352368304D16
:103650002169282606FB03531A6A914248D0187F35
:1036600000F02AFF20B140F2812226492948A6E72E
:10367000236806FB03531B6A013302D0206900F064
:10368000DBFB2069431C2DD0234900F053FB0828A5
:1036900006D1206900F0D0FB1F49206900F04AFBE9
:1036A00010B14FF42672E0E722682069282606FB55
:1036B0000252177F00F02CFC18490246384600F0F1
:1036C000C5FE10B140F29E22CFE7236806FB0353EC
:1036D000187F00F0DBFE10B140F2A122C5E720699F
:1036E00000F0E4FB2368282202FB035523692B62C8
:1036F000227D637D1343054AC2F86C35A369C2F885
:103700002435F8BD63AC0000AAAC000000200040E6
:1037100024150020AEAC000060AC00001021004079
:1037200070B5044628B940F2023218491848FDF72E
:10373000D7F90568174E28226A43B118B25890424B
:1037400002D190F82C3083B12046FFF731FF2823B7
:103750006B432846F450002384F82C3094F82D3025
:103760004BB1BDE87040FFF7F9BD90F82D200B7C00
:103770003AB94BB12846FFF71BFE074B01221A60EE
:1037800070BD0BB92846ECE770BD00BF63AC00000C
:10379000AAAC000024150020002000402DE9F041D3
:1037A0000F469046044628B94149424840F2493202
:1037B000FDF796F9404B414D1A7892B300221A70EA
:1037C00000F00EFE00F0ACFA08B900F07DFA3C4EB5
:1037D0003C491420FFF7CEFB0721142000F00CFA1F
:1037E000012321223849304600F0ECFF00236E61AE
:1037F0002B60364800F0FEFD064620B140F26A32EA
:103800002B493348D4E7334A33494FF0FF332B6217
:103810000220C2F80833FFF7ADFB3146022000F06A
:10382000EBF941463846FFF721FD28232060584335
:103830002B189E680136012E9E601AD000236375F6
:1038400023752362254B264AA2619C424FF0FF322A
:103850006760C4F80880E26022614FF0010301D183
:10386000204A136084F82C302046BDE8F041FFF771
:1038700057BF184A0823C2F800350C304FF0FF3309
:10388000C2F80C350544C2F814354FF08053C2F825
:1038900024354FF49071C2F844551046C2F848657B
:1038A000FFF754FD9660D2F81C31002BFBD0C5E722
:1038B00063AC0000AAAC00009F0200202415002089
:1038C0001415002041350000F1140020401500209F
:1038D000AEAC0000002000402D3400005015002048
:1038E00000502700BC15002008B528B940F202425C
:1038F00030493148FDF7F4F8B1F5166F35DBB1F515
:10390000965F35DBB1F5165F35DBB1F5615F34DB12
:10391000B1F5964F33DBB1F5E14F32DBB1F5164F20
:1039200031DBB1F5614F30DBB1F5963F30DBB1F5FE
:10393000E13F30DBB1F5613F2FDB204B99422FDDBA
:10394000B1F5E12F2FDBB1F5612F2FDB1C4B994235
:10395000D4BF4FF070614FF08051836999421EBF10
:103960000123816180F82C3008BD4FF49E21F4E7DB
:103970004FF41D21F1E71349EFE71349EDE7134930
:10398000EBE71349E9E71349E7E74FF41D01E4E7E3
:103990004FF46B01E1E71049DFE74FF0EB71DCE733
:1039A0004FF06C71D9E74FF08061D6E74FF0E861D6
:1039B000D3E700BF63AC0000AAAC00008FD00300C7
:1039C0003F420F0000B013000050270000F03A0003
:1039D00000A04E0000C0750000903A01F7B528B96C
:1039E00040F2065219491A48FDF77AF8002280F889
:1039F0002D200568174CFFF793FE282202FB054295
:103A000056697289F38892B29BB29A42F9D001A9A1
:103A1000304600F046FF01A90746304600F06CFF33
:103A200028235D4305F1180001212044FDF754F9D6
:103A3000631993F824202AB1002283F82420186AFD
:103A400000F088FA387803B0F0BD00BF63AC000026
:103A5000AAAC00002415002037B50D4628B940F265
:103A6000375215491548FDF73BF80468FFF758FE33
:103A7000134AD2F81C31002BFBD0124800230360FC
:103A800003680193019B104828236343C4180C3337
:103A9000257303440124C2F844354FF49071C2F8F1
:103AA00048450748FFF752FC4FF48073C2F80433CF
:103AB000946003B030BD00BF63AC0000AAAC00004E
:103AC000002000401C2100402415002010B528B91A
:103AD00040F25F520A490B48FDF702F8002280F8D5
:103AE0002D200468FFF71CFE074B282202FB04343C
:103AF00063695889DB88C01A18BF012010BD00BF58
:103B000063AC0000AAAC00002415002008B528B959
:103B100040F27C520A490B48FCF7E2FF03680A4A6C
:103B2000282101FB03235B7BDBB233B9074BD3F8BE
:103B30001C01003018BF012008BD002008BD00BFD7
:103B400063AC0000AAAC0000241500200020004057
:103B50000E4B1A6942F010021A61F1EE102A22F09F
:103B60009F02E1EE102AF1EE102A094A4021C2F824
:103B700084114FF080420121D16740BF20BF5A68B5
:103B8000044B134003B920BF704700BF00ED00E0B5
:103B900000E100E03FF0439E0748027808B512B10B
:103BA000064B01221A60FFF7D3FF037813B1044BD1
:103BB00001221A6008BD00BFD41700200490004005
:103BC0000090004072B6054A1378191C18BF0121F5
:103BD0000133017013700020704700BFC015002032
:103BE000044B20B11A78013A1A70002070471870FF
:103BF00062B6FAE7C0150020072938B504460D461D
:103C000004D912494FF4927001F0B2FB002C4FEA34
:103C1000451514DB04F1604304F01F02640903F549
:103C20006143A400EDB204F1604483F8005304F54D
:103C3000614401239340C4F88031236038BD04F00F
:103C40000F04034BEDB21D5538BD00BFC1AC0000E1
:103C500014ED00E000F1804000F5C040002382B088
:103C6000036003680193019B02B07047054B4FF05E
:103C7000FF32072843F8202084BF1B1883F8482010
:103C8000704700BFC415002002494FF4E87001F0EE
:103C90006FBB00BFABA200001F2838B504460D461D
:103CA00001D9FFF7F1FFA00000F1A040D0F80037E4
:103CB00023F44033C0F80037D0F8003743EA054317
:103CC000C0F8003738BD000010B5134C94F85430DC
:103CD000FBB9FF21E2180133202B82F83010F9D113
:103CE0000021C8B2FFF7C2FF01310C29F9D1072129
:103CF0000620FFF781FF4FF4BE70FFF7ABFF074BC5
:103D00004FF00042C3F80423012384F8543000200C
:103D100010BD082010BD00BFC41500200060004089
:103D2000034B93F85400003018BF0120704700BFC8
:103D3000C41500201F2870B504460D4604D93C491F
:103D400040F2271001F014FB3A4E96F85430012B44
:103D500004D037494FF4947001F00AFB25B9344977
:103D600040F2291001F004FB331993F9302001329D
:103D70005BD1AA78002A4AD0002356F823100131DB
:103D80004FEA83023ED1311902F1804202F5C0426E
:103D900081F830300021D2F8100546F823102B7836
:103DA000697820F498101B04090520F4F85001F4F8
:103DB000801103F44033C2F810050B432102D2F8FE
:103DC000100501F4F8510B430343C2F810356B782A
:103DD000012B4FF001051ED11F2C01D9FFF754FF15
:103DE0004FF0A043A540C3F808551F2C01D9FFF799
:103DF0004BFF04F5E0744FF0A043032243F8242066
:103E0000002070BD0133082BB7D1042070BDFE2205
:103E100083F83020DBE71F2C01D9FFF735FF4FF087
:103E2000A043A540C3F80C55DFE7082070BD00BFD4
:103E300022AD0000C41500201F2838B5044604D95F
:103E400017494FF4AE7001F093FA164D2B1993F900
:103E50003030013304D1124940F25D1001F088FA8C
:103E6000291991F83000072809D8FFF7FFFE91F9CA
:103E700030300D4A03F5A273002142F82310254487
:103E8000FF231F2C85F8303001D9FFF7FDFE04F524
:103E9000E0744FF0A043022243F8242038BD00BF55
:103EA00022AD0000C4150020006000401F2838B576
:103EB000054604D914494FF4C57001F059FA134C62
:103EC000631993F93030013304D10F4940F28B105C
:103ED00001F04EFA631993F83030072B04D90A49E0
:103EE0004FF4C67001F044FA2C4494F930309B0032
:103EF00003F1804303F5C043D3F8102542F00302D9
:103F0000C3F8102538BD00BF22AD0000C415002045
:103F10001F2838B5054604D90C494FF4CF7001F07D
:103F200027FA0B4C631993F83030072B04D9074953
:103F300040F29F1001F01CFA601990F930008000E7
:103F4000C0B200F1804000F5C04038BD22AD000095
:103F5000C41500201F2838B5054604D913494FF46D
:103F6000F47001F005FA124C631993F93030013303
:103F700004D10E4940F2E91001F0FAF9631993F8FF
:103F80003030072B04D909494FF4F57001F0F0F9EE
:103F90002C44012294F9303018339B00DBB203F13A
:103FA000804303F5C0431A6038BD00BF22AD000056
:103FB000C41500201F282DE9F04105460F46904604
:103FC00004D9384940F2F71001F0D2F9364E73198E
:103FD00093F93030002B62DAF978002915BF0023FD
:103FE000082308200C20834202D10420BDE8F08180
:103FF00056F8232001321AD172195CB282F830408F
:1040000046F8238011B9334483F84850BB7883B90C
:104010001F2D97F8018001D9FFF736FE05F5E073F3
:104020004FF0A0414FEA880241F823200EE001330F
:10403000D9E71F2D01D9FFF727FEAB0003F1A043FD
:10404000D3F8002722F00202C3F80027F8783A7864
:10405000D8B1A30003F1804303F5C0432D02D3F888
:10406000101521F4473121F44071C3F810151204E2
:10407000D3F8101502F4403205F4F85515430D43FA
:10408000C3F810550020BDE8F081083C344494F892
:10409000505045EA821284F85020BDE8F081082093
:1040A000BDE8F08122AD0000C41500201F2870B5C6
:1040B00005460E4604D9274940F2252001F058F95B
:1040C000254C631993F93030002B04DA214940F272
:1040D000262001F04DF9631993F93020072A1ADDE3
:1040E000224492F848309B09032B10D11F2D01D98F
:1040F000FFF7CAFD4FF0A043D3F81035EB40DB07C4
:1041000007D402212846BDE87040FFF7C5BD012B4A
:10411000F7D00321F6E7D3B2072B1AD8930003F1A7
:10412000804303F5C04302F14000D3F8101580002E
:1041300041F00101C3F8101580B2FFF78BFD46B1C5
:1041400054F822302BB1012303FA02F2034BC3F8D7
:10415000042370BD22AD0000C415002000600040A3
:104160001F2838B5054604D9174940F2522001F0FE
:10417000FFF8164C621992F93020002A04DA12492D
:1041800040F2532001F0F4F8631993F93020072A24
:1041900005DD28460021BDE83840FFF77DBDD3B2DC
:1041A000072B10D8930003F1804303F5C043D3F8E5
:1041B000101521F00101C3F81015012303FA02F2D2
:1041C000034BC3F8082338BD22AD0000C4150020FE
:1041D000006000401F2838B5054604D9194940F24F
:1041E000632001F0C5F8184C631993F93030002BA7
:1041F00004DA14494FF4197001F0BAF82846FFF7B1
:10420000AFFF631993F93030DAB2072A9FBF03F585
:10421000A2730E4A002142F823101F2D01D9FFF787
:1042200033FD4FF0A04305F5E072022143F8221060
:104230002C4494F83000FFF719FDFF2384F8303048
:1042400038BD00BF22AD0000C41500200060004052
:104250002DE9F04F87B000245C4A5D4E5D4D03941C
:104260000121A2F5C04052F8043B012B80B206D1D7
:10427000D6F804330B4202D0FFF7ECFC0C43AA4201
:104280004FEA4101EDD1544B1B68012B0AD14FF489
:10429000BE70FFF7DFFC4FF0A04344F00044D3F8BA
:1042A0001035039314F0FF0F37D1002C80F28A8071
:1042B00000230493494F4FF0FF33059300252E460A
:1042C0004FF0A049BB1993F95040631C65D0E4B28C
:1042D000012224F0C00A04F0070B02FA0BFB4FEA9C
:1042E000DA0306AAD11811F8042C12EA0B0F54D0E5
:1042F00007EB0A02A40992F9302057F82280B8F19E
:10430000000F26D1032C48D10DF1100E1EF803002A
:1043100040EA0B000EF803001DE0304F0126002597
:10432000344210D0AB0003F1804303F5C043D3F80F
:104330001005D3F8101557F8253023B1C1F301410A
:10434000C0F3042098470135082D4FEA4606E7D10F
:10435000ABE7032CD8D0BAF11F0F03D90191FFF7B7
:1043600093FC019911F80C1C0AF5E07311EA0B0F8C
:1043700059F82330C3F301431ED0022B0DD1032C77
:1043800005D121465046FFF787FC0135EDB2B8F163
:10439000000F02D021465046C0470136042E91D16D
:1043A00085B14FF0A043039AD3F810359A4209D053
:1043B0000393049B059381E7032BEED1032CE6D1F5
:1043C0000221DFE707B0BDE8F08F00BF00610040C9
:1043D00000600040206100407C610040C415002066
:1043E000034B187810B901221A7070478520704766
:1043F000201600202DE9F84F124D134F80464FF044
:10440000000A04264FF001095FFA8AFB002009FA2E
:104410000BF400F08DFF2C4208D03B6814EA030235
:1044200001BF23433B6088F800B01646002000F02F
:104430008FFF1EB1A5430AF1010AE5D13046BDE860
:10444000F88F00BFFFFF0F001C16002010B5A1B1B0
:104450009AB101238340C3F3130484B10A4C246846
:1044600023420ED0C00000F1804000F5F830C0F8C3
:104470001015C0F81425002010BD0E2010BD072017
:1044800010BD082010BD00BF1C160020012303FA38
:1044900000F0C0F313031BB1054B1B68184204D096
:1044A000044BC3F80405002070470820704700BF84
:1044B0001C16002000F00140012303FA00F0C0F3B5
:1044C00013031BB1054B1B68184204D0044BC3F8FF
:1044D0000805002070470820704700BF1C16002008
:1044E00000F00140104B1A6813B5D2B10F4CD4F84C
:1044F0000823D20715D500221A601B68019302A970
:10450000019BD4F8083501F8053D094800F07AFE12
:10451000074800F063FE20B1064A0123C4F80833BF
:10452000136002B010BD00BF00D1004000D00040B9
:1045300084AD000004D000400D4B984216D003F526
:104540008053984212D003F5805398420ED003F561
:10455000805398420AD003F58053984206D003F561
:10456000805398420CBF10200020704710207047E5
:104570000040014005282DE9F74F054603D922499F
:10458000D22000F0F5FE6F1E204E56F827301BB9E2
:104590001D49D42000F0ECFE05F5802414344FF0C2
:1045A000000ADFF870902403D346052D5FFA8AF8DD
:1045B00003D8174B5B5D434507D856F8273059465B
:1045C0002846984703B0BDE8F08F2046FFF7B4FFB8
:1045D000804504D3494640F22B1000F0C9FE4FEA53
:1045E000880303F58073E15859B10022E25001219C
:1045F000E358019301FA08F14BEA0101019B1FFA0C
:1046000081FB0AF1010AD0E7F5AD00007016002029
:1046100098AD00009EAD00000420FFF7ABBF052061
:10462000FFF7A8BF2DE9F3414A4B0779904602688E
:104630009A4204460D4603D147494B2000F098FEAC
:104640002268464B9A4203D143494C2000F090FE29
:104650002268434B9A4203D13F494F2000F088FE25
:104660002268404B9A4203D13B49522000F080FE21
:104670001DB93949572000F07BFE3B4E0C2303FB4C
:1046800007631B7A002B60D1B8F1000F5FD023685D
:10469000304A93420FD002F5805293420BD002F57C
:1046A0008052934207D002F58032934203D002F544
:1046B0008052934202D1AB78032B03D92649702054
:1046C00000F056FE0C237B43F21846F803806B681B
:1046D00053606279503292004FF4A07300219A42E5
:1046E00020682CD1E97840F30730FFF785FA23687A
:1046F0006A78D3F8041502F0030221F003010A439B
:10470000C3F80425D3F80815AA7821F0030102F0B4
:1047100003020A43C3F80825D3F810152A7821F0BC
:104720000F0102F00F020A43C3F810250C2303FB0C
:10473000076601233372002002B0BDE8F081C1504A
:10474000C058019001980433C9E70820F4E7072016
:10475000F2E700BF0080004050AE00000090004033
:1047600000A0014000B001408416002038B50B4C79
:1047700002790C2101FB02420546127A012A03D07C
:104780000749A02000F0F4FD2B6801221A602B7964
:104790000C2202FB034302221A7238BD8416002049
:1047A00050AE000010B54FF480348C40006833B137
:1047B000C0F8044301F5A87140F8212010BDC0F8ED
:1047C0000843F7E710B561B1B2FBF3F403FB14241F
:1047D000A4B244B980E8120084608281C38120467B
:1047E00010BD0E2010BD092010BD82B050E8022F70
:1047F000C188B2EB324F4FF0000317BF92B241EACB
:10480000014142EA014104E04268B2EB324F08BF85
:10481000012340E80212002AE8D18DF807309DF804
:104820000730002B0CBF1120002002B0704737B5B5
:1048300050E8013F9DB2C48925448489A54228BF20
:104840002D1B0489A54202BFBFF32F8F002207E072
:10485000C5EA030540E80154002CE9D14FF00102FC
:104860008DF803200193019B9DF803200B6002F05B
:10487000FF0322B10B880068184403B030BD18460E
:10488000FBE70A884B889A4209D150E8012FC2EA17
:10489000024240E80123002BF7D10120704700209D
:1048A000704737B550E8023F1FFAA3F5C488A54208
:1048B00002BFBFF32F8F00220DE0C48925448489F5
:1048C000A54228BF2D1BC3EA054540E80254002C31
:1048D000E8D14FF001028DF803200193019B9DF870
:1048E00003200B6002F0FF0322B14B8800681844DC
:1048F00003B030BD1846FBE70A884B889A4209D1BD
:1049000050E8022FC2EA224240E80223002BF7D1EE
:10491000012070470020704770B5064E0546002400
:1049200056F824300BB1284698470134042CF7D1AF
:1049300070BD00BF9C1600200B4A0C4B5188142000
:1049400000FB0131CB6833B90420496810700122A3
:10495000074800F000BC05230649137002238B8032
:10496000012200230968F3E7B4160020CC160020CA
:10497000740C00200817002007B500230549009398
:10498000054A09680548082300F0AFFB03B05DF84D
:1049900004FB00BF08170020BCAE0000740C002010
:1049A00007B50023009301460823034A034800F09B
:1049B0009CFB03B05DF804FBB4AE0000740C002057
:1049C00013B500230C46009301460423074A084808
:1049D00000F08BFB38B9074B142202FB043401238F
:1049E000237402B010BD0E20FBE700BFB0AE000084
:1049F000740C0020CC16002037B50A480A4B4268D8
:104A00009C88196853880325033305709BB20020E6
:104A100000909B0001EB8401044800F066FB03B0AA
:104A200030BD00BFB416002008170020740C002011
:104A30004388033300EB8303994209D382884FF6FE
:104A4000FF739A4206D00088B0FA80F040097047A0
:104A50000220704701207047144A142303FB0020F2
:104A600070B50B6844680D4604F5805653B15C88F8
:104A7000033403EB8404A64202D9236801330BD12B
:104A8000002070BD0834F6E72C60012070BD6388FB
:104A9000033304EB8304EEE731462046FFF7C8FFFB
:104AA0000128F4D0F0D30228EAD0E4E7CC160020A5
:104AB000436873B505460C466BB3254AD1688B42F3
:104AC00029D31269934226D813F0030223D1214936
:104AD0000089098988421ED12868996888421AD1BC
:104AE0001D494868834203D900F5805083420ED3A4
:104AF0008A6993420DD902F58052934209D201236B
:104B000023800020B0FA80F0400902B070BD134647
:104B1000F6E70A20F6E7002323801E462388012BB0
:104B200001D90020F1E7019601A92088FFF794FF41
:104B300018B9238801332380F0E7019B2A6899681C
:104B40009142F1D16B60034B1B892B81DDE700BFE4
:104B5000740C0020B4160020CC1600202DE9F84378
:104B60001C461E4B1B7806460F4615467BB38AB380
:104B700084B3DFF870804FF01409A388012B02D9A9
:104B80000A20BDE8F88309FB03F318F803302BB9BA
:104B90002146A088FFF760FF20B92060A388013379
:104BA000A380EAE723681EB1998832889142EFD149
:104BB00047B99A6885E80C00094B1B892B810020B6
:104BC000BDE8F88319883A889142E1D1F1E70220E3
:104BD000BDE8F8830520BDE8F88300BFAC160020CF
:104BE000B4160020CC16002008B5074B191D5888B4
:104BF000FFF732FF18B1BDE80840FFF7FDBEBDE882
:104C00000840FFF799BE00BFB41600202DE9F04719
:104C10009C4FDFF8988288B004463E463B6823B933
:104C200041469948FFF73DFE3860336823B99749FC
:104C300040F2795000F09CFB35682A78531E052B12
:104C400000F2E081DFE813F0060073007300F40067
:104C5000F4004F0124B18E4B00225A60012425E05C
:104C60002B79032B1ED8DFE803F016023C47894955
:104C70000B78022B084632D00B7D022B4FF001033C
:104C800040F01B8214225343C2180020C8545068BD
:104C9000FFF786FE03E001232B71FFF76DFE00286E
:104CA00000F0C0807A4B00225A600E2414220021AA
:104CB00003A801F023FC41F61D539C4233681A7887
:104CC00008BF0024013A0494052A00F2AF81DFE80E
:104CD00012F09B019F01CC01DC01E801F2010023ED
:104CE000D0E76D496D48002302222B718A80012292
:104CF000096800F030FAD2E7674C4FF0000985F8F8
:104D000004902068634DFFF74BFE654BD4F800E03C
:104D10005A8814235343EA1805F803905168216018
:104D2000A188C2F804E011810222A280B7E7B5F899
:104D30001490DFF860A114236CB103FB09A3EA8887
:104D40001889D11C01441981C2F57F425989FD326D
:104D50000A445A8182E703FB09A319895C68AB7D89
:104D600004EB8104062B05D8DFE803F01F452D3B3B
:104D700014515F000F24142303FB09A3EA88188948
:104D8000D11C01441981C2F57F425989FD320A4480
:104D90005A818BE74348444900234360AB69036071
:104DA000FFF786FE002800F02B810223AB7500235D
:104DB00000930423EA182146384800F096F90028A9
:104DC00030D00E24D7E72B69002B14BF0323012317
:104DD000AB750023009305F10C02042304F10801D4
:104DE000EAE70123AB750022EB8800929B002A6959
:104DF00004F10C01E0E7032A0CBF05230623AB7581
:104E000000230093042305F10802E118D4E70623E8
:104E1000AB75254B1988234B5868FFF7D1FD044625
:104E20000028A8D108B0BDE8F08741F61D54A2E7DC
:104E3000002C7FF413AF2B79012B39D005D3022B33
:104E400041F61D5418BF0F2430E702232B71039441
:104E500004940594EB6803930DF10A0103A8FFF78E
:104E600027FE002800F0CC800498BDF80A10838843
:104E7000EB8003882B81FFF7A3FD0446002C7FF411
:104E800015AFCFE7C8160020F4160020C4AE00000E
:104E9000AC160020CC16002008170020740C00204F
:104EA000B41600209016002010170020C416002011
:104EB000DFF82C9221464B4603AAA81DFFF74EFEB1
:104EC000044650B9B9F804100498FFF779FD044678
:104ED0000A2CD3D141F61D54E8E6082200214846A9
:104EE00001F00CFBF4E7002C7FF4B8AE754B1A7B95
:104EF0005AB11C731A78013A062A00F28380DFE85F
:104F000002F04A5F676A816D78001A78072AF1D843
:104F100001A151F822F000BF394F0000F54E00000A
:104F2000F54E00005F4F0000734F0000934F0000EC
:104F3000934F00005B4F00001A89634901321A81C8
:104F400000225A801A730A78B2FA82F252099A72CF
:104F50000A7DB2FA82F25209DA72012207E05B4955
:104F600058688A884088033202448A8002221A7074
:104F7000C0E7554C5A885549142505FB024208687C
:104F8000546850608888108102228A800C60062252
:104F9000EDE70722EBE79A7A32B14B4900229A7289
:104FA000CA680AB9097C51B9DA7A62B10022DA72A8
:104FB000454A116A39B992F8242022B101225A8057
:104FC000FFF712FE59E700221A705A805A6081E7F3
:104FD000FFF712FD51E7FFF7AFFC4EE706221A700C
:104FE000394A5B88142101FB03235868FFF7D8FC7A
:104FF00043E707221A7000225A60FFF7BDFC3CE726
:105000000A2453E60F2451E600238DF80C300DE0FE
:1050100001228DF80C201A89ADF818209A88ADF875
:105020001A20DB68059300238DF81C3003A8284D57
:10503000FFF772FC0023414626483360FFF75CFC13
:105040002B6823B9244940F2712000F091F9012323
:1050500055E8001FA1EB030245E8002090F0000F87
:10506000F6D1002A7FF4DAADDCE602228DF80C20BE
:105070001A89ADF818209A88ADF81A20DA680592D6
:105080009B7D9A1F53425341CEE703228DF80C209B
:10509000DA88ADF818201A89ADF81A20DB68059374
:1050A000C4E704228DF80C20DB88ADF8183000230B
:1050B000ADF81A30F3E70523A7E7084A1370002379
:1050C000536007E7B4160020CC1600200817002014
:1050D00004170020F4160020C4AE0000AC16002017
:1050E000141700204068FFF791BD2DE9F043DDF86B
:1050F0001C809646F0B1EAB1D0F800C0BCF1000FB8
:105100001BD0EBB14768D7F80490B3FBF9F709FB64
:105110001737AFB942EA010E1EF0030F07D1C76877
:10512000B94204D34C1E05691C44AC420BD9102073
:10513000BDE8F0830E20BDE8F0830820BDE8F083D1
:105140000920BDE8F083CDF81C80DCF80C40A446B3
:10515000BDE8F0436047F0B5B8B1D0F800E0BEF16B
:10516000000F14D0AAB14768D7F800C00CF1FF3780
:105170000F4208D1C768B94205D34C1E05690CFB24
:105180000244AC4207D91020F0BD0E20F0BD08202B
:10519000F0BD0920F0BDDEF81040A446BDE8F040A7
:1051A0006047026813685268934291BFD01A8068C2
:1051B0000130801888BFC01A7047000038B50C460F
:1051C000054618B90449362000F0D2F8AB68A3426E
:1051D0008CBF601C002038BD15AF000038B50446F8
:1051E00018B90749492000F0C3F8236820461D6814
:1051F0005968FFF7E3FF2B1A5842584138BD00BFEA
:1052000015AF00002DE9F0410D46044618B92B49B1
:10521000542000F0ADF81DB92849552000F0A8F839
:10522000002000F085F82046FFF7D8FF804610B137
:10523000237C002B3BD1276820467E687968FFF7E6
:10524000BDFF7860B8F1000F05D0276820463968A7
:10525000FFF7B4FF3860E2686068531E072B20D860
:10526000DFE803F004101F141F1F1F182B7883554D
:105270002046FFF796FF23689A68904200D998600D
:10528000002415E02B8820F81630F1E72B6840F851
:105290002630EDE7D5E9002300EBC600C0E9002386
:1052A000E6E7294602FB060001F02AF8E0E70424BD
:1052B000002000F04DF82046BDE8F08115AF000059
:1052C000084B1B68DB0700D5FFDEBFF34F8F064995
:1052D000064BCA6802F4E0621343CB60BFF34F8F02
:1052E00000BFFDE7F0ED00E000ED00E00400FA058E
:1052F00072B6024A13680133136070471C1700200E
:10530000034A1368013B136003B962B6704700BFDC
:105310001C170020EFF30583C3F308032BB9EFF349
:105320001480C04300F0010070470120FAE700003C
:1053300008B5FFF7EFFF012803D00449432000F030
:1053400017F8BDE80840FFF7D3BF00BF6EAF0000FD
:1053500008B5FFF7DFFF012803D00449512000F012
:1053600007F8BDE80840FFF7CBBF00BF6EAF0000F5
:1053700007B5ADF8000001916A46002144F2020031
:10538000FFF79EFF03B05DF804FB00000D4B07B56F
:105390001A6842B100221A601B680B4A0193019BF4
:1053A000136801331360094B1A68094B0AB91A785C
:1053B0002AB11A780AB100221A70FBF749F903B032
:1053C0005DF804FB04110140241700204411014042
:1053D00020170020F0B5214F3A7885B062B1204BFC
:1053E00000221A601B680193019B1E4B4FF4003290
:1053F000C3F8082305B0F0BD4FF08043C3F8042183
:1054000001229A60D3F80421002AFBD0154C164BD8
:10541000164900250126656011201E60FDF7AAFDD2
:105420000F4BC4F808551D601B680393039B104B7A
:105430001D601B680293029B4FF00213C4F84833AF
:1054400002214FF40033C4F804131120C4F80833C8
:10545000FEF7D2FB26603E70CCE700BF211700208C
:105460004411014000100140041001408D53000020
:1054700004110140094B01221A60094A4FF400331C
:10548000C2F80833074AC2F88030BFF34F8FBFF32A
:105490006F8F054B00221A70704700BF0410014047
:1054A0000010014000E100E02117002073B5044620
:1054B0000E461546FBF7D8FB104B24F07F40D3F87F
:1054C0000445A04204D0013424F07F44A04202D11C
:1054D000023020F07F4006F5A87643F82600D3F886
:1054E0000413294006D1064A116012680192019AFC
:1054F000C3F80453FBF7CEFB02B070BD00100140AF
:10550000441101400A4A1268C240D20703460ED530
:10551000084A115C11F0020F03D0C90601D4FEF74E
:105520008BBCD25CD20602D51846FEF753BE70473C
:10553000C8170020A817002002494FF4E870FFF7B1
:1055400017BF00BFABA200001F2810B5044601D949
:10555000FFF7F2FF04F5E0734FF0A04252F823305A
:10556000C3F30143032B0D4B1B6823FA04F30CBF59
:1055700001210221D80710D5094B01291B5D02D159
:105580005A0602D410BD9B0607D5064B064A1B6877
:1055900052F82400BDE81040184710BDCC17002079
:1055A000A8170020D01700202817002073B5384D09
:1055B000384E2B5C13F0010F044601D1D9065ED59D
:1055C0002B5D9A0704D5C3F30013DAB2002A40D04A
:1055D000002203238DF807208DF806208DF8043073
:1055E0002B5DC3F38103D9B2012901D003291FD157
:1055F0008DF805302B5DD8061DD501A9264A204619
:10560000FEF7D8FC254B1B68E340D90708D52B5D76
:105610005A0601D49B0603D501212046FEF746FD1C
:10562000012303FA04F433681C43346002B070BDF4
:105630008DF80520DEE71F2C9DF8055001D9FFF7F6
:105640007BFF04F5E0734FF0A042AD0042F8235019
:10565000E6E71F2CADF804208DF8063001D9FFF7DE
:105660006BFF4FF0A04301A9D3F80435E34003F0EA
:10567000010320468DF80530FEF75CFBD0E70123DF
:1056800003FA00F4336823EA04033360CEE700BF73
:10569000A8170020C817002049550000CC1700208B
:1056A0004B1C10B50446017014D0C9B21F2904D98F
:1056B000522209490948FBF713FA09490620FDF768
:1056C00059FCFEF701FB074994F900208B5C43F07D
:1056D00001038B5410BD00BFCEAF000006B0000028
:1056E00051420000A817002038B590F90040631C13
:1056F00004D165220D490E48FBF7F2F90D4B1B5DF5
:1057000013F0020F4FF0A04509D01F2C01D9FFF76D
:1057100013FFD5F80405E04000F0010038BD1F2C50
:1057200001D9FFF709FFD5F81005F4E7CEAF000067
:1057300093A20000A817002038B5044690F9000095
:10574000431C0D4604D1A52209490A48FBF7C8F9B4
:10575000C0B2FFF7D7FE94F90000074B1A5C65F35F
:1057600083021A54C0B2BDE83840FFF71FBF00BF24
:10577000CEAF000093A20000A817002038B5044661
:1057800090F90000431C0D4604D1B02209490A4893
:10579000FBF7A6F9C0B2FFF7B5FE94F90000074B7E
:1057A0001A5C65F341021A54C0B2BDE83840FFF7F5
:1057B000FDBE00BFCEAF000093A20000A8170020DE
:1057C0000048704728B00000FFF704BEFFF752BE44
:1057D000014BD3F804057047001001404FF400322C
:1057E0000121FFF763BE000008B5FBF73DFA064B49
:1057F00001221A70054B4FF40032C3F80021BDE8B6
:105800000840FBF747BA00BF2017002000E100E086
:10581000024B4FF40032C3F80823704700100140D8
:10582000044B00221A6082B01B680193019B02B0F6
:10583000704700BF441101400048704730B000007D
:1058400073B51F4E1F4A31781F4C51B100231360AE
:1058500013680093009B4FF48033C4F8083302B000
:1058600070BD1A4B01251D604FF48033C4F8083316
:10587000D4F8043523F00303C4F80435D4F8103504
:1058800023F00F0343F00403C4F81035D4F80835AF
:1058900043F00303C4F80835C4F8401511601368D9
:1058A00001930B49019B0920FDF764FB02210920AC
:1058B000FEF7A2F9074B25601D603570CFE700BFEA
:1058C000D417002040910040009000400490004018
:1058D000B90A000044900040024B01221A60D3F83C
:1058E000000570474490004013B50446FBF7BCF92F
:1058F0000A4AC2F84045D2F8043313F4803308D181
:1059000007490B600B680193019B4FF48033C2F889
:105910000433FBF7BFF902B010BD00BF0090004098
:1059200040910040024B4FF40072C3F800217047D1
:1059300000E100E0024B4FF48032C3F808237047C7
:1059400000900040044B00221A6082B01B68019353
:10595000019B02B0704700BF40910040094B0122FB
:105960001A604FF48032C3F80423074B4FF40072DF
:10597000C3F88020BFF34F8FBFF36F8F034B00221C
:105980001A7070470490004000E100E0D417002036
:1059900010B502FB01F1FBF79BF80446D8B150F8B3
:1059A000042C22F00302043A242A18D8132A14D90A
:1059B00000231B2A0360436016D9242A8360C36036
:1059C00011BF00F110020361436100F118020023CE
:1059D000136053609360204610BD0246F7E7002134
:1059E00000F08CFD204610BD00F10802EFE700BF7B
:1059F000014B1868704700BFA0020020F8B5244F83
:105A00000C460646FBF73AFBBB685D68C4F57E6151
:105A10000F3125F00305294421F47F6121F00F01A6
:105A2000A1F58054B4F5805F07DB0021304600F01B
:105A300059FFBB682B44984204D03046FBF722FB49
:105A40000020F8BD6142304600F04CFF01300DD01F
:105A5000104BBA6819682D1B45F001053046091B2B
:105A600055601960FBF70EFB0120F8BD00213046A0
:105A700000F038FFBA68831A0F2BDEDD064C0549AB
:105A8000246843F00103001B53600860D5E700BFA2
:105A90003C080020D8170020440C0020002944D0E6
:105AA0002DE9F0410D468046FBF7E8FA55F8047CF5
:105AB000694927F00103A5F10804E2188E685068CF
:105AC000B24220F003005ED0FE0750600BD455F8C0
:105AD000087CE41B01F1080EA56875453B446DD0B8
